:040000006AEF00F0B3
:10000800FACF85F0FBCF86F0E9CF87F0A3ED0BF0B0
:10001800D8CF1FF0E8CF20F0E0CF21F0FACF22F0C0
:10002800FBCF23F0E9CF24F0EACF25F0E1CF26F08B
:10003800E2CF27F0D9CF28F0DACF29F0F3CF2AF092
:10004800F4CF2BF0F6CF2CF0F7CF2DF0F8CF2EF021
:10005800F5CF2FF09EA001D001D004D09E900CECDB
:100068000EF011D09EAA01D001D004D09E9A74EC53
:1000780008F009D09EA801D001D005D0E9EC0BF01A
:1000880002D001D000D02FC0F5FF2EC0F8FF2DC040
:10009800F7FF2CC0F6FF2BC0F4FF2AC0F3FF29C0DE
:1000A800DAFF28C0D9FF27C0E2FF26C0E1FF25C03C
:1000B800EAFF24C0E9FF23C0FBFF22C0FAFF21C0EA
:1000C800E0FF20C0E8FF1FC0D8FF100008EF0DF0C8
:1000D80000017A6F000E00010001846F00017A515F
:1000E80000017A6F000E000100017F6F00017A5154
:1000F80000017A6F000E00010001836F00017A5140
:1001080000017A6F000E00010001826F00017A5130
:1001180000017A6F000E00010001806F00017A5122
:10012800C6AC01D001D021D0C69C20EE0CF03050D6
:10013800D9263150DA22050EDF6E00017A6F010EE2
:1001480000010001806F00017A5120EE0EF030505E
:10015800D9263150DA22DF2A20EE0DF03050D92688
:100168003150DA22040EDF6E00D0C7A001D001D0D2
:100178000BD0C9CF81F000017A6F010E0001000198
:10018800846F00017A5100D000010001806701D01E
:1001980001D0E8D1D3D1D2D1C7A601D001D0E2D1C4
:1001A80084C060F0000101EC0BF020EE0CF0305040
:1001B800D9263150DA22080EDF6201D001D0D2D11F
:1001C80000017A6F000E00010001846F00017A516E
:1001D80000017A6F010E00010001826F00017A515F
:1001E800C1D1C0D1BFD1C7A801D001D034D020EE31
:1001F8000BF03050D9263150DA22DF2A00010001F5
:100208008451D8B401D001D01DD0C7BA01D001D0D3
:1002180009D000017A6F010E00010001836F00010F
:100228007A5110D020EE0EF03050D9263150DA2213
:10023800DF2A20EE0DF03050D9263150DA22060E92
:10024800DF6E00D020EE0CF03050D9263150DA2283
:10025800050EDF6E87D1000100018451D8B401D0AA
:1002680001D080D120EE0BF03050D9263150DA225F
:10027800DF2AC7BA01D001D027D0C7B401D001D036
:1002880009D020EE0CF03050D9263150DA22070E72
:10029800DF6E68D120EE0CF03050D9263150DA22CA
:1002A800080EDF6E00017A6F010E00010001826FF7
:1002B80000017A5100017A6F000E00010001846F7D
:1002C80000017A514FD14ED120EE0EF03050D92690
:1002D8003150DA22DF2A20EE0CF03050D926315086
:1002E800DA22050EDF6E20EE0DF03050D92631509F
:1002F800DA22060EDF6E36D135D134D133D120EE75
:100308001AF03050D9263150DA22DF5000017A6FC6
:1003180020EE19F03050D9263150DA22DF50000192
:100328007A5DD8B001D001D028D020EE1AF0305034
:10033800D9263150DA22DF5000017A6F00017A5154
:10034800010D0F0EF326000EF422F3503024D96E5F
:10035800F4503120DA6EDF50C96E20EE1AF03050BA
:10036800D9263150DA22DF2A00017A6F010E000106
:1003780000017F6F00017A51F5D020EE0CF030506B
:10038800D9263150DA22050EDF6EECD0EBD0C7A8A3
:1003980001D001D062D020EE0BF03050D926315078
:1003A800DA22DF2A000100018451D8B401D001D03B
:1003B80042D0C7AA01D001D025D020EE0AF0305093
:1003C800D9263150DA22DF5000017A6F00017A51C4
:1003D800010DF3503024D96EF4503120DA6E00014B
:1003E80081C0DFFF20EE0AF03050D9263150DA22E2
:1003F800DF2A00017A6F010E00010001836F0001FE
:100408007A5122D020EE0EF03050D9263150DA221F
:10041800DF2A20EE0DF03050D9263150DA22060EB0
:10042800DF6E20EE0CF03050D9263150DA22050E5E
:10043800DF6E0AD009D000017A6F010E00010001B9
:10044800836F00017A5100D020EE0CF03050D9268D
:100458003150DA22050EDF6E85D00001000184518B
:10046800D8B401D001D07ED020EE0BF03050D92680
:100478003150DA22DF2AC7AA01D001D01DD020EEE0
:100488000AF03050D9263150DA22DF5000017A6F55
:1004980000017A51010DF3503024D96EF450312007
:1004A800DA6E000181C0DFFF20EE0AF03050D92655
:1004B8003150DA22DF2A56D0C7A401D001D021D08A
:1004C80020EE0CF03050D9263150DA22080EDF6EBB
:1004D80000017A6F010E00010001836F00017A515B
:1004E80000017A6F010E00010001826F00017A514C
:1004F80000017A6F000E00010001846F00017A513B
:1005080031D020EE0EF03050D9263150DA22DF2AD1
:1005180020EE0DF03050D9263150DA22060EDF6E6B
:1005280020EE0CF03050D9263150DA22050EDF6E5D
:1005380019D018D017D016D015D014D020EE0CF042
:100548003050D9263150DA22DF50050AD8B424D6E3
:10055800030AD8B448D6010AD8B419D70F0AD8B4B0
:10056800CED600D000010001846701D001D007D0A9
:10057800000100017F51D8B401D001D007D0C6B81E
:1005880001D001D003D0C68801D000D020EE0AF0F7
:100598003050D9263150DA22080EDF6401D001D05C
:1005A8001ED000010001836701D001D018D020EED1
:1005B8000CF03050D9263150DA22050EDF6E20EECD
:1005C8000EF03050D9263150DA22DF2A20EE0DF015
:1005D8003050D9263150DA22070EDF6E00D00001E4
:1005E80000018351D8B401D001D040D020EE0BF0E7
:1005F8003050D9263150DA2210EE0AF03050E12678
:100608003150E222E75000017A6F00017A51010D62
:10061800F3503024E16EF4503120E26EDFCFE7FF73
:1006280020EE0AF03050D9263150DA22DF5000018E
:100638007A6F00017A2900010001766F00017B6F53
:10064800280E00010001776F00017B5130C078F05F
:1006580031C079F000017BEC0FF020EE0AF0305049
:10066800D9263150DA22000EDF6E4FD020EE0EF080
:100678003050D9263150DA22DF50D8B401D001D019
:1006880044D020EE0EF03050D9263150DA22DF5017
:10069800000100017C6F20EE0DF03050D92631505A
:1006A800DA22DF50000100017D6F20EE0BF03050A0
:1006B800D9263150DA22DF50000100017E6F000197
:1006C8007A6F030E00010001766F00017A51000174
:1006D8007B6F290E00010001776F00017B5100013B
:1006E800000E00010001796F00017C0E0001786F97
:1006F80000017BEC0FF020EE0EF03050D92631507F
:10070800DA22000EDF6E01D000D000010001825114
:10071800D8B401D001D020D000017A6F000E0001BA
:100728000001766F00017A5100017B6F2A0E0001EB
:100738000001776F00017B5130C078F031C079F04B
:1007480000017BEC0FF000017A6F000E0001000140
:10075800826F00017A5100D01200FC0ED36E9B8C80
:100768000101010E00010001946F0101DA0E000180
:10077800936F000197EC0EF00101010E00010001DA
:10078800946F0101D40E0001936F0001FFEC0FF08C
:1007980071EC0CF0000E926E000E896E0101C36FB1
:1007A800D20E00010001936F0101C351000191ECC9
:1007B8000FF00101C36FC50E00010001936F010125
:1007C800C351000178EC0EF09F909F9A9F869D86FA
:1007D80039EC10F0B8EC0FF00101C36F4F0E0001B7
:1007E8000001986F0101C35100013DEC0AF00101BD
:1007F800C36F4F0E00010001986F0101C351000142
:100808003DEC0AF0CDEC09F00101C36F0A0E0001BE
:100818000001AB6F0101C3510101010E000100018C
:10082800AD6F0101D90E0001AC6F0101010E00018D
:100838000001AF6F0101C70E0001AE6F000107ECA8
:100848000FF001010101D86F01010101D8AF01D0FA
:1008580001D069D079D078D077D065D00101010E68
:1008680000010001946F0101D20E0001936F010194
:100878000001D9C195F000010001966B0101010149
:10088800D85100010001976F0001986B000197BFD4
:1008980098070101010E000100019A6F0101C70EBE
:1008A8000001996F000134EC10F04ED00101010EE7
:1008B80001010101D76F0101C80E0101D66F0101C5
:1008C80020EE01F00101D651D9260101D751DA22D3
:1008D800DF50D8B401D001D020D0010120EE01F0C2
:1008E8000101D651D9260101D751DA22DF50FF0A7A
:1008F800D8B401D001D011D00101C36F080E000196
:100908000001936F0101C351D6C194F0D7C195F08E
:1009180000015BEC09F001D000D0C7C1C6F114D0CA
:1009280013D012D011D001010101D9510A0AD8B44B
:1009380095D7220AD8B4BAD7010AD8B4EED7030A91
:10094800D8B402D001D000D00101C36F0A0E000153
:100958000001AB6F0101C3510101010E000100014B
:10096800AD6F0101D90E0001AC6F0101010E00014C
:100978000001AF6F0101C70E0001AE6F00011FEC4F
:100988000FF001010101D86F01010101D8AF01D0B9
:1009980001D0E0D037D736D735D7DCD001010101F7
:1009A800464B472B46C193F047C194F0000E000117
:1009B8000001966F030E0001956F000160EC06F0D0
:1009C80000010001945100019311D8A401D001D075
:1009D80014D00101C36F4F0E00010001B26F010175
:1009E800C3510101C46F080E00010001B36F01017A
:1009F800C4510001E3EC0DF06BD046C193F047C140
:100A080094F0000E00010001966F030E0001956F2F
:100A1800000160EC06F0000100019351020A000198
:100A28009411D8A401D001D002D052D051D046C1DF
:100A380093F047C194F0000E00010001966F030E79
:100A48000001956F000160EC06F000010001935170
:100A5800030A00019411D8A401D001D039D00101B2
:100A6800C36F000E00010001B26F0101C351010103
:100A7800C46F010E00010001B36F0101C4510101EF
:100A8800C56F010E00010001B46F0101C5510001DD
:100A980062EC0DF00101C36F000E00010001B26F9E
:100AA8000101C3510101C46F020E00010001B36FBF
:100AB8000101C4510101C56F010E00010001B46FAD
:100AC8000101C551000162EC0DF002D001D000D047
:100AD8000101010E00010001946F0101D40E000113
:100AE800936F01010001D9C195F000010001966BD7
:100AF80001010101D85100010001976F0001986BB5
:100B0800000197BF98070101010E000100019A6FCB
:100B18000101C70E0001996F00012CEC10F072D68C
:100B280000D0C7C1B2F00101C36F080E0001000177
:100B3800B36F0101C3510101010E00010001B56F3E
:100B48000101C70E0001B46F0001E8EC08F05AD6A5
:100B580059D658D601010101D9510B0AD8B41ED76C
:100B6800150AD8B4DED7010AD8B4DBD74BD64AD693
:100B780049D648D66AEF00F0000120EE35F00001B2
:100B88009D51D92600019E51DA22DF500001000153
:100B9800A66F00010001A6510D0DF35000010001E0
:100BA8009D2500010001A96FF450000100019E215C
:100BB8000001AA6F010EA9C0D9FFAAC0DAFFDF623F
:100BC80001D001D075D0000120EE01F00001A9513B
:100BD800D9260001AA51DA22DF50000100019F61E5
:100BE80001D001D003D0FD0E66D065D0000120EE03
:100BF80001F00001A951D9260001AA51DA22DF50DB
:100C08000001A46F0001A45100010001A76F0001B9
:100C1800A86BA2C093F0A3C094F0030E00010001DA
:100C2800A9250001A46F000E00010001AA210001FE
:100C3800A56FA4C095F0A5C096F0A7C097F0A8C06E
:100C480098F000018DEC0DF0000120EE35F0000168
:100C58009D51D92600019E51DA22000110EE35F08F
:100C680000019D51E12600019E51E222E75000015A
:100C7800A46F0001A429030BDF6E000120EE02F02F
:100C88000001A951D9260001AA51DA22A0C0E1FF2A
:100C9800A1C0E2FFDFCFE7FFA9C0D9FFAAC0DAFFF2
:100CA800000EDF6E00010001A75105D004D003D06B
:100CB800FC0E01D000D012000001976F000E000159
:100CC8000001996F000197510001000194AF01D014
:100CD80001D010D000010001936D0001941FD8B01D
:100CE800942B0001976F010E00010001996F00011C
:100CF800975100D00001000196AF01D001D008D073
:100D080000010001956D0001961FD8B0962B00D008
:100D18000001000196519511D8B401D001D044D0FA
:100D28000001976F010E00010001986F00019751B3
:100D38000AD0000100010001D890953796370001CC
:100D48000001982B00D00001000196AF01D001D01E
:100D5800F0D701D000D00001000195510001000139
:100D6800935D000100019651000100019459D8A03B
:100D780001D001D00DD00001000195510001000102
:100D8800935F00010001965100010001945B00D0BF
:100D9800000100010001D89096339533000100014D
:100DA800982FD9D701D000D0000100019951D8B4AB
:100DB80001D001D008D000010001936D0001941FFB
:100DC800D8B0942B00D093C093F094C094F000D086
:100DD8001200000100019FC0A4F000010001A56BF2
:100DE800000120EE34F000019D51D92600019E51EA
:100DF800DA22DF5000010001A66F00010001A651B0
:100E08000D0DF350000100019D2500010001A76FA1
:100E1800F450000100019E210001A86FA7C0D9FF6E
:100E2800A8C0DAFFDF50D8B401D001D003D0FF0E3C
:100E380052D051D0000120EE01F00001A751D9266F
:100E48000001A851DA2200019FC0DFFF000120EE57
:100E580002F00001A751D9260001A851DA220001A9
:100E6800A0C0DFFF030E00010001A725000100015B
:100E7800936F000E00010001A8210001946FA1C02A
:100E880095F0A2C096F0A4C097F0A5C098F0000114
:100E98008DEC0DF0000120EE34F000019D51D926B3
:100EA80000019E51DA22000110EE34F000019D513C
:100EB800E12600019E51E222E7500001A36F0001E4
:100EC800A329030BDF6EA7C0D9FFA8C0DAFF010E64
:100ED800DF6E010E00D01200000100016CC071F03D
:100EE80000010001726B000120EE34F000016A512C
:100EF800D92600016B51DA22DF5000010001736F1F
:100F08000001000173510D0DF350000100016A2525
:100F180000010001746FF450000100016B21000111
:100F2800756F74C0D9FF75C0DAFFDF50D8B401D02F
:100F380001D003D0FF0E52D051D0000120EE01F0B5
:100F480000017451D92600017551DA2200016CC0E4
:100F5800DFFF000120EE02F000017451D9260001E4
:100F68007551DA2200016DC0DFFF030E0001000198
:100F7800742500010001606F000E00010001752159
:100F88000001616F6EC062F06FC063F071C064F001
:100F980072C065F00001B8EC0DF0000120EE34F0ED
:100FA80000016A51D92600016B51DA22000110EEC6
:100FB80034F000016A51E12600016B51E222E7504A
:100FC8000001706F00017029030BDF6E74C0D9FF38
:100FD80075C0DAFF010EDF6E010E00D012000001AD
:100FE8000001C651D8B401D001D002D078D077D052
:100FF8000001B06F0A0E00010001AB6F0001B05193
:101008000001000E00010001AD6F0001B10E0001EA
:10101800AC6F0001000E00010001AF6F0001B90EB6
:101028000001AE6F000137EC0FF000010001C36F43
:1010380000010001B1512F0AD8A401D001D015D068
:101048000001B06F010E00010001C46F0001B05132
:10105800C5809E86B9C0C9FF0001B06F010E0001AE
:101068000001C66F0001B0513AD000010001B15132
:10107800300AD8A401D001D014D00001B06F000EFE
:1010880000010001C46F0001B051BAC0C3F00001F3
:10109800B06F020E00010001C66F0001B051C5809B
:1010A8001ED000010001B151310AD8A401D001D0ED
:1010B80016D00001B06F000E00010001C46F0001DE
:1010C800B051BBC0C3F00001B06F040E00010001B5
:1010D800C66F0001B051C58002D001D000D0120007
:1010E8009EAA01D001D05AD0000120EE08F00001DC
:1010F800C951D9260001CA51DA22DF501B6E1B5094
:10110800010DF35000010001C925D96EF45000010A
:101118000001CA21DA6ECFEC0EF0DF6E000E026E0F
:10112800000E016E1AEC10F0000120EE08F000012C
:10113800C951D9260001CA51DA22DF2A000120EE5E
:1011480008F00001C951D9260001CA51DA22080E57
:10115800DF6201D001D022D0000120EE08F00001AA
:10116800C951D9260001CA51DA22DF50176E1B6E09
:101178001F0E186E1B50C9C019F0CAC01AF0A6EC91
:101188000FF0000120EE08F00001C951D926000136
:10119800CA51DA22000EDF6E01D000D032A601D08B
:1011A80001D011D0AB98AB881B6E000E176E1B5088
:1011B8001C6E1E0E186E1C50000E1A6E000E196E54
:1011C800A6EC0FF000D0120000010001B25100019E
:1011D800B22501010101B76F000E01010101C26FC3
:1011E800000E0101C16F2BD001010101C1510001A5
:1011F8000001B425D96E01010101C25100010001AD
:10120800B521DA6E010E01010101C1250101B46F9A
:10121800000E01010101C2210101B56F0101B70EE4
:101228000101B425E16E0101010E0101B521E26E53
:10123800DFCFE7FF01010101C14BC22B00D0000144
:101248000001B3510101B46FB56B01010101C25135
:10125800800A0101B66FB45101010101C15D0101AC
:10126800B551800A0101B659D8A001D001D0BCD728
:1012780000D000010001B32900010001A96F01019C
:10128800B46F2F0E00010001AA6F0101B4510101D2
:10129800010E00010001AC6F0101B70E0001AB6F38
:1012A800000165EC0FF0F3EC07F000D0120000012C
:1012B80020EE11F00001C951D9260001CA51DA22E5
:1012C800000EDF6E43D0000120EE11F00001C9517D
:1012D800D9260001CA51DA22DF500001966F0001B9
:1012E8009651010DF350000100019425D96EF45078
:1012F800000100019521DA6E000110EE11F00001E5
:10130800C951E1260001CA51E222E7500001976F56
:1013180000019751010D090EF326000EF422F35037
:1013280000010001C925E16EF45000010001CA2145
:10133800E26EDFCFE7FF000120EE11F00001C95196
:10134800D9260001CA51DA22DF2A00D0000120EE96
:1013580011F00001C951D9260001CA51DA22DF5023
:101368000001966F0001000193510001965DD8A01D
:1013780001D001D0A8D700D0000120EE12F0000162
:10138800C951D9260001CA51DA22000EDF6E9D88A4
:101398001200000136EC0DF0000100019851000127
:1013A8009711D8A401D001D002D062D061D08A862A
:1013B8000001996F010E00010001B76F00019951FA
:1013C80000D00101010E00010001946F0101480ED7
:1013D8000001936F0001B3EC0EF00009D8B401D0FE
:1013E80001D00BD00001996F000E00010001B76F0A
:1013F800000199518A963CD03BD00101010E0001B1
:101408000001946F01017E0E0001936F0001B3EC9F
:101418000EF00009D8B401D001D00BD00001996FAB
:10142800000E00010001B76F000199518A9620D083
:101438001FD00001996F0A0E00010001936F00018F
:1014480099510001EBEC0FF08AA601D002D0010EF1
:1014580001D0000E0001996F0001994799479947FB
:101468008A5000019919F70B99198A6EAAD7A9D73A
:101478001200000E00010001946F0C0E0001936F22
:1014880000014FEC0FF0000193C099F0000194C0E7
:101498009AF099C0D9FF9AC0DAFF000198C0DFFF1F
:1014A800000120EE01F000019951D92600019A515E
:1014B800DA22200EDF6E00010001B851070D010E7F
:1014C800F326000EF4220101000EF324D96E010167
:1014D800010EF420DA6E000199C0DEFF00019AC007
:1014E800DDFF00010001B851070D030EF326000EC1
:1014F800F4220101000EF324D96E0101010EF4203B
:10150800DA6E000EDE6E000EDD6E00010001B851CD
:10151800070D050EF326000EF4220101000EF32438
:10152800D96E0101010EF420DA6E000EDE6E000E97
:10153800DD6E00010001B82B99C094F09AC095F0B7
:10154800000158EC0EF012000DC012F0136A20EEE4
:1015580034F00B50D9260C50DA22DF50146E145098
:101568000D0DF3500B24156EF4500C20166E15C09B
:10157800D9FF16C0DAFFDF50D8B401D001D003D0AC
:10158800FF0E3AD039D020EE01F01550D92616506A
:10159800DA220DC0DFFF20EE02F01550D9261650D2
:1015A800DA220EC0DFFF030E1524016E000E16208E
:1015B800026E0FC003F010C004F012C005F013C093
:1015C80006F034EC0EF020EE34F00B50D9260C5017
:1015D800DA2210EE34F00B50E1260C50E222E750EC
:1015E800116E1128030BDF6E15C0D9FF16C0DAFF84
:1015F800010EDF6E010E00D0120020EE0BF030500D
:10160800D9263150DA22010EDF6E20EE0AF0305072
:10161800D9263150DA22000EDF6E00010001605138
:10162800D8B401D001D034D0C7AA01D001D018D085
:1016380020EE0CF03050D9263150DA22050EDF6E3C
:1016480020EE0EF03050D9263150DA22DF2A20EE73
:101658000DF03050D9263150DA22050EDF6E21D038
:10166800C7A401D001D009D020EE0CF03050D92603
:101678003150DA22080EDF6E14D020EE0CF0305014
:10168800D9263150DA22070EDF6E0BD00AD009D0E6
:1016980020EE0CF03050D9263150DA22060EDF6EDB
:1016A80000D0120000010001B76701D001D002D0BC
:1016B80045D044D00001D9EC0CF000010001635181
:1016C80000016211D8B401D001D002D037D036D091
:1016D8000001F5EC0FF000010001615100016011FB
:1016E800D8A401D001D002D029D028D00101010E00
:1016F80000010001616F0101480E0001606F0001E7
:10170800EBEC0EF00009D8B401D001D002D016D00D
:1017180015D00101010E00010001616F01017E0E6B
:101728000001606F0001EBEC0EF00009D8B401D0A5
:1017380001D002D003D002D040EC10F01200060015
:10174800EACF88F0E1CF89F0E2CF8AF0D9CF8BF0E9
:10175800DACF8CF0F3CF8DF0F4CF8EF0F6CF8FF098
:10176800F7CF90F0F8CF91F0F5CF92F09EA601D088
:1017780001D004D09E966CEC00F000D0F2A401D009
:1017880001D004D0F294C8EC0FF000D056EC0BF066
:1017980092C0F5FF91C0F8FF90C0F7FF8FC0F6FF29
:1017A8008EC0F4FF8DC0F3FF8CC0DAFF8BC0D9FF69
:1017B8008AC0E2FF89C0E1FF88C0EAFF87C0E9FF6D
:1017C80086C0FBFF85C0FAFF1100000120EE12F071
:1017D8000001C951D9260001CA51DA22DF50016E31
:1017E800000120EE11F00001C951D9260001CA51AB
:1017F800DA22DF50015CD8B001D001D028D0000136
:1018080020EE12F00001C951D9260001CA51DA228E
:10181800DF50016E0150010D090EF326000EF4226F
:10182800F35000010001C925D96EF45000010001F0
:10183800CA21DA6EDF50AD6E000120EE12F0000111
:10184800C951D9260001CA51DA22DF2A02D09D984F
:1018580000D01200000120EE34F000019351D92687
:1018680000019451DA22000EDF6E000120EE35F0FF
:1018780000019351D92600019451DA22000EDF6E3F
:101888000001956F000E00010001966F000195514F
:10189800030E00010001966501D001D002D01CD0D2
:1018A8001BD00001000196510D0DF35000010001FD
:1018B8009325D96EF450000100019421DA6E000ED0
:1018C800DF6E00010001962B030E000100019665F2
:1018D80001D001D0E6D700D012000001976F000EAA
:1018E80000010001B76F000197510101010E0001CD
:1018F8000001946F01017E0E0001936F00012EEC30
:101908000CF00101010E00010001946F0101480E65
:101918000001936F00012EEC0CF00201020E000191
:101928000001946F0201360E0001936F00012EEC46
:101938000CF00201020E00010001946F0201000E7A
:101948000001936F00012EEC0CF01200F2AC01D0F4
:1019580001D00AD0000E00010001966F000E0001B0
:10196800956F22D021D020D00001E1EC0FF00001CA
:101978000001945100019311D8B401D001D00AD0CC
:10198800000E00010001966F000E0001956F0CD04B
:101998000BD00AD0000E00010001966F010E000165
:1019A800956F02D001D000D01200F2AC01D001D066
:1019B8000AD0000E00010001636F000E0001626F83
:1019C80022D021D020D00001F5EC0FF00001000159
:1019D800615100016011D8B401D001D00AD0000EC5
:1019E80000010001636F000E0001626F0CD00BD084
:1019F8000AD0000E00010001636F010E0001626F42
:101A080002D001D000D0120002EE6CF011EE90F07E
:101A1800EE6AE550E150FCE1E250FAE102EE00F036
:101A28006C0EEE6AE806FDE101EE00F0B40EEE6A17
:101A3800E806FDE100EEB7F0120EEE6AE806FDE1F9
:101A4800326A316A306A860EF66E200EF76E000E24
:101A5800F86E0900F5CFCBF00900F5CFCCF0000106
:101A6800B1EF03F00001AAEC0CF00001000196515F
:101A780000019511D8A401D001D016D00001E1ECE5
:101A88000FF000010001945100019311D8A401D076
:101A980001D00AD0000E00010001986F010E00016C
:101AA800976F0BD00AD009D0000E00010001986F83
:101AB800000E0001976F01D000D01200D8800001FD
:101AC8000001B23501010101B46FB3C0B5F1B4C072
:101AD800B6F10001B56F030E00010001A96F000106
:101AE800B5510001B66F310E00010001AA6F000167
:101AF800B6510101010E00010001AC6F0101B40EE5
:101B08000001AB6F000165EC0FF0F3EC07F000D0BB
:101B1800120095C09BF096C09CF093C099F094C0B9
:101B28009AF013D09BC0D9FF9CC0DAFF99C0E1FF9F
:101B38009AC0E2FFDFCFE7FF000100019B4B9C2B1F
:101B480000010001994B9A2B00D000010001970772
:101B5800D8A0980700019729D8B49829D8A401D00B
:101B680001D0E0D700D0120062C068F063C069F00D
:101B780060C066F061C067F013D068C0D9FF69C063
:101B8800DAFF66C0E1FF67C0E2FFDFCFE7FF0001D1
:101B98000001684B692B00010001664B672B00D0E0
:101BA800000100016407D8A0650700016429D8B4C2
:101BB8006529D8A401D001D0E0D700D01200D88080
:101BC80000010001B23501010101B46FB3C0B5F1E4
:101BD8000001B46F020E00010001A96F0001B451A9
:101BE8000001B56F300E00010001AA6F0001B55168
:101BF8000101010E00010001AC6F0101B40E0001EA
:101C0800AB6F000165EC0FF0F3EC07F000D01200A9
:101C18008AA201D002D0010E01D0000E1B6E1B4615
:101C28008A501B18FD0B1B188A6E08EC10F001C0B7
:101C38001DF002C01EF01B6E000E176E1B501C6EAE
:101C48000B0E186E1C50000E1A6E000E196EA6ECC4
:101C58000FF0010E026EF40E016E11EC10F012007E
:101C680003C009F004C00AF001C007F002C008F080
:101C78000FD009C0D9FF0AC0DAFF07C0E1FF08C0CA
:101C8800E2FFDFCFE7FF094A0A2A074A082A00D0FD
:101C98000506D8A006060528D8B40628D8A401D079
:101CA80001D0E7D700D0120094C096F095C097F005
:101CB800000120EE02F000019651D926000197514B
:101CC800DA220E0EDF6E000120EE02F000019651BE
:101CD800D92600019751DA22DF5000010001936FE5
:101CE80000013DEC10F012000001000193517E0B41
:101CF800CD6E0001000193AD01D001D002D0CD8E90
:101D080002D0CD9E00D0000ECF6E000ECE6E9E90FB
:101D18000001000193AF01D001D002D09D8001D015
:101D28009D90CD801200F28C9D88AC8A93C0C9F03A
:101D380094C0CAF0000120EE08F00001C951D9266C
:101D48000001CA51DA22000EDF6EAB8E948E949C8D
:101D5800AC84B896650EAF6EAC98AB8E12000001DD
:101D680020EE35F000019351D92600019451DA2272
:101D7800DF500001956F000195510D0DF3500001E2
:101D880000019325D96EF450000100019421DA6E08
:101D9800DF5000D01200F20E3216ABAC01D001D0E9
:101DA80007D03290ABA001D001D002D0328000D051
:101DB800ABA401D001D001D03284ABA201D001D0B4
:101DC80001D03286AECF01F0015000D012000001E0
:101DD80020EE35F000016051D92600016151DA2268
:101DE800DF500001626F000162510D0DF3500001D8
:101DF80000016025D96EF450000100016121DA6EFE
:101E0800DF5000D012000101010E000100019E6F99
:101E18000101480E00019D6FABC09FF0ACC0A0F05F
:101E2800ADC0A1F0AEC0A2F0AFC0A3F00001C0ECFD
:101E380005F000D012000101010E000100019E6FA3
:101E480001017E0E00019D6FABC09FF0ACC0A0F0F9
:101E5800ADC0A1F0AEC0A2F0AFC0A3F00001C0ECCD
:101E680005F000D012000201020E000100019E6F71
:101E78000201000E00019D6FABC09FF0ACC0A0F046
:101E8800ADC0A1F0AEC0A2F0AFC0A3F00001C0EC9D
:101E980005F000D01200CBC095F0CCC096F0000140
:101EA8000001935100010001CB270001000194516A
:101EB80000010001CC2395C093F096C094F000D0A7
:101EC80012000201020E000100019E6F0201000EC5
:101ED80000019D6FA9C09FF0AAC0A0F0ABC0A1F0FF
:101EE800ACC0A2F00001EDEC06F000D01200010138
:101EF800010E000100016B6F0101480E00016A6FBD
:101F080076C06CF077C06DF078C06EF079C06FF075
:101F1800000170EC07F000D012000001000193519D
:101F28007F0BD56E000ED76E000ED66EF2940001B0
:101F3800000193AF01D001D002D0F28A01D0F29A09
:101F4800D58E12000101010E0C6E01017E0E0B6E82
:101F580017C00DF018C00EF019C00FF01AC010F01D
:101F6800A8EC0AF000D0120094869488C78E280E38
:101F7800C66E280EC86E0001936F000E00010001A6
:101F8800C66F000193511200D5EC0FF0000E00014E
:101F98000001616F000E0001606F000123EC10F07A
:101FA8001200000120EE08F00001C951D9260001F5
:101FB800CA51DA22000EDF6E1200000EF2AE010ED8
:101FC80000010001936F0001946B00D01200FA0E1B
:101FD80000F0E82EFDD700010001932FF8D700D0BC
:101FE8001200000EF2AE010E00010001606F000148
:101FF800616B00D0120093C0D9FF94C0DAFF000EC5
:10200800DE6E000EDD6E1200CECF03F0CFCF04F0EF
:1020180003C001F004C002F0120001C003F002C0C6
:1020280004F004C0CFFF03C0CEFF120001C003F0CC
:1020380002C004F004C0D7FF03C0D6FF120060C07E
:1020480062F061C063F063C0D7FF62C0D6FF1200C0
:1020580093C0D9FF94C0DAFFDE2A000EDD221200F9
:1020680099C09BF09AC09CF01200D08EF28EF28C30
:10207800120093C089FF1200D38E030012006C0275
:020000040020DA
:08000000FFFFFFFFFFFFFFFF00
:020000040030CA
:0E000000FF08191EFF8080FF0FC00FE00F40A9
:00000001FF
