:040000006AEF00F0B3
:10000800FACF85F0FBCF86F0E9CF87F067ED0BF0EC
:10001800D8CF1FF0E8CF20F0E0CF21F0FACF22F0C0
:10002800FBCF23F0E9CF24F0EACF25F0E1CF26F08B
:10003800E2CF27F0D9CF28F0DACF29F0F3CF2AF092
:10004800F4CF2BF0F6CF2CF0F7CF2DF0F8CF2EF021
:10005800F5CF2FF09EA001D001D004D09E901AECCD
:100068000EF011D09EAA01D001D004D09E9A93EC34
:1000780009F009D09EA801D001D005D0ADEC0BF055
:1000880002D001D000D02FC0F5FF2EC0F8FF2DC040
:10009800F7FF2CC0F6FF2BC0F4FF2AC0F3FF29C0DE
:1000A800DAFF28C0D9FF27C0E2FF26C0E1FF25C03C
:1000B800EAFF24C0E9FF23C0FBFF22C0FAFF21C0EA
:1000C800E0FF20C0E8FF1FC0D8FF10003FEF0DF091
:1000D80000017A6F000E00010001846F00017A515F
:1000E80000017A6F000E000100017F6F00017A5154
:1000F80000017A6F000E00010001836F00017A5140
:1001080000017A6F000E00010001826F00017A5130
:1001180000017A6F000E00010001806F00017A5122
:10012800C6AC01D001D021D0C69C20EE0CF03050D6
:10013800D9263150DA22050EDF6E00017A6F010EE2
:1001480000010001806F00017A5120EE0EF030505E
:10015800D9263150DA22DF2A20EE0DF03050D92688
:100168003150DA22040EDF6E00D0C7A001D001D0D2
:100178000BD0C9CF81F000017A6F010E0001000198
:10018800846F00017A5100D000010001806701D01E
:1001980001D0E8D1D3D1D2D1C7A601D001D0E2D1C4
:1001A80084C060F00001C5EC0AF020EE0CF030507D
:1001B800D9263150DA22080EDF6201D001D0D2D11F
:1001C80000017A6F000E00010001846F00017A516E
:1001D80000017A6F010E00010001826F00017A515F
:1001E800C1D1C0D1BFD1C7A801D001D034D020EE31
:1001F8000BF03050D9263150DA22DF2A00010001F5
:100208008451D8B401D001D01DD0C7BA01D001D0D3
:1002180009D000017A6F010E00010001836F00010F
:100228007A5110D020EE0EF03050D9263150DA2213
:10023800DF2A20EE0DF03050D9263150DA22060E92
:10024800DF6E00D020EE0CF03050D9263150DA2283
:10025800050EDF6E87D1000100018451D8B401D0AA
:1002680001D080D120EE0BF03050D9263150DA225F
:10027800DF2AC7BA01D001D027D0C7B401D001D036
:1002880009D020EE0CF03050D9263150DA22070E72
:10029800DF6E68D120EE0CF03050D9263150DA22CA
:1002A800080EDF6E00017A6F010E00010001826FF7
:1002B80000017A5100017A6F000E00010001846F7D
:1002C80000017A514FD14ED120EE0EF03050D92690
:1002D8003150DA22DF2A20EE0CF03050D926315086
:1002E800DA22050EDF6E20EE0DF03050D92631509F
:1002F800DA22060EDF6E36D135D134D133D120EE75
:100308001AF03050D9263150DA22DF5000017A6FC6
:1003180020EE19F03050D9263150DA22DF50000192
:100328007A5DD8B001D001D028D020EE1AF0305034
:10033800D9263150DA22DF5000017A6F00017A5154
:10034800010D0F0EF326000EF422F3503024D96E5F
:10035800F4503120DA6EDF50C96E20EE1AF03050BA
:10036800D9263150DA22DF2A00017A6F010E000106
:1003780000017F6F00017A51F5D020EE0CF030506B
:10038800D9263150DA22050EDF6EECD0EBD0C7A8A3
:1003980001D001D062D020EE0BF03050D926315078
:1003A800DA22DF2A000100018451D8B401D001D03B
:1003B80042D0C7AA01D001D025D020EE0AF0305093
:1003C800D9263150DA22DF5000017A6F00017A51C4
:1003D800010DF3503024D96EF4503120DA6E00014B
:1003E80081C0DFFF20EE0AF03050D9263150DA22E2
:1003F800DF2A00017A6F010E00010001836F0001FE
:100408007A5122D020EE0EF03050D9263150DA221F
:10041800DF2A20EE0DF03050D9263150DA22060EB0
:10042800DF6E20EE0CF03050D9263150DA22050E5E
:10043800DF6E0AD009D000017A6F010E00010001B9
:10044800836F00017A5100D020EE0CF03050D9268D
:100458003150DA22050EDF6E85D00001000184518B
:10046800D8B401D001D07ED020EE0BF03050D92680
:100478003150DA22DF2AC7AA01D001D01DD020EEE0
:100488000AF03050D9263150DA22DF5000017A6F55
:1004980000017A51010DF3503024D96EF450312007
:1004A800DA6E000181C0DFFF20EE0AF03050D92655
:1004B8003150DA22DF2A56D0C7A401D001D021D08A
:1004C80020EE0CF03050D9263150DA22080EDF6EBB
:1004D80000017A6F010E00010001836F00017A515B
:1004E80000017A6F010E00010001826F00017A514C
:1004F80000017A6F000E00010001846F00017A513B
:1005080031D020EE0EF03050D9263150DA22DF2AD1
:1005180020EE0DF03050D9263150DA22060EDF6E6B
:1005280020EE0CF03050D9263150DA22050EDF6E5D
:1005380019D018D017D016D015D014D020EE0CF042
:100548003050D9263150DA22DF50050AD8B424D6E3
:10055800030AD8B448D6010AD8B419D70F0AD8B4B0
:10056800CED600D000010001846701D001D007D0A9
:10057800000100017F51D8B401D001D007D0C6B81E
:1005880001D001D003D0C68801D000D020EE0AF0F7
:100598003050D9263150DA22080EDF6401D001D05C
:1005A8001ED000010001836701D001D018D020EED1
:1005B8000CF03050D9263150DA22050EDF6E20EECD
:1005C8000EF03050D9263150DA22DF2A20EE0DF015
:1005D8003050D9263150DA22070EDF6E00D00001E4
:1005E80000018351D8B401D001D040D020EE0BF0E7
:1005F8003050D9263150DA2210EE0AF03050E12678
:100608003150E222E75000017A6F00017A51010D62
:10061800F3503024E16EF4503120E26EDFCFE7FF73
:1006280020EE0AF03050D9263150DA22DF5000018E
:100638007A6F00017A2900010001766F00017B6F53
:10064800280E00010001776F00017B5130C078F05F
:1006580031C079F00001CDEC0FF020EE0AF03050F7
:10066800D9263150DA22000EDF6E4FD020EE0EF080
:100678003050D9263150DA22DF50D8B401D001D019
:1006880044D020EE0EF03050D9263150DA22DF5017
:10069800000100017C6F20EE0DF03050D92631505A
:1006A800DA22DF50000100017D6F20EE0BF03050A0
:1006B800D9263150DA22DF50000100017E6F000197
:1006C8007A6F030E00010001766F00017A51000174
:1006D8007B6F290E00010001776F00017B5100013B
:1006E800000E00010001796F00017C0E0001786F97
:1006F8000001CDEC0FF020EE0EF03050D92631502D
:10070800DA22000EDF6E01D000D000010001825114
:10071800D8B401D001D020D000017A6F000E0001BA
:100728000001766F00017A5100017B6F2A0E0001EB
:100738000001776F00017B5130C078F031C079F04B
:100748000001CDEC0FF000017A6F000E00010001EE
:10075800826F00017A5100D01200FC0ED36E9B8C80
:100768000101010E00010001946F0101DA0E000180
:10077800936F0001E9EC0EF00101010E0001000188
:10078800946F0101C90E0001936F000147EC10F04E
:1007980075EC0CF0000E926E000E896E0101C36FAD
:1007A800960E00010001936F0101C3510001E3ECB3
:1007B8000FF00101C36FE50E00010001936F010105
:1007C800C3510001ADEC0EF09F909F9A9F869D86C5
:1007D80078EC10F00AEC10F00101C36F4F0E000125
:1007E8000001986F0101C351000101EC0AF00101F9
:1007F800C36F4F0E00010001986F0101C351000142
:1008080001EC0AF000D01AEC10F089EC05F000D0E9
:100818000EEC07F0FDD7FCD723EC09F00101C36FFC
:100828000A0E00010001AB6F0101C3510101010E65
:1008380000010001AD6F0101D90E0001AC6F01018B
:10084800010E00010001AF6F0101CB0E0001AE6F78
:10085800000159EC0FF001010101D86F01010101FC
:10086800D8AF01D001D069D079D078D077D065D011
:100878000101010E00010001946F0101C70E000182
:10088800936F01010001D9C195F000010001966B39
:1008980001010101D85100010001976F0001986B17
:1008A800000197BF98070101010E000100019A6F2E
:1008B8000101CB0E0001996F000173EC10F04ED0CE
:1008C8000101010E01010101D76F0101CC0E0101E7
:1008D800D66F010120EE01F00101D651D9260101A0
:1008E800D751DA22DF50D8B401D001D020D001018D
:1008F80020EE01F00101D651D9260101D751DA22A3
:10090800DF50FF0AD8B401D001D011D00101C36F64
:10091800080E00010001936F0101C351D6C194F084
:10092800D7C195F00001B1EC08F001D000D0CBC1DF
:10093800C6F114D013D012D011D001010101D95140
:100948000A0AD8B495D7220AD8B4BAD7010AD8B4B3
:10095800EED7030AD8B402D001D000D00101C36F8A
:100968000A0E00010001AB6F0101C3510101010E24
:1009780000010001AD6F0101D90E0001AC6F01014A
:10098800010E00010001AF6F0101CB0E0001AE6F37
:10099800000171EC0FF001010101D86F01010101A3
:1009A800D8AF01D001D09FD02ED72DD72CD79BD030
:1009B80001010101464B472B0101010146B101D05C
:1009C80001D01CD00101C36F4F0E00010001936FCD
:1009D8000101C3510101C46F100E00010001946FA1
:1009E8000101C4510101C56F080E00010001956F96
:1009F8000101C551000142EC0EF01CD00101C36F8A
:100A08004F0E00010001936F0101C3510101C46F32
:100A1800120E00010001946F0101C4510101C56F5C
:100A2800080E00010001956F0101C551000142EC5B
:100A38000EF000D00101010E00010001946F0101C8
:100A4800C90E0001936F01010001D9C195F00001A1
:100A58000001966B01010101D85100010001976F57
:100A68000001986B000197BF98070101010E000172
:100A780000019A6F0101CB0E0001996F00016BEC28
:100A880010F0C1D6D2C1D3F1D1C1D2F1D0C1D1F1C8
:100A9800CFC1D0F1CEC1CFF1CDC1CEF1CCC1CDF116
:100AA800CBC1CCF10101C36F090E00010001A96F90
:100AB8000101C3510101C46F280E00010001AA6F92
:100AC8000101C4510101010E00010001AC6F0101D7
:100AD800CB0E0001AB6F0001B7EC0FF035EC0CF05A
:100AE80092D691D690D601010101D9510B0AD8B4FA
:100AF8005FD7150AD8B4C6D7010AD8B4C3D783D6E6
:100B080082D681D680D66AEF00F00101B86F060E52
:100B180001010101B46F0101B8510101B96F050E5E
:100B280001010101B56F0101B951010199EC0DF005
:100B38000101B86F070E01010101B46F0101B8513D
:100B48000101B96F050E01010101B56F0101B9512C
:100B5800010199EC0DF00101B86F080E01010101C6
:100B6800B46F0101B8510101B96F050E010101010E
:100B7800B56F0101B951010199EC0DF00101B86F90
:100B8800090E01010101B46F0101B8510101B96FEA
:100B9800050E01010101B56F0101B951010199EC7F
:100BA8000DF00101B86F0A0E01010101B46F0101D6
:100BB800B8510101B96FC40E01010101B56F0101FE
:100BC800B951010199EC0DF00101B86F0B0E01014B
:100BD8000101B46F0101B8510101B96F090E01019A
:100BE8000101B56F0101B951010199EC0DF0010145
:100BF800B86F0C0E01010101B46F0101B851010178
:100C0800B96FC40E01010101B56F0101B9510101AC
:100C180099EC0DF00101B86F0D0E01010101B46FDF
:100C28000101B8510101B96F090E01010101B56F48
:100C38000101B951010199EC0DF00101B86F0E0ED7
:100C480001010101B46F0101B8510101B96FC40E6E
:100C580001010101B56F0101B951010199EC0DF0D4
:100C68000101B86F0F0E01010101B46F0101B85104
:100C78000101B96F090E01010101B56F0101B951F7
:100C8800010199EC0DF00101B86F100E010101018D
:100C9800B46F0101B8510101B96FC40E010101011E
:100CA800B56F0101B951010199EC0DF00101B86F5F
:100CB800110E01010101B46F0101B8510101B96FB1
:100CC800090E01010101B56F0101B951010199EC4A
:100CD8000DF01200000120EE35F000019D51D926DB
:100CE80000019E51DA22DF5000010001A66F0001C9
:100CF8000001A6510D0DF350000100019D250001D2
:100D08000001A96FF450000100019E210001AA6FA3
:100D1800010EA9C0D9FFAAC0DAFFDF6201D001D055
:100D280075D0000120EE01F00001A951D92600017B
:100D3800AA51DA22DF50000100019F6101D001D0E1
:100D480003D0FD0E66D065D0000120EE01F0000151
:100D5800A951D9260001AA51DA22DF500001A46F57
:100D68000001A45100010001A76F0001A86BA2C0F7
:100D780093F0A3C094F0030E00010001A92500011F
:100D8800A46F000E00010001AA210001A56FA4C0F4
:100D980095F0A5C096F0A7C097F0A8C098F00001FC
:100DA800C4EC0DF0000120EE35F000019D51D9266C
:100DB80000019E51DA22000110EE35F000019D512C
:100DC800E12600019E51E222E7500001A46F0001D4
:100DD800A429030BDF6E000120EE02F00001A951E7
:100DE800D9260001AA51DA22A0C0E1FFA1C0E2FF82
:100DF800DFCFE7FFA9C0D9FFAAC0DAFF000EDF6E78
:100E080000010001A75105D004D003D0FC0E01D089
:100E180000D012000101B86F000E01010101B46F8A
:100E28000101B8510101B96F010E01010101B56F4E
:100E38000101B951010199EC0DF000D00101B86F21
:100E4800000E00010001976F0101B8510001CCECC0
:100E58000EF001010101C26F01010101C26701D059
:100E680001D0ECD703D002D0E9D7E8D70101B86F99
:100E7800400E00010001976F0101B8510001CCEC50
:100E88000EF001010101BA6F0101B86F410E0001B6
:100E98000001976F0101B8510001CCEC0EF001017F
:100EA8000101BB6F0101B86F420E00010001976F8D
:100EB8000101B8510001CCEC0EF001010101BC6F39
:100EC8000101B86F430E00010001976F0101B8518D
:100ED8000001CCEC0EF001010101BD6F0101B86FFA
:100EE800440E00010001976F0101B8510001CCECDC
:100EF8000EF001010101BE6F0101B86F450E00013E
:100F08000001976F0101B8510001CCEC0EF001010E
:100F18000101BF6F0101B86F460E00010001976F14
:100F28000101B8510001CCEC0EF001010101C06FC4
:100F38000101B86F470E00010001976F0101B85118
:100F48000001CCEC0EF001010101C16F120000019B
:100F580000019FC0A4F000010001A56B000120EE74
:100F680034F000019D51D92600019E51DA22DF504C
:100F780000010001A66F00010001A6510D0DF350FC
:100F8800000100019D2500010001A76FF450000138
:100F980000019E210001A86FA7C0D9FFA8C0DAFFF1
:100FA800DF50D8B401D001D003D0FF0E52D051D0B9
:100FB800000120EE01F00001A751D9260001A85137
:100FC800DA2200019FC0DFFF000120EE02F00001DD
:100FD800A751D9260001A851DA220001A0C0DFFFDD
:100FE800030E00010001A72500010001936F000E08
:100FF80000010001A8210001946FA1C095F0A2C0D2
:1010080096F0A4C097F0A5C098F00001C4EC0DF0CC
:10101800000120EE34F000019D51D92600019E51B7
:10102800DA22000110EE34F000019D51E1260001A2
:101038009E51E222E7500001A36F0001A329030B90
:10104800DF6EA7C0D9FFA8C0DAFF010EDF6E010E60
:1010580000D01200000100016CC071F00001000115
:10106800726B000120EE34F000016A51D9260001AC
:101078006B51DA22DF5000010001736F000100019B
:1010880073510D0DF350000100016A2500010001A4
:10109800746FF450000100016B210001756F74C07A
:1010A800D9FF75C0DAFFDF50D8B401D001D003D022
:1010B800FF0E52D051D0000120EE01F00001745112
:1010C800D92600017551DA2200016CC0DFFF00014A
:1010D80020EE02F000017451D92600017551DA2280
:1010E80000016DC0DFFF030E00010001742500013F
:1010F8000001606F000E0001000175210001616FA1
:101108006EC062F06FC063F071C064F072C065F0C9
:101118000001EFEC0DF0000120EE34F000016A51FF
:10112800D92600016B51DA22000110EE34F00001DB
:101138006A51E12600016B51E222E7500001706F0D
:1011480000017029030BDF6E74C0D9FF75C0DAFF88
:10115800010EDF6E010E00D01200000120EE11F02A
:101168000001C951D9260001CA51DA22000EDF6EEA
:1011780043D0000120EE11F00001C951D926000129
:10118800CA51DA22DF500001966F00019651010D15
:10119800F350000100019425D96EF45000010001BC
:1011A8009521DA6E000110EE11F00001C951E12617
:1011B8000001CA51E222E7500001976F00019751E0
:1011C800010D090EF326000EF422F3500001000170
:1011D800C925E16EF45000010001CA21E26EDFCF9B
:1011E800E7FF000120EE11F00001C951D9260001E6
:1011F800CA51DA22DF2A00D0000120EE11F00001E6
:10120800C951D9260001CA51DA22DF500001966F70
:101218000001000193510001965DD8A001D001D0D2
:10122800A8D700D0000120EE12F00001C951D9263C
:101238000001CA51DA22000EDF6E9D8812000001FB
:101248006DEC0DF000010001985100019711D8A430
:1012580001D001D002D062D061D08A860001996F96
:10126800010E00010001B36F0001995100D0010186
:10127800010E00010001946F0101480E0001936FF7
:10128800000105EC0FF00009D8B401D001D00BD053
:101298000001996F000E00010001B36F0001995120
:1012A8008A963CD03BD00101010E00010001946FE9
:1012B80001017E0E0001936F000105EC0FF000099B
:1012C800D8B401D001D00BD00001996F000E0001F5
:1012D8000001B36F000199518A9620D01FD00001F8
:1012E800996F0A0E00010001936F000199510001E6
:1012F80033EC10F08AA601D002D0010E01D0000E06
:101308000001996F00019947994799478A50000150
:101318009919F70B99198A6EAAD7A9D712009EAA0C
:1013280001D001D054D0000120EE08F00001C951CD
:10133800D9260001CA51DA22DF501B6E1B50010D5D
:10134800F35000010001C925D96EF45000010001D5
:10135800CA21DA6E21EC0FF0DF6E000120EE08F0F2
:101368000001C951D9260001CA51DA22DF2A000139
:1013780020EE08F00001C951D9260001CA51DA222D
:10138800080EDF6201D001D022D0000120EE08F063
:101398000001C951D9260001CA51DA22DF50176E5F
:1013A8001B6E1F0E186E1B50C9C019F0CAC01AF068
:1013B800F8EC0FF0000120EE08F00001C951D92621
:1013C8000001CA51DA22000EDF6E01D000D032A629
:1013D80001D001D011D0AB98AB881B6E000E176EF0
:1013E8001B501C6E1E0E186E1C50000E1A6E000E3E
:1013F800196EF8EC0FF000D01200000E0001000189
:10140800946F0C0E0001936F0001A1EC0FF0000126
:1014180093C099F0000194C09AF099C0D9FF9AC07E
:10142800DAFF000198C0DFFF000120EE01F00001A3
:101438009951D92600019A51DA22200EDF6E000157
:101448000001B451070D010EF326000EF42201012C
:10145800000EF324D96E0101010EF420DA6E0001AA
:1014680099C0DEFF00019AC0DDFF00010001B45100
:10147800070D030EF326000EF4220101000EF324DB
:10148800D96E0101010EF420DA6E000EDE6E000E38
:10149800DD6E00010001B451070D050EF326000EA4
:1014A800F4220101000EF324D96E0101010EF4208B
:1014B800DA6E000EDE6E000EDD6E00010001B42B48
:1014C80099C094F09AC095F000018DEC0EF01200CE
:1014D8000DC012F0136A20EE34F00B50D9260C50D0
:1014E800DA22DF50146E14500D0DF3500B24156ED4
:1014F800F4500C20166E15C0D9FF16C0DAFFDF5065
:10150800D8B401D001D003D0FF0E3AD039D020EEA4
:1015180001F01550D9261650DA220DC0DFFF20EE53
:1015280002F01550D9261650DA220EC0DFFF030E3E
:101538001524016E000E1620026E0FC003F010C0B5
:1015480004F012C005F013C006F069EC0EF020EEAE
:1015580034F00B50D9260C50DA2210EE34F00B5030
:10156800E1260C50E222E750116E1128030BDF6EC2
:1015780015C0D9FF16C0DAFF010EDF6E010E00D0CC
:10158800120020EE0BF03050D9263150DA22010E2D
:10159800DF6E20EE0AF03050D9263150DA22000EE4
:1015A800DF6E000100016051D8B401D001D034D001
:1015B800C7AA01D001D018D020EE0CF03050D9269F
:1015C8003150DA22050EDF6E20EE0EF03050D926AB
:1015D8003150DA22DF2A20EE0DF03050D926315072
:1015E800DA22050EDF6E21D0C7A401D001D009D0C0
:1015F80020EE0CF03050D9263150DA22080EDF6E7A
:1016080014D020EE0CF03050D9263150DA22070ED3
:10161800DF6E0BD00AD009D020EE0CF03050D9265E
:101628003150DA22060EDF6E00D0120000010001F0
:10163800B36701D001D002D045D044D0000110ECEE
:101648000DF000010001635100016211D8B401D00E
:1016580001D002D037D036D000013DEC10F00001A7
:101668000001615100016011D8A401D001D002D05D
:1016780029D028D00101010E00010001616F01018C
:10168800480E0001606F00013DEC0FF00009D8B46E
:1016980001D001D002D016D015D00101010E0001F1
:1016A8000001616F01017E0E0001606F00013DECD9
:1016B8000FF00009D8B401D001D002D003D002D075
:1016C8007FEC10F012000600EACF88F0E1CF89F035
:1016D800E2CF8AF0D9CF8BF0DACF8CF0F3CF8DF050
:1016E800F4CF8EF0F6CF8FF0F7CF90F0F8CF91F0DF
:1016F800F5CF92F09EA601D001D004D09E966CEC56
:1017080000F000D0F2A401D001D004D0F294AEECE5
:101718000CF000D01AEC0BF092C0F5FF91C0F8FF66
:1017280090C0F7FF8FC0F6FF8EC0F4FF8DC0F3FFA7
:101738008CC0DAFF8BC0D9FF8AC0E2FF89C0E1FF05
:1017480088C0EAFF87C0E9FF86C0FBFF85C0FAFFB3
:101758001100000120EE12F00001C951D926000144
:10176800CA51DA22DF50016E000120EE11F00001AB
:10177800C951D9260001CA51DA22DF50015CD8B01C
:1017880001D001D028D0000120EE12F00001C9518B
:10179800D9260001CA51DA22DF50016E0150010D2D
:1017A800090EF326000EF422F35000010001C925AA
:1017B800D96EF45000010001CA21DA6EDF50AD6E17
:1017C800000120EE12F00001C951D9260001CA51CA
:1017D800DA22DF2A02D09D9800D01200000120EE04
:1017E80034F000019351D92600019451DA22000EF9
:1017F800DF6E000120EE35F000019351D92600017B
:101808009451DA22000EDF6E0001956F000E000180
:101818000001966F00019551030E000100019665C5
:1018280001D001D002D01CD01BD00001000196517C
:101838000D0DF350000100019325D96EF4500001FD
:1018480000019421DA6E000EDF6E00010001962B74
:10185800030E00010001966501D001D0E6D700D043
:10186800120000010001C251D8B401D001D002D049
:1018780037D036D00001B06F0A0E00010001AB6FFF
:101888000001B051B1C0ACF0B2C0ADF00001000E23
:1018980000010001AF6F0001B50E0001AE6F00013D
:1018A80089EC0FF000010001BF6F01D019D00001D1
:1018B800B06F010E00010001C06F0001B051C5807A
:1018C8009E8600010001B5510001B525C96E0001D1
:1018D800B06F010E00010001C26F0001B05100D0CD
:1018E80012000001976F000E00010001B36F0001A4
:1018F80097510101010E00010001946F01017E0E54
:101908000001936F0001F2EC0BF00101010E0001E0
:101918000001946F0101480E0001936F0001F2EC81
:101928000BF00201020E00010001946F0201360E55
:101938000001936F0001F2EC0BF00201020E0001AE
:101948000001946F0201000E0001936F0001F2EC98
:101958000BF012008AA001D002D0010E01D0000EB7
:1019680000017A6F8A5000017A19FE0B7A198A6E83
:1019780000017A6F000E00010001766F00017A51B4
:1019880000017B6F0A0E00010001776F00017B5197
:10199800000E00010001796F000E0001786F000150
:1019A800CDEC0FF0000E00010001616F000E000188
:1019B800606F000162EC10F01200F2AC01D001D0AF
:1019C8000AD0000E00010001966F000E0001956F0D
:1019D80022D021D020D0000129EC10F00001000114
:1019E800945100019311D8B401D001D00AD0000E4F
:1019F80000010001966F000E0001956F0CD00BD00E
:101A08000AD0000E00010001966F010E0001956FCB
:101A180002D001D000D01200F2AC01D001D00AD01F
:101A2800000E00010001636F000E0001626F22D0FA
:101A380021D020D000013DEC10F0000100016151DF
:101A480000016011D8B401D001D00AD0000E000105
:101A58000001636F000E0001626F0CD00BD00AD03A
:101A6800000E00010001636F010E0001626F02D0D9
:101A780001D000D0120002EE6CF011EE90F0EE6A88
:101A8800E550E150FCE1E250FAE102EE00F06C0EA4
:101A9800EE6AE806FDE101EE00F0B40EEE6AE80633
:101AA800FDE100EEB3F0160EEE6AE806FDE1326ADB
:101AB800316A306A040EF66E210EF76E000EF86E6B
:101AC8000900F5CFCBF00900F5CFCCF00001B1EF5C
:101AD80003F00001E1EC0CF0000100019651000157
:101AE8009511D8A401D001D016D0000129EC10F02E
:101AF80000010001945100019311D8A401D001D034
:101B08000AD0000E00010001986F010E0001976FC6
:101B18000BD00AD009D0000E00010001986F000E0A
:101B28000001976F01D000D012000101B66F740E4A
:101B380000010001C56F0101B651B4C1C6F0B5C1BD
:101B4800C7F00101B66F030E00010001A96F010182
:101B5800B6510101B76F280E00010001AA6F0101FB
:101B6800B7510001000E00010001AC6F0001C50E65
:101B78000001AB6F0001B7EC0FF035EC0CF0120070
:101B880095C09BF096C09CF093C099F094C09AF0D1
:101B980013D09BC0D9FF9CC0DAFF99C0E1FF9AC05F
:101BA800E2FFDFCFE7FF000100019B4B9C2B000108
:101BB8000001994B9A2B00D0000100019707D8A08B
:101BC800980700019729D8B49829D8A401D001D042
:101BD800E0D700D0120062C068F063C069F060C04E
:101BE80066F061C067F013D068C0D9FF69C0DAFF3A
:101BF80066C0E1FF67C0E2FFDFCFE7FF0001000139
:101C0800684B692B00010001664B672B00D000016F
:101C180000016407D8A0650700016429D8B46529C4
:101C2800D8A401D001D0E0D700D012008AA201D0F8
:101C380002D0010E01D0000E1B6E1B468A501B18E5
:101C4800FD0B1B188A6E50EC10F001C01DF002C08D
:101C58001EF01B6E000E176E1B501C6E0B0E186EBE
:101C68001C50000E1A6E000E196EF8EC0FF0000EE4
:101C7800026E000E016E59EC10F012000001000116
:101C8800C251D8B401D001D003D0FF0E1DD01CD052
:101C98000001966F000E00010001C06F000196510F
:101CA80095C0BFF0D8800001000193350001000104
:101CB800B56F0001966F020E00010001C26F0001AE
:101CC8009651C580000E00D0120003C009F004C070
:101CD8000AF001C007F002C008F00FD009C0D9FF10
:101CE8000AC0DAFF07C0E1FF08C0E2FFDFCFE7FF65
:101CF800094A0A2A074A082A00D00506D8A0060673
:101D08000528D8B40628D8A401D001D0E7D700D038
:101D1800120094C096F095C097F0000120EE02F0F2
:101D280000019651D92600019751DA220E0EDF6E76
:101D3800000120EE02F000019651D92600019751CA
:101D4800DA22DF5000010001936F00017CEC10F0F3
:101D580012000001000193517E0BCD6E00010001BD
:101D680093AD01D001D002D0CD8E02D0CD9E00D04F
:101D7800000ECF6E000ECE6E9E900001000193AF54
:101D880001D001D002D09D8001D09D90CD8012005D
:101D98000001986F740E00010001936F00019851C3
:101DA80097C094F00001996F080E00010001956F2B
:101DB80000019951000142EC0EF0000100019A6FF8
:101DC800000100019A5100D01200F28C9D88AC8A63
:101DD80093C0C9F094C0CAF0000120EE08F00001D9
:101DE800C951D9260001CA51DA22000EDF6EAB8E26
:101DF800948E949CAC84B896650EAF6EAC98AB8EFE
:101E08001200000120EE35F000019351D92600019F
:101E18009451DA22DF500001956F000195510D0DA4
:101E2800F350000100019325D96EF4500001000120
:101E38009421DA6EDF5000D01200F20E3216ABACED
:101E480001D001D007D03290ABA001D001D002D090
:101E5800328000D0ABA401D001D001D03284ABA233
:101E680001D001D001D03286AECF01F0015000D0B0
:101E78001200000120EE35F000016051D926000162
:101E88006151DA22DF500001626F000162510D0DCD
:101E9800F350000100016025D96EF45000010001E3
:101EA8006121DA6EDF5000D012000101010E00013D
:101EB80000019E6F0101480E00019D6FABC09FF0AD
:101EC800ACC0A0F0ADC0A1F0AEC0A2F0AFC0A3F00E
:101ED80000016EEC06F000D012000101010E0001B5
:101EE80000019E6F01017E0E00019D6FABC09FF047
:101EF800ACC0A0F0ADC0A1F0AEC0A2F0AFC0A3F0DE
:101F080000016EEC06F000D012000201020E000182
:101F180000019E6F0201000E00019D6FABC09FF093
:101F2800ACC0A0F0ADC0A1F0AEC0A2F0AFC0A3F0AD
:101F380000016EEC06F000D01200CBC095F0CCC0CA
:101F480096F000010001935100010001CB27000128
:101F58000001945100010001CC2395C093F096C074
:101F680094F000D012000201020E000100019E6FE1
:101F78000201000E00019D6FA9C09FF0AAC0A0F049
:101F8800ABC0A1F0ACC0A2F00001ABEC07F000D0F0
:101F980012000101010E000100016B6F0101480EE2
:101FA80000016A6F76C06CF077C06DF078C06EF093
:101FB80079C06FF000012EEC08F000D0120000018B
:101FC800000193517F0BD56E000ED76E000ED66EB2
:101FD800F2940001000193AF01D001D002D0F28A3F
:101FE80001D0F29AD58E12000101010E0C6E01018A
:101FF8007E0E0B6E17C00DF018C00EF019C00FF052
:102008001AC010F06CEC0AF000D012009486948884
:10201800C78E280EC66E280EC86E0001936F000E7C
:1020280000010001C26F000193511200000E806E82
:10203800000E926E100E816E040E936E330EAF6E0C
:10204800240EAC6E900EAB6E1200000EF2AE010EB6
:1020580000010001936F0001946B00D01200FA0E8A
:1020680000F0E82EFDD700010001932FF8D700D02B
:102078001200000EF2AE010E00010001606F0001B7
:10208800616B00D0120093C0D9FF94C0DAFF000E34
:10209800DE6E000EDD6E1200CECF03F0CFCF04F05F
:1020A80003C001F004C002F0120001C003F002C036
:1020B80004F004C0CFFF03C0CEFF120060C062F07E
:1020C80061C063F063C0D7FF62C0D6FF120093C03F
:1020D800D9FF94C0DAFFDE2A000EDD22120099C073
:1020E8009BF09AC09CF01200D08EF28EF28C1200F7
:0E20F80093C089FF1200D38E030012006C0209
:020000040020DA
:08000000FFFFFFFFFFFFFFFF00
:020000040030CA
:0E000000FF08191EFF8080FF0FC00FE00F40A9
:00000001FF
