:0400000062EF00F0BB
:10000800FACF80F0FBCF81F0E9CF82F069ED08F0FC
:10001800D8CF1DF0E8CF1EF0E0CF1FF0FACF20F0C8
:10002800FBCF21F0E9CF22F0EACF23F0E1CF24F093
:10003800E2CF25F0D9CF26F0DACF27F0F3CF28F09A
:10004800F4CF29F0F6CF2AF0F7CF2BF0F8CF2CF029
:10005800F5CF2DF09EA001D001D004D09E9090EC59
:100068000CF009D09EA801D001D005D09E9802ECD2
:1000780009F001D000D02DC0F5FF2CC0F8FF2BC02F
:10008800F7FF2AC0F6FF29C0F4FF28C0F3FF27C0F6
:10009800DAFF26C0D9FF25C0E2FF24C0E1FF23C054
:1000A800EAFF22C0E9FF21C0FBFF20C0FAFF1FC002
:1000B800E0FF1EC0E8FF1DC0D8FF1000C1EF09F027
:1000C800FC0ED36E9B8C0101010E000100018F6FA5
:1000D8000101D20E00018E6F000167EC0BF00101E7
:1000E800010E000100018F6F0101C30E00018E6F28
:1000F8000001E5EC0CF08AEC09F0000E926E000E9F
:10010800896E000E946E000E8B6E0001B46FD20ED5
:10011800000100018E6F0001B45100017BEC0CF06E
:100128000001B46FC50E000100018E6F0001B451CB
:10013800000148EC0BF09F909F8A9F989F869D86B0
:100148000BEC0DF0B7EC0CF0A6EC07F00001B46F67
:100158000A0E00010001A66F0001B4510101010E51
:1001680000010001A86F0101D10E0001A76F010174
:10017800010E00010001AA6F0101C50E0001A96F5F
:100188000001D9EC0BF001010101D06F010101015F
:10019800D0AF01D001D072D082D081D080D06ED0C3
:1001A8000101010E000100018F6F0101C10E000164
:1001B8008E6F01010001D1C190F000010001916B27
:1001C80001010101D05100010001926F0001936B00
:1001D800000192BF93070101010E00010001956F14
:1001E8000101C50E0001946F000106EC0DF057D017
:1001F800C5C18EF0000185EC0BF0C6C18EF0000180
:1002080085EC0BF0C7C18EF0000185EC0BF0010105
:100218000101D890C531740AD8A401D001D003D007
:10022800C7C1C0F125D001010101C551D8B401D021
:1002380001D01ED001010101C729D8B401D001D0D5
:1002480017D00001B46F080E000100018E6F000185
:10025800B4510101010E00010001906F0101C70EA8
:1002680000018F6F000134EC07F002D001D000D0FC
:10027800C5C1BFF114D013D012D011D001010101B2
:10028800D1510A0AD8B48CD7220AD8B4B1D7010AF6
:10029800D8B4EED7030AD8B402D001D000D00001F8
:1002A800B46F0A0E00010001A66F0001B4510101EC
:1002B800010E00010001A86F0101D10E0001A76F16
:1002C8000101010E00010001AA6F0101C50E000124
:1002D800A96F0001F1EC0BF001010101D06F0101E0
:1002E8000101D0AF01D001D060D02ED72DD72CD7A7
:1002F8005CD001010101466701D001D02AD000017C
:10030800B46F4F0E00010001AD6F0001B451000140
:10031800B56F080E00010001AE6F0001B551000174
:1003280050EC0AF00001B46F010E01010101466FA3
:100338000001B4518BA001D002D0010E01D0000EF3
:100348000001B46F8B500001B419FE0BB4198B6E09
:10035800FBD6010101014605D8A401D001D0F4D68D
:100368000001B46F000E01010101466F0001B45194
:10037800EBD6EAD6E9D600D0C5C1ADF00001B46F1E
:10038800080E00010001AE6F0001B4510101010E19
:1003980000010001B06F0101C50E0001AF6F00013F
:1003A800C1EC06F0D1D6D0D6CFD601010101D1518A
:1003B8000B0AD8B49ED7150AD8B4DED7010AD8B428
:1003C800DBD7C2D6C1D6C0D6BFD662EF00F0E6D022
:1003D800B1EC04F0F9D000010001C351D880D884F1
:1003E80000010001C2AFC25DD8A0D884D8B401D042
:1003F80001D012D000010001C351010D0001B80E57
:10040800F324D96E0001000EF420DA6EDF50C96EB5
:1004180000010001C32BD8D000017F6F000E00013E
:100428000001C56F00017F51C584CED0CDD0000139
:100438000001C351010D0001B80EF324D96E00016B
:10044800000EF420DA6EDF50C96E00010001C32BE4
:1004580000017F6F030E00010001C56F00017F518D
:10046800B3D000010001C351D880D8840001000135
:10047800C2AFC25DD8A0D884D8B401D001D01BD0F7
:1004880000017F6F050E00010001C56F00017F515B
:1004980000010001C351010D0001B80EF324D96E0B
:1004A8000001000EF420DA6EC9CFDFFF0001000161
:1004B800C32BC58689D000017F6F000E00010001A3
:1004C800C56F00017F51C584C2C076F000017F6FFF
:1004D800280E00010001776F00017F510001000E16
:1004E80000010001796F0001B80E0001786F00016A
:1004F8004FEC0CF069D068D0000120EEC3F0010E7B
:10050800DF6401D001D012D000010001C351010DF8
:100518000001B80EF324D96E0001000EF420DA6E43
:10052800DF50C96E00010001C32B4ED000017F6F60
:10053800000E00010001C36F00017F51000100019E
:10054800B851FE0B00010001B86F00017F6F020E69
:1005580000010001C56F00017F51C58235D034D03C
:10056800C58800010001C351D880D884000100016A
:10057800C2AFC25DD8A0D884D8B401D001D002D00F
:10058800C59A02D0C58A00D000017F6F030E000112
:100598000001C56F00017F5117D016D0000100017E
:1005A800C551000AD8B414D7010AD8B414D7030A1D
:1005B800D8B43DD7010AD8B454D7070AD8B49CD7C1
:1005C800010AD8B4CDD700D01200000120EE35F0D2
:1005D80000019851D92600019951DA22DF50000113
:1005E8000001A16F00010001A1510D0DF3500001A0
:1005F8000001982500010001A46FF45000010001DA
:1006080099210001A56F010EA4C0D9FFA5C0DAFF8A
:10061800DF6201D001D075D0000120EE01F00001A9
:10062800A451D9260001A551DA22DF5000010001AA
:100638009A6101D001D003D0FD0E66D065D00001CB
:1006480020EE01F00001A451D9260001A551DA22BB
:10065800DF5000019F6F00019F5100010001A26F50
:100668000001A36B9DC08EF09EC08FF0030E0001A9
:100678000001A42500019F6F000E00010001A521C3
:100688000001A06F9FC090F0A0C091F0A2C092F0AE
:10069800A3C093F00001A9EC0AF0000120EE35F0A8
:1006A80000019851D92600019951DA22000110EE73
:1006B80035F000019851E12600019951E222E750F6
:1006C80000019F6F00019F29030BDF6E000120EEE0
:1006D80002F00001A451D9260001A551DA229BC0DD
:1006E800E1FF9CC0E2FFDFCFE7FFA4C0D9FFA5C0B0
:1006F800DAFF000EDF6E00010001A25105D004D020
:1007080003D0FC0E01D000D01200000120EE35F01D
:1007180000016A51D92600016B51DA22DF5000012D
:100728000001736F0001000173510D0DF3500001BA
:1007380000016A2500010001766FF45000010001F4
:100748006B210001776F010E76C0D9FF77C0DAFF01
:10075800DF6201D001D075D0000120EE01F0000168
:100768007651D92600017751DA22DF5000010001C5
:100778006C6101D001D003D0FD0E66D065D00001B8
:1007880020EE01F000017651D92600017751DA22D6
:10079800DF500001716F0001715100010001746F99
:1007A8000001756B6FC060F070C061F0030E00014E
:1007B800000176250001716F000E0001000177210C
:1007C8000001726F71C062F072C063F074C064F0AF
:1007D80075C065F00001D4EC0AF0000120EE35F098
:1007E80000016A51D92600016B51DA22000110EE8E
:1007F80035F000016A51E12600016B51E222E75011
:100808000001716F00017129030BDF6E000120EEFA
:1008180002F000017651D92600017751DA226DC025
:10082800E1FF6EC0E2FFDFCFE7FF76C0D9FF77C0F8
:10083800DAFF000EDF6E00010001745105D004D00C
:1008480003D0FC0E01D000D0120000010001C551F8
:10085800D8B401D001D002D07FD07ED00001AB6FD8
:100868000A0E00010001A66F0001AB510001000E45
:1008780000010001A86F0001AC0E0001A76F000184
:10088800000E00010001AA6F0001B80E0001A96F57
:10089800000109EC0CF000010001C26F0001000129
:1008A800C251FC0AD8A401D001D002D055D054D0EE
:1008B80000010001AC512F0AD8A401D001D012D0F8
:1008C8000001AB6F000E00010001C36F0001AB51C6
:1008D8000001AB6F010E00010001C56F0001AB51B3
:1008E800C5803AD000010001AC51300AD8A401D02B
:1008F80001D014D00001AB6F000E00010001C36FDE
:100908000001AB51B9C0C2F00001AB6F020E00018B
:100918000001C56F0001AB51C5801ED00001000168
:10092800AC51310AD8A401D001D016D00001AB6F68
:10093800000E00010001C36F0001AB51BAC0C2F044
:100948000001AB6F040E00010001C56F0001AB513F
:10095800C58002D001D000D0120000010001C551AD
:10096800D8B401D001D002D07FD07ED000017D6FF5
:100978000A0E00010001786F00017D510001000E90
:10098800000100017A6F00017E0E0001796F0001FD
:10099800000E000100017C6F0001B80E00017B6FA2
:1009A800000121EC0CF000010001C26F0001000100
:1009B800C251FC0AD8A401D001D002D055D054D0DD
:1009C800000100017E512F0AD8A401D001D012D015
:1009D80000017D6F000E00010001C36F00017D5111
:1009E80000017D6F010E00010001C56F00017D51FE
:1009F800C5803AD0000100017E51300AD8A401D048
:100A080001D014D000017D6F000E00010001C36FFA
:100A180000017D51B9C0C2F000017D6F020E0001D6
:100A28000001C56F00017D51C5801ED00001000185
:100A38007E51310AD8A401D001D016D000017D6FB3
:100A4800000E00010001C36F00017D51BAC0C2F061
:100A580000017D6F040E00010001C56F00017D518A
:100A6800C58002D001D000D01200000100019AC058
:100A78009FF000010001A06B000120EE34F000019E
:100A88009851D92600019951DA22DF50000100015E
:100A9800A16F00010001A1510D0DF35000010001EB
:100AA800982500010001A26FF4500001000199216E
:100AB8000001A36FA2C0D9FFA3C0DAFFDF50D8B4EA
:100AC80001D001D003D0FF0E52D051D0000120EE4A
:100AD80001F00001A251D9260001A351DA22000138
:100AE8009AC0DFFF000120EE02F00001A251D926D2
:100AF8000001A351DA2200019BC0DFFF030E0001B1
:100B08000001A225000100018E6F000E0001000106
:100B1800A32100018F6F9CC090F09DC091F09FC0F1
:100B280092F0A0C093F00001A9EC0AF0000120EEB9
:100B380034F000019851D92600019951DA220001B8
:100B480010EE34F000019851E12600019951E2229B
:100B5800E75000019E6F00019E29030BDF6EA2C0C3
:100B6800D9FFA3C0DAFF010EDF6E010E00D012001C
:100B7800000100016CC071F000010001726B0001FE
:100B880020EE34F000016A51D92600016B51DA22B7
:100B9800DF5000010001736F0001000173510D0D5A
:100BA800F350000100016A2500010001746FF45040
:100BB800000100016B210001756F74C0D9FF75C079
:100BC800DAFFDF50D8B401D001D003D0FF0E52D0E5
:100BD80051D0000120EE01F000017451D926000126
:100BE8007551DA2200016CC0DFFF000120EE02F02F
:100BF80000017451D92600017551DA2200016DC037
:100C0800DFFF030E00010001742500010001606F81
:100C1800000E0001000175210001616F6EC062F0D5
:100C28006FC063F071C064F072C065F00001D4EC6D
:100C38000AF0000120EE34F000016A51D9260001C3
:100C48006B51DA22000110EE34F000016A51E126FE
:100C580000016B51E222E7500001706F000170291A
:100C6800030BDF6E74C0D9FF75C0DAFF010EDF6EAB
:100C7800010E00D012009EAA01D001D07DD0000143
:100C8800ABCF7BF0000100017C6B000120EE08F087
:100C98000001C851D9260001C951DA22DF500001EC
:100CA8007A6F00017A51010DF35000010001C82547
:100CB800D96EF45000010001C921DA6EAECFDFFF12
:100CC800F28C000120EE08F00001C851D92600017D
:100CD800C951DA22DF2AB6C060F0000100EC0DF03D
:100CE80000010001B751B611000ED8B4010E000181
:100CF8000001B66F0001B76B000120EE08F000019B
:100D0800C851D9260001C951DA22080EDF6201D084
:100D180001D028D0000120EE08F00001C851D926E2
:100D28000001C951DA22DF5000010001766F00018D
:100D38007A6F1F0E00010001776F00017A51C8C059
:100D480078F0C9C079F0000165EC0CF0000120EEE4
:100D580008F00001C851D9260001C951DA22000E55
:100D6800DF6E00D0000100017BA101D001D004D0CA
:100D7800AB98AB8801D000D0120000010001AD5142
:100D88000001AD2501010101B36F000E0101010150
:100D9800BE6F000E0101BD6F2BD001010101BD51D5
:100DA80000010001AF25D96E01010101BE5100010A
:100DB8000001B021DA6E010E01010101BD2500011B
:100DC800B16F000E01010101BE210001B26F0101E6
:100DD800B30E0001B125E16E0101010E0001B2213F
:100DE800E26EDFCFE7FF01010101BD4BBE2B00D052
:100DF80000010001AE510001B16FB26B01010101A8
:100E0800BE51800A0001B36FB15101010101BD5DFE
:100E18000001B251800A0001B359D8A001D001D015
:100E2800BCD700D000010001AE2900010001A46F69
:100E38000001B16F2F0E00010001A56F0001B15133
:100E48000101010E00010001A76F0101B30E0001AD
:100E5800A66F000139EC0CF029EC04F000D0120068
:100E6800000120EE11F00001C851D9260001C95136
:100E7800DA22000EDF6E43D0000120EE11F00001EF
:100E8800C851D9260001C951DA22DF500001916FFB
:100E980000019151010DF350000100018F25D96E19
:100EA800F450000100019021DA6E000110EE11F0FB
:100EB8000001C851E1260001C951E222E7500001B2
:100EC800926F00019251010D090EF326000EF422D3
:100ED800F35000010001C825E16EF4500001000143
:100EE800C921E26EDFCFE7FF000120EE11F000011B
:100EF800C851D9260001C951DA22DF2A00D00001E1
:100F080020EE11F00001C851D9260001C951DA229A
:100F1800DF500001916F000100018E510001915DC9
:100F2800D8A001D001D0A8D700D0000120EE12F03F
:100F38000001C851D9260001C951DA22000EDF6E1E
:100F48009D88120000017DEC0AF000010001935118
:100F580000019211D8A401D001D002D05CD05BD09E
:100F68008A860001946F010E306E0001945100D002
:100F78000101010E000100018F6F0101470E000100
:100F88008E6F0001A1EC0BF00009D8B401D001D09C
:100F980009D00001946F000E306E000194518A96BA
:100FA8003AD039D00101010E000100018F6F010113
:100FB8007D0E00018E6F0001A1EC0BF00009D8B482
:100FC80001D001D009D00001946F000E306E0001ED
:100FD80094518A9620D01FD00001946F0A0E000108
:100FE80000018E6F000194510001D1EC0CF08AA62B
:100FF80001D002D0010E01D0000E0001946F000153
:101008009447944794478A5000019419F70B941910
:101018008A6EAED7ADD712000DC012F0136A20EE5B
:1010280034F00B50D9260C50DA22DF50146E1450CD
:101038000D0DF3500B24156EF4500C20166E15C0D0
:10104800D9FF16C0DAFFDF50D8B401D001D003D0E1
:10105800FF0E3AD039D020EE01F01550D92616509F
:10106800DA220DC0DFFF20EE02F01550D926165007
:10107800DA220EC0DFFF030E1524016E000E1620C3
:10108800026E0FC003F010C004F012C005F013C0C8
:1010980006F024EC0BF020EE34F00B50D9260C505F
:1010A800DA2210EE34F00B50E1260C50E222E75021
:1010B800116E1128030BDF6E15C0D9FF16C0DAFFB9
:1010C800010EDF6E010E00D012000600EACF83F099
:1010D800E1CF84F0E2CF85F0D9CF86F0DACF87F080
:1010E800F3CF88F0F4CF89F0F6CF8AF0F7CF8BF002
:1010F800F8CF8CF0F5CF8DF09EAA01D001D004D0A6
:101108009E9A3FEC06F000D09EA601D001D004D0F4
:101118009E96EBEC01F000D0F2A401D001D004D0EF
:10112800F294FFEC0AF000D0B7EC08F08DC0F5FFA0
:101138008CC0F8FF8BC0F7FF8AC0F6FF89C0F4FFA8
:1011480088C0F3FF87C0DAFF86C0D9FF85C0E2FFF9
:1011580084C0E1FF83C0EAFF82C0E9FF81C0FBFFD2
:1011680080C0FAFF1100306601D001D002D045D00E
:1011780044D0000121EC0AF0000100016351000194
:101188006211D8B401D001D002D037D036D00001D6
:10119800DBEC0CF000010001615100016011D8A4E2
:1011A80001D001D002D029D028D00101010E0001C0
:1011B8000001616F0101470E0001606F0001BDEC85
:1011C8000BF00009D8B401D001D002D016D015D048
:1011D8000101010E00010001616F01017D0E000196
:1011E800606F0001BDEC0BF00009D8B401D001D04C
:1011F80002D003D002D00FEC0DF01200000120EE57
:1012080012F00001C851D9260001C951DA22DF5075
:10121800016E000120EE11F00001C851D92600012D
:10122800C951DA22DF50015CD8B001D001D028D0F2
:10123800000120EE12F00001C851D9260001C95161
:10124800DA22DF50016E0150010D090EF326000E5F
:10125800F422F35000010001C825D96EF4500001B2
:101268000001C921DA6EDF50AD6E000120EE12F0E8
:101278000001C851D9260001C951DA22DF2A02D05B
:101288009D9800D01200000120EE34F000018E512C
:10129800D92600018F51DA22000EDF6E000120EE00
:1012A80035F000018E51D92600018F51DA22000E47
:1012B800DF6E0001906F000E00010001916F0001C8
:1012C8009051030E00010001916501D001D002D0B8
:1012D8001CD01BD00001000191510D0DF3500001ED
:1012E80000018E25D96EF450000100018F21DA6EBD
:1012F800000EDF6E00010001912B030E00010001BA
:10130800916501D001D0E6D700D012000001926F9C
:10131800000E306E000192510101010E0001000122
:101328008F6F01017D0E00018E6F000147EC09F0FF
:101338000101010E000100018F6F0101470E00013C
:101348008E6F000147EC09F00201020E0001000156
:101358008F6F0201360E00018E6F000147EC09F015
:101368000201020E000100018F6F0201000E000150
:101378008E6F000147EC09F0120002EE6CF011EEDE
:1013880090F0EE6AE550E150FCE1E250FAE102EE3D
:1013980000F06C0EEE6AE806FDE101EE00F0B30E17
:1013A800EE6AE806FDE100EEB6F0120EEE6AE80617
:1013B800FDE100EE2EF0080EEE6AE806FDE1240ECF
:1013C800F66E1A0EF76E000EF86E0900F5CF36F0BD
:1013D8000900F5CF37F0000164EF00F0F2AC01D05E
:1013E80001D00AD0000E00010001916F000E00012B
:1013F800906F22D021D020D00001C7EC0CF0000162
:1014080000018F5100018E11D8B401D001D00AD04B
:10141800000E00010001916F000E0001906F0CD0CA
:101428000BD00AD0000E00010001916F010E0001DF
:10143800906F02D001D000D01200F2AC01D001D0E0
:101448000AD0000E00010001636F000E0001626FF8
:1014580022D021D020D00001DBEC0CF000010001EB
:10146800615100016011D8B401D001D00AD0000E3A
:1014780000010001636F000E0001626F0CD00BD0F9
:101488000AD0000E00010001636F010E0001626FB7
:1014980002D001D000D01200D88000010001AD3583
:1014A80000010001B16F00010001AE290001000137
:1014B800B26F0001AF6F020E00010001A46F0001BE
:1014C800AF510001B06F300E00010001A56F00019F
:1014D800B0510001000E00010001A76F0001B10E1C
:1014E8000001A66F000139EC0CF029EC04F000D0E3
:1014F80012000001F2EC09F0000100019151000115
:101508009011D8A401D001D016D00001C7EC0CF07E
:10151800000100018F5100018E11D8A401D001D023
:101528000AD0000E00010001936F010E0001926FB6
:101538000BD00AD009D0000E00010001936F000EF5
:101548000001926F01D000D0120090C096F091C0B7
:1015580097F08EC094F08FC095F013D096C0D9FF45
:1015680097C0DAFF94C0E1FF95C0E2FFDFCFE7FF45
:1015780000010001964B972B00010001944B952B1D
:1015880000D0000100019207D8A09307000192291A
:10159800D8B49329D8A401D001D0E0D700D0120044
:1015A80062C068F063C069F060C066F061C067F04F
:1015B80013D068C0D9FF69C0DAFF66C0E1FF67C011
:1015C800E2FFDFCFE7FF00010001684B692B000154
:1015D8000001664B672B00D0000100016407D8A00A
:1015E800650700016429D8B46529D8A401D001D0C1
:1015F800E0D700D0120000017A6F000E0001000150
:10160800766F00017A5100017B6F0A0E000100011C
:10161800776F00017B51000E00010001796F000E09
:101628000001786F00014FEC0CF0000E0001000182
:10163800616F000E0001606F0001F7EC0CF0120002
:1016480003C009F004C00AF001C007F002C008F0A6
:101658000FD009C0D9FF0AC0DAFF07C0E1FF08C0F0
:10166800E2FFDFCFE7FF094A0A2A074A082A00D023
:101678000506D8A006060528D8B40628D8A401D09F
:1016880001D0E7D700D01200000100018E517E0B77
:10169800CD6E000100018EAD01D001D002D0CD8EFB
:1016A80002D0CD9E00D0000ECF6E000ECE6E9E9062
:1016B800000100018EAF01D001D002D09D8001D081
:1016C8009D90CD801200F28C9D88AC8A8EC0C8F0A7
:1016D8008FC0C9F0000120EE08F00001C851D926DA
:1016E8000001C951DA22000EDF6EAB8E948E949CF5
:1016F800AC84B896650EAF6EAC98AB8EAB889D8AFD
:101708001200000100018E390F0B0F0B00010001C0
:101718008F6F000100018E510F0B00010001906FC7
:101728000F0E896E8FC089FF0F0E896E90C089FFDA
:101738000F0E896E000E896E1200000120EE35F042
:1017480000018E51D92600018F51DA22DF500001A5
:10175800906F000190510D0DF350000100018E258E
:10176800D96EF450000100018F21DA6EDF5000D0ED
:101778001200000120EE35F000016051D926000169
:101788006151DA22DF500001626F000162510D0DD4
:10179800F350000100016025D96EF45000010001EA
:1017A8006121DA6EDF5000D012000101010E000144
:1017B8000001996F0101470E0001986FA6C09AF0C9
:1017C800A7C09BF0A8C09CF0A9C09DF0AAC09EF03D
:1017D8000001E9EC02F000D012000101010E000145
:1017E8000001996F01017D0E0001986FA6C09AF063
:1017F800A7C09BF0A8C09CF0A9C09DF0AAC09EF00D
:101808000001E9EC02F000D012000201020E000112
:101818000001996F0201000E0001986FA6C09AF0AE
:10182800A7C09BF0A8C09CF0A9C09DF0AAC09EF0DC
:101838000001E9EC02F000D012000201020E0001E2
:1018480000016B6F0201000E00016A6F78C06CF036
:1018580079C06DF07AC06EF07BC06FF07CC070F01C
:10186800000189EC03F000D012000201020E000111
:101878000001996F0201000E0001986FA4C09AF050
:10188800A5C09BF0A6C09CF0A7C09DF0000139EC54
:1018980005F000D012000101010E000100016B6F7C
:1018A8000101470E00016A6F76C06CF077C06DF0D9
:1018B80078C06EF079C06FF00001BCEC05F000D084
:1018C80012000101010E000100016B6F01017D0E84
:1018D80000016A6F76C06CF077C06DF078C06EF06A
:1018E80079C06FF00001BCEC05F000D012000001D7
:1018F80000018E517F0BD56E000ED76E000ED66E8E
:10190800F294000100018EAF01D001D002D0F28A1A
:1019180001D0F29AD58E12001B6E000E176E1B5066
:101928001C6E0B0E186E1C50000E1A6E000E196EEF
:10193800A5EC0CF0010E026EF40E016EEEEC0CF04C
:1019480012000101010E0C6E01017D0E0B6E17C015
:101958000DF018C00EF019C00FF01AC010F010ECFE
:1019680008F000D0120094869488C78E280EC66EA0
:10197800280EC86E00018E6F000E00010001C56FB1
:1019880000018E511200000EF2AE010E000100019E
:101998008E6F00018F6B00D01200FA0E00F0E82E57
:1019A800FDD7000100018E2FF8D700D01200000EDD
:1019B800F2AE010E00010001606F0001616B00D002
:1019C80012008EC0D9FF8FC0DAFF000EDE6E000E47
:1019D800DD6E120001C003F002C004F004C0CFFFA6
:1019E80003C0CEFF120060C062F061C063F063C044
:1019F800D7FF62C0D6FF12000001000160510F0B33
:101A0800896E120094C096F095C097F01200D08E9F
:0E1A1800F28EF28C1200D38E030012006C02CC
:020000040020DA
:08000000FFFFFFFFFFFFFFFF00
:020000040030CA
:0E000000FF08191EFF8080FF0FC00FE00F40A9
:00000001FF
