:040000006AEF00F0B3
:10000800FACF80F0FBCF81F0E9CF82F051ED0AF012
:10001800D8CF1DF0E8CF1EF0E0CF1FF0FACF20F0C8
:10002800FBCF21F0E9CF22F0EACF23F0E1CF24F093
:10003800E2CF25F0D9CF26F0DACF27F0F3CF28F09A
:10004800F4CF29F0F6CF2AF0F7CF2BF0F8CF2CF029
:10005800F5CF2DF09EA001D001D004D09E90E4EC05
:100068000DF011D09EAA01D001D004D09E9AEAECDE
:1000780007F009D09EA801D001D005D097EC0AF06E
:1000880002D001D000D02DC0F5FF2CC0F8FF2BC046
:10009800F7FF2AC0F6FF29C0F4FF28C0F3FF27C0E6
:1000A800DAFF26C0D9FF25C0E2FF24C0E1FF23C044
:1000B800EAFF22C0E9FF21C0FBFF20C0FAFF1FC0F2
:1000C800E0FF1EC0E8FF1DC0D8FF100056EF0BF080
:1000D800FC0ED36E9B8C0101010E000100018F6F95
:1000E8000101C90E00018E6F0001D3EC0CF0010173
:1000F800010E000100018F6F0101C50E00018E6F16
:10010800000152EC0EF01FEC0BF0000E926E000E88
:10011800896E0101B46FD20E000100018E6F0101DA
:10012800B4510001CFEC0DF00101B46FC50E000110
:1001380000018E6F0101B4510001B4EC0CF09F90E6
:100148009F9A9F989F869D8687EC0EF00BEC0EF089
:1001580000D00101B46F000E000100018E6F010193
:10016800B451000176EC0EF043EC09F00101B46FD4
:100178000A0E00010001A66F0101B4510101010E30
:1001880000010001A86F0101C80E0001A76F01015D
:10019800010E00010001AA6F0101BA0E0001A96F4A
:1001A800000143EC0DF001010101C76F01010101DC
:1001B800C7AF01D001D06DD07DD07CD07BD069D0C5
:1001C8000101010E000100018F6F0101B80E00014D
:1001D8008E6F01010001C8C190F000010001916B10
:1001E80001010101C75100010001926F0001936BE9
:1001F800000192BF93070101010E00010001956FF4
:100208000101BA0E0001946F000182EC0EF052D089
:100218000101B46F0C0E000100018E6F0101B45191
:10022800000176EC0EF001010101BA51740AD8A45C
:1002380001D001D003D0BCC1B7F125D00101010123
:10024800BB51D8B401D001D01ED001010101BB2996
:10025800D8B401D001D017D00101B46F080E000145
:1002680000018E6F0101B4510101010E000100016E
:10027800906F0101BA0E00018F6F0001D1EC08F0F8
:1002880002D001D000D0BAC1B6F114D013D012D028
:1002980011D001010101C8510A0AD8B491D7220A24
:1002A800D8B4B6D7010AD8B4EED7030AD8B402D066
:1002B80001D000D00101B46F0A0E00010001A66F41
:1002C8000101B4510101010E00010001A86F0101F3
:1002D800C80E0001A76F0101010E00010001AA6FFD
:1002E8000101BA0E0001A96F00015BEC0DF00101DC
:1002F8000101C76F01010101C7AF01D001D08AD048
:1003080028D727D726D786D001010101464B472B8E
:1003180046C18EF047C18FF0000E00010001916FB9
:10032800030E0001906F000157EC06F00001000178
:100338008F5100018E11D8A401D001D014D0010131
:10034800B46F4F0E00010001AD6F0101B4510101FE
:10035800B56F080E00010001AE6F0101B551000133
:1003680067EC0CF0F6D646C18EF047C18FF0000E50
:1003780000010001916F030E0001906F000157EC1E
:1003880006F0000100018E0500018F11D8A401D0EC
:1003980001D014D00101B46F4F0E00010001AD6F00
:1003A8000101B4510101B56F080E00010001AE6FE3
:1003B8000101B551000167EC0CF0CBD646C18EF0B7
:1003C80047C18FF0000E00010001916F030E00017C
:1003D800906F000157EC06F0BCD6BBD6BAD6B9D69A
:1003E80000D0BAC1ADF00101B46F080E00010001E0
:1003F800AE6F0101B4510101010E00010001B06F9F
:100408000101BA0E0001AF6F00015EEC08F0A1D641
:10041800A0D69FD601010101C8510B0AD8B474D7E0
:10042800150AD8B4DED7010AD8B4DBD792D691D64C
:1004380090D68FD66AEF00F00BD100017F6F060EC1
:1004480000010001606F00017F5100017CEC0EF09B
:100458002DEC04F013D100017F6F070E000100019D
:10046800606F00017F5100017CEC0EF0000100017B
:10047800CA5100010001CB6101D001D012D00001A6
:100488000001CB51010D0001C00EF324D96E00010B
:10049800000EF420DA6EDF50C96E00010001CB2B8C
:1004A800EDD000017F6F000E00010001CD6F00014B
:1004B8007F51C584E3D0E2D000017F6F080E0001B0
:1004C8000001606F00017F5100017CEC0EF0C0C09C
:1004D800C9FF00017F6F030E00010001CD6F00010D
:1004E8007F51CCD000010001CA5100010001CB614D
:1004F80001D001D026D000017F6F0D0E0001000150
:10050800606F00017F5100017CEC0EF000017F6FED
:10051800050E00010001CD6F00017F51C586000165
:100528000001CB51010D0001C00EF324D96E00016A
:10053800000EF420DA6EC9CFDFFF00010001CB2BDB
:100548009DD000017F6F0E0E00010001606F000159
:100558007F5100017CEC0EF000017F6F000E00015E
:100568000001CD6F00017F51C584CAC076F000013B
:100578007F6F280E00010001776F00017F51000195
:10058800000E00010001796F0001C00E0001786FB4
:100598000001B9EC0DF072D071D000017F6F0A0E26
:1005A80000010001606F00017F5100017CEC0EF03A
:1005B800000120EECBF0010EDF6401D001D012D093
:1005C80000010001CB51010D0001C00EF324D96ECA
:1005D8000001000EF420DA6EDF50C96E0001000140
:1005E800CB2B4CD000017F6F000E00010001CB6FB8
:1005F80000017F5100017F6F030E00010001CD6FE4
:1006080000017F51C5823AD039D000017F6F0B0EAF
:1006180000010001606F00017F5100017CEC0EF0C9
:10062800C58800010001CA5100010001CB6101D059
:1006380001D002D0C59A02D0C58A00D000017F6FD0
:10064800030E00010001CD6F00017F5117D016D0B5
:1006580000010001CD51000AD8B4EFD6010AD8B480
:10066800FAD6030AD8B428D7010AD8B43BD7070A60
:10067800D8B493D7010AD8B4C8D700D01200000163
:100688000001CD51D8B401D001D002D0E1D0E0D0E2
:100698000001AB6F020E000100018E6F0001AB512B
:1006A800000176EC0EF00001AB6F0A0E00010001AC
:1006B800A66F0001AB510001000E00010001A86FF8
:1006C8000001AC0E0001A76F0001000E000100013F
:1006D800AA6F0001C00E0001A96F000173EC0DF0B4
:1006E80000010001CA6F01D0B3D000010001AC5174
:1006F8002F0AD8A401D001D020D00001AB6F030E7F
:10070800000100018E6F0001AB51000176EC0EF084
:100718000001AB6F010E00010001CB6F0001AB516E
:10072800C5809E86C0C0C9FF0001AB6F010E0001E5
:100738000001CD6F0001AB518BD000010001AC511D
:10074800300AD8A401D001D05AD00001AB6F040EF2
:10075800000100018E6F0001AB51000176EC0EF034
:100768000001AB6F000E00010001CB6F0001AB511F
:10077800C1C0CAF00001AB6F000E000100018E6F0E
:100788000001AB51000176EC0EF00001AB6F0F0ECB
:10079800000100018E6F0001AB51000176EC0EF0F4
:1007A80000010001CA390F0B000100018E6F000122
:1007B80076EC0EF0CAC08EF0000176EC0EF0000167
:1007C800AB6F000E000100018E6F0001AB510001FC
:1007D80076EC0EF00001AB6F0F0E000100018E6F7A
:1007E8000001AB51000176EC0EF00001AB6F020E78
:1007F80000010001CD6F0001AB51C58029D0000177
:100808000001AC51310AD8A401D001D021D0000197
:10081800AB6F050E000100018E6F0001AB510001A6
:1008280076EC0EF00001AB6F000E00010001CB6FFB
:100838000001AB51C2C0CAF00001AB6F040E000149
:100848000001CD6F0001AB51C58002D001D000D0AE
:10085800120000010001CD51D8B401D001D002D05E
:10086800E1D0E0D000017D6F020E00010001606F51
:1008780000017D5100017CEC0EF000017D6F0A0E35
:1008880000010001786F00017D510001000E000198
:1008980000017A6F00017E0E0001796F0001000EE1
:1008A800000100017C6F0001C00E00017B6F000198
:1008B8008BEC0DF000010001CA6F01D0B3D000012C
:1008C80000017E512F0AD8A401D001D020D0000108
:1008D8007D6F030E00010001606F00017D51000172
:1008E8007CEC0EF000017D6F010E00010001CB6F62
:1008F80000017D51C5809E86C0C0C9FF00017D6F83
:10090800010E00010001CD6F00017D518BD0000167
:1009180000017E51300AD8A401D001D05AD000017C
:100928007D6F040E00010001606F00017D51000120
:100938007CEC0EF000017D6F000E00010001CB6F12
:1009480000017D51C1C0CAF000017D6F000E000199
:100958000001606F00017D5100017CEC0EF0000188
:100968007D6F0F0E00010001606F00017D510001D5
:100978007CEC0EF000010001CA390F0B00010001E8
:10098800606F00017CEC0EF0CAC060F000017CECE6
:100998000EF000017D6F000E00010001606F000184
:1009A8007D5100017CEC0EF000017D6F0F0E0001FF
:1009B8000001606F00017D5100017CEC0EF0000128
:1009C8007D6F020E00010001CD6F00017D51C580D1
:1009D80029D0000100017E51310AD8A401D001D0EC
:1009E80021D000017D6F050E00010001606F00013C
:1009F8007D5100017CEC0EF000017D6F000E0001BE
:100A08000001CB6F00017D51C2C0CAF000017D6FAB
:100A1800040E00010001CD6F00017D51C58002D098
:100A280001D000D01200000120EE35F000019851ED
:100A3800D92600019951DA22DF5000010001A16F87
:100A480000010001A1510D0DF3500001000198258E
:100A580000010001A46FF450000100019921000178
:100A6800A56F010EA4C0D9FFA5C0DAFFDF6201D0CF
:100A780001D075D0000120EE01F00001A451D92663
:100A88000001A551DA22DF50000100019A6101D06E
:100A980001D003D0FD0E66D065D0000120EE01F034
:100AA8000001A451D9260001A551DA22DF50000126
:100AB8009F6F00019F5100010001A26F0001A36B0D
:100AC8009DC08EF09EC08FF0030E00010001A4258A
:100AD80000019F6F000E00010001A5210001A06F19
:100AE8009FC090F0A0C091F0A2C092F0A3C093F074
:100AF800000111EC0CF0000120EE35F000019851D6
:100B0800D92600019951DA22000110EE35F00001D2
:100B18009851E12600019951E222E75000019F6FA8
:100B280000019F29030BDF6E000120EE02F0000197
:100B3800A451D9260001A551DA229BC0E1FF9CC02F
:100B4800E2FFDFCFE7FFA4C0D9FFA5C0DAFF000EA0
:100B5800DF6E00010001A25105D004D003D0FC0EC5
:100B680001D000D01200000120EE35F000016A51DA
:100B7800D92600016B51DA22DF5000010001736FA2
:100B88000001000173510D0DF350000100016A25A9
:100B980000010001766FF450000100016B21000193
:100BA800776F010E76C0D9FF77C0DAFFDF6201D018
:100BB80001D075D0000120EE01F000017651D92650
:100BC80000017751DA22DF50000100016C6101D089
:100BD80001D003D0FD0E66D065D0000120EE01F0F3
:100BE80000017651D92600017751DA22DF50000141
:100BF800716F0001715100010001746F0001756B84
:100C08006FC060F070C061F0030E0001000176252E
:100C18000001716F000E0001000177210001726F61
:100C280071C062F072C063F074C064F075C065F0A2
:100C380000013CEC0CF0000120EE35F000016A5197
:100C4800D92600016B51DA22000110EE35F00001BF
:100C58006A51E12600016B51E222E7500001716FF1
:100C680000017129030BDF6E000120EE02F0000184
:100C78007651D92600017751DA226DC0E1FF6EC0A6
:100C8800E2FFDFCFE7FF76C0D9FF77C0DAFF000EBB
:100C9800DF6E00010001745105D004D003D0FC0EB2
:100CA80001D000D012000001926F000E0001000177
:100CB800946F00019251000100018FAF01D001D063
:100CC80010D0000100018E6D00018F1FD8B08F2B4E
:100CD8000001926F010E00010001946F0001925112
:100CE80000D00001000191AF01D001D008D000016F
:100CF8000001906D0001911FD8B0912B00D0000128
:100D0800000191519011D8B401D001D044D0000114
:100D1800926F010E00010001936F000192510AD0F9
:100D2800000100010001D8909037913700010001BF
:100D3800932B00D00001000191AF01D001D0F0D772
:100D480001D000D0000100019051000100018E5D2A
:100D5800000100019151000100018F59D8A001D074
:100D680001D00DD0000100019051000100018E5FFB
:100D7800000100019151000100018F5B00D00001CA
:100D880000010001D8909133903300010001932FA6
:100D9800D9D701D000D0000100019451D8B401D0B6
:100DA80001D008D0000100018E6D00018F1FD8B05E
:100DB8008F2B00D08EC08EF08FC08FF000D0120025
:100DC800000100019AC09FF000010001A06B000122
:100DD80020EE34F000019851D92600019951DA2209
:100DE800DF5000010001A16F00010001A1510D0DAC
:100DF800F35000010001982500010001A26FF45092
:100E08000001000199210001A36FA2C0D9FFA3C06E
:100E1800DAFFDF50D8B401D001D003D0FF0E52D092
:100E280051D0000120EE01F00001A251D9260001A5
:100E3800A351DA2200019AC0DFFF000120EE02F080
:100E48000001A251D9260001A351DA2200019BC05A
:100E5800DFFF030E00010001A225000100018E6FD3
:100E6800000E00010001A32100018F6F9CC090F0CB
:100E78009DC091F09FC092F0A0C093F0000111ECCA
:100E88000CF0000120EE34F000019851D926000141
:100E98009951DA22000110EE34F000019851E12650
:100EA80000019951E222E75000019E6F00019E293E
:100EB800030BDF6EA2C0D9FFA3C0DAFF010EDF6EFD
:100EC800010E00D01200000100016CC071F0000199
:100ED8000001726B000120EE34F000016A51D9263E
:100EE80000016B51DA22DF5000010001736F00012D
:100EF800000173510D0DF350000100016A25000136
:100F08000001746FF450000100016B210001756F3E
:100F180074C0D9FF75C0DAFFDF50D8B401D001D052
:100F280003D0FF0E52D051D0000120EE01F0000195
:100F38007451D92600017551DA2200016CC0DFFF17
:100F4800000120EE02F000017451D926000175510C
:100F5800DA2200016DC0DFFF030E000100017425D5
:100F680000010001606F000E000100017521000101
:100F7800616F6EC062F06FC063F071C064F072C0E0
:100F880065F000013CEC0CF0000120EE34F00001AB
:100F98006A51D92600016B51DA22000110EE34F0B3
:100FA80000016A51E12600016B51E222E75000017D
:100FB800706F00017029030BDF6E74C0D9FF75C014
:100FC800DAFF010EDF6E010E00D012009EAA01D0DA
:100FD80001D05AD0000120EE08F00001D051D926E6
:100FE8000001D151DA22DF501B6E1B50010DF35066
:100FF80000010001D025D96EF45000010001D12173
:10100800DA6E0BEC0DF0DF6E000E026E000E016E54
:1010180064EC0EF0000120EE08F00001D051D92652
:101028000001D151DA22DF2A000120EE08F0000188
:10103800D051D9260001D151DA22080EDF6201D041
:1010480001D022D0000120EE08F00001D051D926AD
:101058000001D151DA22DF50176E1B6E1F0E186E79
:101068001B50D0C019F0D1C01AF0F9EC0DF00001F6
:1010780020EE08F00001D051D9260001D151DA2222
:10108800000EDF6E01D000D032A601D001D011D001
:10109800AB98AB881B6E000E176E1B501C6E1E0E95
:1010A800186E1C50000E1A6E000E196EF9EC0DF039
:1010B80000D0120000010001AD510001AD25000172
:1010C8000001B46F000E00010001BF6F000E0001A7
:1010D800BE6F2BD000010001BE5100010001AF25F9
:1010E800D96E00010001BF5100010001B021DA6E84
:1010F800010E00010001BE250001B16F000E0001C4
:101108000001BF210001B26F0001B40E0001B1253A
:10111800E16E0001000E0001B221E26EDFCFE7FFB1
:1011280000010001BE4BBF2B00D000010001AE51F1
:101138000001B16FB26B00010001BF51800A0001CC
:10114800B36FB15100010001BE5D0001B251800AC8
:101158000001B359D8A001D001D0BCD700D00001FC
:101168000001AE2900010001A46F0001B16F2F0E2C
:1011780000010001A56F0001B1510001000E00013E
:101188000001A76F0001B40E0001A66F0001A3ECD7
:101198000DF043EC03F000D01200000120EE11F036
:1011A8000001D051D9260001D151DA22000EDF6E9C
:1011B80043D0000120EE11F00001D051D9260001E2
:1011C800D151DA22DF500001916F00019151010DD8
:1011D800F350000100018F25D96EF4500001000181
:1011E8009021DA6E000110EE11F00001D051E126D5
:1011F8000001D151E222E7500001926F00019251A3
:10120800010D090EF326000EF422F350000100012F
:10121800D025E16EF45000010001D121E26EDFCF4C
:10122800E7FF000120EE11F00001D051D92600019E
:10123800D151DA22DF2A00D0000120EE11F000019E
:10124800D051D9260001D151DA22DF500001916F27
:10125800000100018E510001915DD8A001D001D09C
:10126800A8D700D0000120EE12F00001D051D926F5
:101278000001D151DA22000EDF6E9D8812000001B4
:10128800E5EC0BF000010001935100019211D8A484
:1012980001D001D002D05CD05BD08A860001946F67
:1012A800010E306E0001945100D00101010E0001C1
:1012B80000018F6F0101480E00018E6F0001EFECF5
:1012C8000CF00009D8B401D001D009D00001946F06
:1012D800000E306E000194518A963AD039D001013F
:1012E800010E000100018F6F01017E0E00018E6F5B
:1012F8000001EFEC0CF00009D8B401D001D009D0FE
:101308000001946F000E306E000194518A9620D02F
:101318001FD00001946F0A0E000100018E6F0001BA
:10132800945100013EEC0EF08AA601D002D0010EC5
:1013380001D0000E0001946F000194479447944730
:101348008A5000019419F70B94198A6EAED7ADD75D
:1013580012000DC012F0136A20EE34F00B50D9269B
:101368000C50DA22DF50146E14500D0DF3500B247C
:10137800156EF4500C20166E15C0D9FF16C0DAFF92
:10138800DF50D8B401D001D003D0FF0E3AD039D005
:1013980020EE01F01550D9261650DA220DC0DFFFD5
:1013A80020EE02F01550D9261650DA220EC0DFFFC3
:1013B800030E1524016E000E1620026E0FC003F0F6
:1013C80010C004F012C005F013C006F090EC0CF049
:1013D80020EE34F00B50D9260C50DA2210EE34F0FF
:1013E8000B50E1260C50E222E750116E1128030B36
:1013F800DF6E15C0D9FF16C0DAFF010EDF6E010ED1
:1014080000D01200306601D001D002D045D044D0BF
:101418000001B6EC0BF000010001635100016211FC
:10142800D8B401D001D002D037D036D0000148EC72
:101438000EF000010001615100016011D8A401D033
:1014480001D002D029D028D00101010E00010001ED
:10145800616F0101480E0001606F000127EC0DF07B
:101468000009D8B401D001D002D016D015D001019E
:10147800010E00010001616F01017E0E0001606F25
:10148800000127EC0DF00009D8B401D001D002D03A
:1014980003D002D08BEC0EF012000600EACF83F0E6
:1014A800E1CF84F0E2CF85F0D9CF86F0DACF87F0AC
:1014B800F3CF88F0F4CF89F0F6CF8AF0F7CF8BF02E
:1014C800F8CF8CF0F5CF8DF09EA601D001D004D0D6
:1014D8009E9620EC02F000D0F2A401D001D004D0F6
:1014E800F2941BEC0EF000D006EC0AF08DC0F5FF6C
:1014F8008CC0F8FF8BC0F7FF8AC0F6FF89C0F4FFE5
:1015080088C0F3FF87C0DAFF86C0D9FF85C0E2FF35
:1015180084C0E1FF83C0EAFF82C0E9FF81C0FBFF0E
:1015280080C0FAFF1100000120EE12F00001D05136
:10153800D9260001D151DA22DF50016E000120EED8
:1015480011F00001D051D9260001D151DA22DF5023
:10155800015CD8B001D001D028D0000120EE12F0F3
:101568000001D051D9260001D151DA22DF50016E95
:101578000150010D090EF326000EF422F35000016C
:101588000001D025D96EF45000010001D121DA6E96
:10159800DF50AD6E000120EE12F00001D051D926C7
:1015A8000001D151DA22DF2A02D09D9800D0120022
:1015B800000120EE34F000018E51D92600018F5130
:1015C800DA22000EDF6E000120EE35F000018E51A8
:1015D800D92600018F51DA22000EDF6E0001906FCC
:1015E800000E00010001916F00019051030E0001EF
:1015F8000001916501D001D002D01CD01BD00001A0
:10160800000191510D0DF350000100018E25D96E96
:10161800F450000100018F21DA6E000EDF6E000128
:101628000001912B030E00010001916501D001D04A
:10163800E6D700D012000001926F000E306E000154
:1016480092510101010E000100018F6F01017E0E10
:1016580000018E6F0001DCEC0AF00101010E0001AF
:1016680000018F6F0101480E00018E6F0001DCEC54
:101678000AF00201020E000100018F6F0201360E0E
:1016880000018E6F0001DCEC0AF00201020E00017D
:1016980000018F6F0201000E00018E6F0001DCEC6B
:1016A8000AF0120002EE6CF011EE90F0EE6AE550CE
:1016B800E150FCE1E250FAE102EE00F06C0EEE6A55
:1016C800E806FDE101EE00F0B40EEE6AE806FDE181
:1016D80000EEC0F0100EEE6AE806FDE100EE2EF016
:1016E800090EEE6AE806FDE11C0EF66E1D0EF76E99
:1016F800000EF86E0900F5CF37F00900F5CF38F085
:1017080000016CEF00F0F2AC01D001D00AD0000E5D
:1017180000010001916F000E0001906F22D021D0CE
:1017280020D0000134EC0EF0000100018F510001BF
:101738008E11D8B401D001D00AD0000E00010001EA
:10174800916F000E0001906F0CD00BD00AD0000EE4
:1017580000010001916F010E0001906F02D001D0CD
:1017680000D01200F2AC01D001D00AD0000E000166
:101778000001636F000E0001626F22D021D020D0DB
:10178800000148EC0EF000010001615100016011F8
:10179800D8B401D001D00AD0000E00010001636F57
:1017A800000E0001626F0CD00BD00AD0000E0001B1
:1017B8000001636F010E0001626F02D001D000D0FA
:1017C8001200000187EC0BF00001000191510001AB
:1017D8009011D8A401D001D016D0000134EC0EF03D
:1017E800000100018F5100018E11D8A401D001D051
:1017F8000AD0000E00010001936F010E0001926FE4
:101808000BD00AD009D0000E00010001936F000E22
:101818000001926F01D000D0120090C096F091C0E4
:1018280097F08EC094F08FC095F013D096C0D9FF72
:1018380097C0DAFF94C0E1FF95C0E2FFDFCFE7FF72
:1018480000010001964B972B00010001944B952B4A
:1018580000D0000100019207D8A093070001922947
:10186800D8B49329D8A401D001D0E0D700D0120071
:1018780062C068F063C069F060C066F061C067F07C
:1018880013D068C0D9FF69C0DAFF66C0E1FF67C03E
:10189800E2FFDFCFE7FF00010001684B692B000181
:1018A8000001664B672B00D0000100016407D8A037
:1018B800650700016429D8B46529D8A401D001D0EE
:1018C800E0D700D01200D88000010001AD3500013A
:1018D8000001B16FAEC0B2F00001AF6F020E00019F
:1018E8000001A46F0001AF510001B06F300E00017C
:1018F8000001A56F0001B0510001000E00010001B8
:10190800A76F0001B10E0001A66F0001A3EC0DF056
:1019180043EC03F000D0120003C009F004C00AF041
:1019280001C007F002C008F00FD009C0D9FF0AC0F3
:10193800DAFF07C0E1FF08C0E2FFDFCFE7FF094A8F
:101948000A2A074A082A00D00506D8A0060605284C
:10195800D8B40628D8A401D001D0E7D700D0120007
:10196800000100018E517E0BCD6E000100018EAD8D
:1019780001D001D002D0CD8E02D0CD9E00D0000E75
:10198800CF6E000ECE6E9E90000100018EAF01D08A
:1019980001D002D09D8001D09D90CD801200F28CA4
:1019A8009D88AC8A8EC0D0F08FC0D1F0000120EEA7
:1019B80008F00001D051D9260001D151DA22000ED9
:1019C800DF6EAB8E948E949CAC84B896650EAF6E29
:1019D800AC98AB8E1200000120EE35F000018E515C
:1019E800D92600018F51DA22DF500001906F0001E3
:1019F80090510D0DF350000100018E25D96EF45061
:101A0800000100018F21DA6EDF5000D01200F20EC3
:101A18003216ABAC01D001D007D03290ABA001D0C8
:101A280001D002D0328000D0ABA401D001D001D0C7
:101A38003284ABA201D001D001D03286AECF01F002
:101A4800015000D01200000120EE35F00001605175
:101A5800D92600016151DA22DF500001626F0001CE
:101A680062510D0DF350000100016025D96EF4504C
:101A7800000100016121DA6EDF5000D0120001017F
:101A8800010E00010001996F0101480E0001986FD5
:101A9800A6C09AF0A7C09BF0A8C09CF0A9C09DF072
:101AA800AAC09EF0000117EC05F000D01200010159
:101AB800010E00010001996F01017E0E0001986F6F
:101AC800A6C09AF0A7C09BF0A8C09CF0A9C09DF042
:101AD800AAC09EF0000117EC05F000D01200020128
:101AE800020E00010001996F0201000E0001986FBB
:101AF800A6C09AF0A7C09BF0A8C09CF0A9C09DF012
:101B0800AAC09EF0000117EC05F000D012000201F7
:101B1800020E000100016B6F0201000E00016A6FE6
:101B280078C06CF079C06DF07AC06EF07BC06FF051
:101B38007CC070F00001B7EC05F000D01200020183
:101B4800020E00010001996F0201000E0001986F5A
:101B5800A4C09AF0A5C09BF0A6C09CF0A7C09DF0B9
:101B68000001E4EC06F000D012000101010E0001B2
:101B780000016B6F0101480E00016A6F76C06CF0BE
:101B880077C06DF078C06EF079C06FF0000167EC37
:101B980007F000D01200000100018E517F0BD56EB6
:101BA800000ED76E000ED66EF294000100018EAFC3
:101BB80001D001D002D0F28A01D0F29AD58E12005B
:101BC8001B6E000E176E1B501C6E0B0E186E1C50F1
:101BD800000E1A6E000E196EF9EC0DF0010E026E71
:101BE800F40E016E5BEC0EF012000101010E0C6E9A
:101BF80001017E0E0B6E17C00DF018C00EF019C053
:101C08000FF01AC010F0ADEC09F000D01200948665
:101C18009488C78E280EC66E280EC86E00018E6F77
:101C2800000E00010001CD6F00018E51120028EC5A
:101C38000EF0000E00010001616F000E0001606FE0
:101C480000016DEC0EF01200000120EE08F000011A
:101C5800D051D9260001D151DA22000EDF6E1200D0
:101C6800000EF2AE010E000100018E6F00018F6BB5
:101C780000D01200FA0E00F0E82EFDD70001000196
:101C88008E2FF8D700D01200000EF2AE010E000120
:101C98000001606F0001616B00D012008EC0D9FF97
:101CA8008FC0DAFF000EDE6E000EDD6E120001C07E
:101CB80003F002C004F004C0CFFF03C0CEFF12003F
:101CC80001C003F002C004F004C0D7FF03C0D6FF70
:101CD800120060C062F061C063F063C0D7FF62C0E9
:101CE800D6FF1200000100018E510F0B896E120001
:101CF8000001000160510F0B896E120094C096F02C
:101D080095C097F01200D08EF28EF28C1200D38E0E
:061D1800030012006C0242
:020000040020DA
:08000000FFFFFFFFFFFFFFFF00
:020000040030CA
:0E000000FF08191EFF8080FF0FC00FE00F40A9
:00000001FF
