:040000006AEF00F0B3
:10000800FACF85F0FBCF86F0E9CF87F009ED0BF04A
:10001800D8CF1DF0E8CF1EF0E0CF1FF0FACF20F0C8
:10002800FBCF21F0E9CF22F0EACF23F0E1CF24F093
:10003800E2CF25F0D9CF26F0DACF27F0F3CF28F09A
:10004800F4CF29F0F6CF2AF0F7CF2BF0F8CF2CF029
:10005800F5CF2DF09EA001D001D004D09E90BAEC2F
:100068000EF011D09EAA01D001D004D09E9A4DEC7A
:1000780008F009D09EA801D001D005D04FEC0BF0B4
:1000880002D001D000D02DC0F5FF2CC0F8FF2BC046
:10009800F7FF2AC0F6FF29C0F4FF28C0F3FF27C0E6
:1000A800DAFF26C0D9FF25C0E2FF24C0E1FF23C044
:1000B800EAFF22C0E9FF21C0FBFF20C0FAFF1FC0F2
:1000C800E0FF1EC0E8FF1DC0D8FF100044EF0CF091
:1000D80000017A6F000E00010001846F00017A515F
:1000E80000017A6F000E000100017F6F00017A5154
:1000F80000017A6F000E00010001836F00017A5140
:1001080000017A6F000E00010001826F00017A5130
:1001180000017A6F000E00010001806F00017A5122
:10012800C6AC01D001D021D0C69C20EE0CF02E50D8
:10013800D9262F50DA22050EDF6E00017A6F010EE4
:1001480000010001806F00017A5120EE0EF02E5060
:10015800D9262F50DA22DF2A20EE0DF02E50D9268C
:100168002F50DA22040EDF6E00D0C7A001D001D0D4
:100178000BD0C9CF81F000017A6F010E0001000198
:10018800846F00017A5100D000010001806701D01E
:1001980001D0E8D1D3D1D2D1C7A601D001D0E2D1C4
:1001A80084C060F0000169EC0AF020EE0CF02E50DB
:1001B800D9262F50DA22080EDF6201D001D0D2D121
:1001C80000017A6F000E00010001846F00017A516E
:1001D80000017A6F010E00010001826F00017A515F
:1001E800C1D1C0D1BFD1C7A801D001D034D020EE31
:1001F8000BF02E50D9262F50DA22DF2A00010001F9
:100208008451D8B401D001D01DD0C7BA01D001D0D3
:1002180009D000017A6F010E00010001836F00010F
:100228007A5110D020EE0EF02E50D9262F50DA2217
:10023800DF2A20EE0DF02E50D9262F50DA22060E96
:10024800DF6E00D020EE0CF02E50D9262F50DA2287
:10025800050EDF6E87D1000100018451D8B401D0AA
:1002680001D080D120EE0BF02E50D9262F50DA2263
:10027800DF2AC7BA01D001D027D0C7B401D001D036
:1002880009D020EE0CF02E50D9262F50DA22070E76
:10029800DF6E68D120EE0CF02E50D9262F50DA22CE
:1002A800080EDF6E00017A6F010E00010001826FF7
:1002B80000017A5100017A6F000E00010001846F7D
:1002C80000017A514FD14ED120EE0EF02E50D92692
:1002D8002F50DA22DF2A20EE0CF02E50D9262F508C
:1002E800DA22050EDF6E20EE0DF02E50D9262F50A3
:1002F800DA22060EDF6E36D135D134D133D120EE75
:100308001AF02E50D9262F50DA22DF5000017A6FCA
:1003180020EE19F02E50D9262F50DA22DF50000196
:100328007A5DD8B001D001D028D020EE1AF02E5036
:10033800D9262F50DA22DF5000017A6F00017A5156
:10034800010D0F0EF326000EF422F3502E24D96E61
:10035800F4502F20DA6EDF50C96E20EE1AF02E50BE
:10036800D9262F50DA22DF2A00017A6F010E000108
:1003780000017F6F00017A51F5D020EE0CF02E506D
:10038800D9262F50DA22050EDF6EECD0EBD0C7A8A5
:1003980001D001D062D020EE0BF02E50D9262F507C
:1003A800DA22DF2A000100018451D8B401D001D03B
:1003B80042D0C7AA01D001D025D020EE0AF02E5095
:1003C800D9262F50DA22DF5000017A6F00017A51C6
:1003D800010DF3502E24D96EF4502F20DA6E00014F
:1003E80081C0DFFF20EE0AF02E50D9262F50DA22E6
:1003F800DF2A00017A6F010E00010001836F0001FE
:100408007A5122D020EE0EF02E50D9262F50DA2223
:10041800DF2A20EE0DF02E50D9262F50DA22060EB4
:10042800DF6E20EE0CF02E50D9262F50DA22050E62
:10043800DF6E0AD009D000017A6F010E00010001B9
:10044800836F00017A5100D020EE0CF02E50D9268F
:100458002F50DA22050EDF6E85D00001000184518D
:10046800D8B401D001D07ED020EE0BF02E50D92682
:100478002F50DA22DF2AC7AA01D001D01DD020EEE2
:100488000AF02E50D9262F50DA22DF5000017A6F59
:1004980000017A51010DF3502E24D96EF4502F200B
:1004A800DA6E000181C0DFFF20EE0AF02E50D92657
:1004B8002F50DA22DF2A56D0C7A401D001D021D08C
:1004C80020EE0CF02E50D9262F50DA22080EDF6EBF
:1004D80000017A6F010E00010001836F00017A515B
:1004E80000017A6F010E00010001826F00017A514C
:1004F80000017A6F000E00010001846F00017A513B
:1005080031D020EE0EF02E50D9262F50DA22DF2AD5
:1005180020EE0DF02E50D9262F50DA22060EDF6E6F
:1005280020EE0CF02E50D9262F50DA22050EDF6E61
:1005380019D018D017D016D015D014D020EE0CF042
:100548002E50D9262F50DA22DF50050AD8B424D6E7
:10055800030AD8B448D6010AD8B419D70F0AD8B4B0
:10056800CED600D000010001846701D001D007D0A9
:10057800000100017F51D8B401D001D007D0C6B81E
:1005880001D001D003D0C68801D000D020EE0AF0F7
:100598002E50D9262F50DA22080EDF6401D001D060
:1005A8001ED000010001836701D001D018D020EED1
:1005B8000CF02E50D9262F50DA22050EDF6E20EED1
:1005C8000EF02E50D9262F50DA22DF2A20EE0DF019
:1005D8002E50D9262F50DA22070EDF6E00D00001E8
:1005E80000018351D8B401D001D040D020EE0BF0E7
:1005F8002E50D9262F50DA2210EE0AF02E50E1267E
:100608002F50E222E75000017A6F00017A51010D64
:10061800F3502E24E16EF4502F20E26EDFCFE7FF77
:1006280020EE0AF02E50D9262F50DA22DF50000192
:100638007A6F00017A2900010001766F00017B6F53
:10064800280E00010001776F00017B512EC078F061
:100658002FC079F000018FEC0EF020EE0AF02E503A
:10066800D9262F50DA22000EDF6E4FD020EE0EF082
:100678002E50D9262F50DA22DF50D8B401D001D01D
:1006880044D020EE0EF02E50D9262F50DA22DF501B
:10069800000100017C6F20EE0DF02E50D9262F505E
:1006A800DA22DF50000100017D6F20EE0BF02E50A2
:1006B800D9262F50DA22DF50000100017E6F000199
:1006C8007A6F030E00010001766F00017A51000174
:1006D8007B6F290E00010001776F00017B5100013B
:1006E800000E00010001796F00017C0E0001786F97
:1006F80000018FEC0EF020EE0EF02E50D9262F5070
:10070800DA22000EDF6E01D000D000010001825114
:10071800D8B401D001D020D000017A6F000E0001BA
:100728000001766F00017A5100017B6F2A0E0001EB
:100738000001776F00017B512EC078F02FC079F04F
:1007480000018FEC0EF000017A6F000E000100012D
:10075800826F00017A5100D01200FC0ED36E9B8C80
:100768000101010E00010001946F0101D60E000184
:10077800936F0001C1EC0DF00101010E00010001B1
:10078800946F0101D20E0001936F000128EC0FF065
:10079800D7EC0BF0000E926E000E896E0101C06F4F
:1007A800D20E00010001936F0101C0510001A5ECB8
:1007B8000EF00101C06FC50E00010001936F010129
:1007C800C0510001A2EC0DF09F909F9A9F989F86C0
:1007D8009D8657EC0FF0E1EC0EF000D00101C06FE0
:1007E800000E00010001936F0101C05100014CECA3
:1007F8000FF0A6EC09F00101C06F0A0E000100011C
:10080800AB6F0101C0510101010E00010001AD6F84
:100818000101D50E0001AC6F0101010E00010001BC
:10082800AF6F0101C70E0001AE6F000131EC0EF091
:1008380001010101D46F01010101D4AF01D001D040
:100848006DD07DD07CD07BD069D00101010E000134
:100858000001946F0101C50E0001936F01010001B1
:10086800D5C195F000010001966B01010101D45139
:1008780000010001976F0001986B000197BF98076E
:100888000101010E000100019A6F0101C70E00016C
:10089800996F000152EC0FF052D00101C06F0C0E9D
:1008A80000010001936F0101C05100014CEC0FF0F1
:1008B80001010101C751740AD8A401D001D003D0A5
:1008C800C9C1C4F125D001010101C851D8B401D072
:1008D80001D01ED001010101C829D8B401D001D02E
:1008E80017D00101C06F080E00010001936F0101CC
:1008F800C0510101010E00010001956F0101C70EF1
:100908000001946F000134EC09F002D001D000D04E
:10091800C7C1C3F114D013D012D011D00101010105
:10092800D5510A0AD8B491D7220AD8B4B6D7010A41
:10093800D8B4EED7030AD8B402D001D000D0010150
:10094800C06F0A0E00010001AB6F0101C051010127
:10095800010E00010001AD6F0101D50E0001AC6F61
:100968000101010E00010001AF6F0101C70E000176
:10097800AE6F000149EC0EF001010101D46F0101D5
:100988000101D4AF01D001D09DD028D727D726D7D1
:1009980099D001010101464B472B46C193F047C14D
:1009A80094F0000E00010001966F030E0001956F90
:1009B8000001BAEC06F00001000194510001931106
:1009C800D8A401D001D014D00101C06F4F0E00018E
:1009D8000001B26F0101C0510101C16F080E000191
:1009E8000001B36F0101C151000155EC0DF0F6D6BD
:1009F80046C193F047C194F0000E00010001966FC4
:100A0800030E0001956F0001BAEC06F00001000129
:100A1800930500019411D8A401D001D002D0DED6EC
:100A2800DDD646C193F047C194F0000E00010001E5
:100A3800966F030E0001956F0001BAEC06F00001F5
:100A480000019351020A00019411D8A401D001D0E9
:100A5800C5D60101C06F740E00010001B26F01011B
:100A6800C0510101C16F400E00010001B36F0101C7
:100A7800C1510101C26F010E00010001B46F0101F3
:100A8800C25100010EEC0CF0A9D6A8D6A7D6A6D65E
:100A980000D0C7C1B2F00101C06F080E000100010B
:100AA800B36F0101C0510101010E00010001B56FD2
:100AB8000101C70E0001B46F0001C1EC08F08ED629
:100AC8008DD68CD601010101D5510B0AD8B461D756
:100AD800150AD8B4DED7010AD8B4DBD77FD67ED6BC
:100AE8007DD67CD66AEF00F00001B06F030E0001DE
:100AF8000001936F0001B05100014CEC0FF00001B0
:100B08000001C751D8B401D001D002D08ED08DD009
:100B18000001B06F040E00010001936F0001B05195
:100B280000014CEC0FF00001B06F0A0E000100014B
:100B3800AB6F0001B0510001000E00010001AD6F64
:100B48000001B10E0001AC6F0001000E00010001B0
:100B5800AF6F0001BA0E0001AE6F000161EC0EF03C
:100B680000010001C46F00010001B1512F0AD8A48F
:100B780001D001D015D00001B06F010E00010001B5
:100B8800C56F0001B051C5809E86BAC0C9FF00017B
:100B9800B06F010E00010001C76F0001B05145D0D0
:100BA80000010001B151300AD8A401D001D014D0FD
:100BB8000001B06F000E00010001C56F0001B051C7
:100BC800BBC0C4F00001B06F020E00010001C76F86
:100BD8000001B051C58029D000010001B151310A8E
:100BE800D8A401D001D021D00001B06F050E0001BA
:100BF8000001936F0001B05100014CEC0FF00001AF
:100C0800B06F000E00010001C56F0001B051BCC0FB
:100C1800C4F00001B06F040E00010001C76F0001AD
:100C2800B051C58002D001D000D01200000120EEE2
:100C380035F000019D51D92600019E51DA22DF507E
:100C480000010001A66F00010001A6510D0DF3502F
:100C5800000100019D2500010001A96FF450000169
:100C680000019E210001AA6F010EA9C0D9FFAAC0E8
:100C7800DAFFDF6201D001D075D0000120EE01F06B
:100C88000001A951D9260001AA51DA22DF5000013A
:100C980000019F6101D001D003D0FD0E66D065D060
:100CA800000120EE01F00001A951D9260001AA5146
:100CB800DA22DF500001A46F0001A45100010001F5
:100CC800A76F0001A86BA2C093F0A3C094F0030E15
:100CD80000010001A9250001A46F000E0001000118
:100CE800AA210001A56FA4C095F0A5C096F0A7C0E1
:100CF80097F0A8C098F00001FFEC0CF0000120EE7E
:100D080035F000019D51D92600019E51DA220001DB
:100D180010EE35F000019D51E12600019E51E222BE
:100D2800E7500001A46F0001A429030BDF6E000146
:100D380020EE02F00001A951D9260001AA51DA22B9
:100D4800A0C0E1FFA1C0E2FFDFCFE7FFA9C0D9FF44
:100D5800AAC0DAFF000EDF6E00010001A75105D01E
:100D680004D003D0FC0E01D000D012000001976F10
:100D7800000E00010001996F000197510001000168
:100D880094AF01D001D010D000010001936D000193
:100D9800941FD8B0942B0001976F010E0001000139
:100DA800996F0001975100D00001000196AF01D062
:100DB80001D008D000010001956D0001961FD8B040
:100DC800962B00D00001000196519511D8B401D09E
:100DD80001D044D00001976F010E00010001986F07
:100DE800000197510AD0000100010001D890953701
:100DF800963700010001982B00D00001000196AF42
:100E080001D001D0F0D701D000D0000100019551E8
:100E180000010001935D00010001965100010001ED
:100E28009459D8A001D001D00DD0000100019551EE
:100E380000010001935F00010001965100010001CB
:100E4800945B00D0000100010001D89096339533DF
:100E580000010001982FD9D701D000D0000100016E
:100E68009951D8B401D001D008D000010001936D88
:100E78000001941FD8B0942B00D093C093F094C075
:100E880094F000D01200000100019FC0A4F00001FE
:100E98000001A56B000120EE34F000019D51D92618
:100EA80000019E51DA22DF5000010001A66F000107
:100EB8000001A6510D0DF350000100019D25000110
:100EC8000001A76FF450000100019E210001A86FE6
:100ED800A7C0D9FFA8C0DAFFDF50D8B401D001D02D
:100EE80003D0FF0E52D051D0000120EE01F00001D6
:100EF800A751D9260001A851DA2200019FC0DFFFBF
:100F0800000120EE02F00001A751D9260001A851E6
:100F1800DA220001A0C0DFFF030E00010001A725AF
:100F280000010001936F000E00010001A8210001DB
:100F3800946FA1C095F0A2C096F0A4C097F0A5C088
:100F480098F00001FFEC0CF0000120EE34F00001F5
:100F58009D51D92600019E51DA22000110EE34F08D
:100F680000019D51E12600019E51E222E750000157
:100F7800A36F0001A329030BDF6EA7C0D9FFA8C088
:100F8800DAFF010EDF6E010E00D012000001000131
:100F98006CC071F000010001726B000120EE34F0AA
:100FA80000016A51D92600016B51DA22DF50000195
:100FB8000001736F0001000173510D0DF350000122
:100FC80000016A2500010001746FF450000100015E
:100FD8006B210001756F74C0D9FF75C0DAFFDF504F
:100FE800D8B401D001D003D0FF0E52D051D00001A7
:100FF80020EE01F000017451D92600017551DA2262
:1010080000016CC0DFFF000120EE02F00001745106
:10101800D92600017551DA2200016DC0DFFF030EE9
:1010280000010001742500010001606F000E00013D
:10103800000175210001616F6EC062F06FC063F03E
:1010480071C064F072C065F000012AEC0DF0000177
:1010580020EE34F000016A51D92600016B51DA22E2
:10106800000110EE34F000016A51E12600016B51D5
:10107800E222E7500001706F00017029030BDF6E58
:1010880074C0D9FF75C0DAFF010EDF6E010E00D003
:1010980012009EAA01D001D05AD0000120EE08F01B
:1010A8000001CA51D9260001CB51DA22DF501B6E4C
:1010B8001B50010DF35000010001CA25D96EF450F0
:1010C80000010001CB21DA6EF9EC0DF0DF6E000EA5
:1010D800026E000E016E31EC0FF0000120EE08F0F8
:1010E8000001CA51D9260001CB51DA22DF2A0001BA
:1010F80020EE08F00001CA51D9260001CB51DA22AE
:10110800080EDF6201D001D022D0000120EE08F0E5
:101118000001CA51D9260001CB51DA22DF50176EDF
:101128001B6E1F0E186E1B50CAC019F0CBC01AF0E8
:10113800CFEC0EF0000120EE08F00001CA51D926CC
:101148000001CB51DA22000EDF6E01D000D032A6AA
:1011580001D001D011D0AB98AB881B6E000E176E72
:101168001B501C6E1E0E186E1C50000E1A6E000EC0
:10117800196ECFEC0EF000D0120000010001B25140
:101188000001B22501010101B46F000E0101010146
:10119800BF6F000E0101BE6F2BD001010101BE51CE
:1011A80000010001B425D96E01010101BF51000100
:1011B8000001B521DA6E010E01010101BE25000111
:1011C800B66F000E01010101BF210001B76F0101D7
:1011D800B40E0001B625E16E0101010E0001B72130
:1011E800E26EDFCFE7FF01010101BE4BBF2B00D04C
:1011F80000010001B3510001B66FB76B0101010195
:10120800BF51800A0001B86FB65101010101BE5DEE
:101218000001B751800A0001B859D8A001D001D007
:10122800BCD700D000010001B32900010001A96F5B
:101238000001B66F2F0E00010001AA6F0001B65120
:101248000101010E00010001AC6F0101B40E0001A3
:10125800AB6F000179EC0EF078EC05F000D01200CD
:10126800000120EE11F00001CA51D9260001CB512E
:10127800DA22000EDF6E43D0000120EE11F00001EB
:10128800CA51D9260001CB51DA22DF500001966FEE
:1012980000019651010DF350000100019425D96E0B
:1012A800F450000100019521DA6E000110EE11F0F2
:1012B8000001CA51E1260001CB51E222E7500001AA
:1012C800976F00019751010D090EF326000EF422C5
:1012D800F35000010001CA25E16EF450000100013D
:1012E800CB21E26EDFCFE7FF000120EE11F0000115
:1012F800CA51D9260001CB51DA22DF2A00D00001D9
:1013080020EE11F00001CA51D9260001CB51DA2292
:10131800DF500001966F0001000193510001965DB6
:10132800D8A001D001D0A8D700D0000120EE12F03B
:101338000001CA51D9260001CB51DA22000EDF6E16
:101348009D8812000001D3EC0CF0000100019851B7
:1013580000019711D8A401D001D002D05CD05BD095
:101368008A860001996F010E306E0001995100D0F4
:101378000101010E00010001946F0101480E0001F6
:10138800936F0001DDEC0DF00009D8B401D001D055
:1013980009D00001996F000E306E000199518A96AC
:1013A8003AD039D00101010E00010001946F01010A
:1013B8007E0E0001936F0001DDEC0DF00009D8B43A
:1013C80001D001D009D00001996F000E306E0001E4
:1013D80099518A9620D01FD00001996F0A0E0001FA
:1013E8000001936F00019951000114EC0FF08AA6D7
:1013F80001D002D0010E01D0000E0001996F00014A
:101408009947994799478A5000019919F70B9919F3
:101418008A6EAED7ADD712000DC012F0136A20EE57
:1014280034F00B50D9260C50DA22DF50146E1450C9
:101438000D0DF3500B24156EF4500C20166E15C0CC
:10144800D9FF16C0DAFFDF50D8B401D001D003D0DD
:10145800FF0E3AD039D020EE01F01550D92616509B
:10146800DA220DC0DFFF20EE02F01550D926165003
:10147800DA220EC0DFFF030E1524016E000E1620BF
:10148800026E0FC003F010C004F012C005F013C0C4
:1014980006F07EEC0DF020EE34F00B50D9260C50FF
:1014A800DA2210EE34F00B50E1260C50E222E7501D
:1014B800116E1128030BDF6E15C0D9FF16C0DAFFB5
:1014C800010EDF6E010E00D0120020EE0BF02E5040
:1014D800D9262F50DA22010EDF6E20EE0AF02E50A8
:1014E800D9262F50DA22000EDF6E0001000160516C
:1014F800D8B401D001D034D0C7AA01D001D018D0B7
:1015080020EE0CF02E50D9262F50DA22050EDF6E71
:1015180020EE0EF02E50D9262F50DA22DF2A20EEA8
:101528000DF02E50D9262F50DA22050EDF6E21D06D
:10153800C7A401D001D009D020EE0CF02E50D92636
:101548002F50DA22080EDF6E14D020EE0CF02E5049
:10155800D9262F50DA22070EDF6E0BD00AD009D019
:1015680020EE0CF02E50D9262F50DA22060EDF6E10
:1015780000D01200306601D001D002D045D044D04E
:101588000001A4EC0CF0000100016351000162119C
:10159800D8B401D001D002D037D036D000011EEC2B
:1015A8000FF000010001615100016011D8A401D0C1
:1015B80001D002D029D028D00101010E000100017C
:1015C800616F0101480E0001606F000115EC0EF01B
:1015D8000009D8B401D001D002D016D015D001012D
:1015E800010E00010001616F01017E0E0001606FB4
:1015F800000115EC0EF00009D8B401D001D002D0DA
:1016080003D002D05BEC0FF012000600EACF88F09E
:10161800E1CF89F0E2CF8AF0D9CF8BF0DACF8CF026
:10162800F3CF8DF0F4CF8EF0F6CF8FF0F7CF90F0A8
:10163800F8CF91F0F5CF92F09EA601D001D004D05A
:101648009E966CEC00F000D0F2A401D001D004D03A
:10165800F294F1EC0EF000D0BEEC0AF092C0F5FF67
:1016680091C0F8FF90C0F7FF8FC0F6FF8EC0F4FF5F
:101678008DC0F3FF8CC0DAFF8BC0D9FF8AC0E2FFB0
:1016880089C0E1FF88C0EAFF87C0E9FF86C0FBFF89
:1016980085C0FAFF1100000120EE12F00001CA51C6
:1016A800D9260001CB51DA22DF50016E000120EE6D
:1016B80011F00001CA51D9260001CB51DA22DF50BE
:1016C800015CD8B001D001D028D0000120EE12F082
:1016D8000001CA51D9260001CB51DA22DF50016E30
:1016E8000150010D090EF326000EF422F3500001FB
:1016F8000001CA25D96EF45000010001CB21DA6E31
:10170800DF50AD6E000120EE12F00001CA51D9265B
:101718000001CB51DA22DF2A02D09D9800D01200B6
:10172800000120EE34F000019351D92600019451B4
:10173800DA22000EDF6E000120EE35F00001935131
:10174800D92600019451DA22000EDF6E0001956F50
:10175800000E00010001966F00019551030E000173
:101768000001966501D001D002D01CD01BD0000129
:10177800000196510D0DF350000100019325D96E1B
:10178800F450000100019421DA6E000EDF6E0001B2
:101798000001962B030E00010001966501D001D0CF
:1017A800E6D700D012000001976F000E306E0001DE
:1017B80097510101010E00010001946F01017E0E95
:1017C8000001936F000194EC0BF00101010E000180
:1017D8000001946F0101480E0001936F000194EC21
:1017E8000BF00201020E00010001946F0201360E97
:1017F8000001936F000194EC0BF00201020E00014E
:101808000001946F0201000E0001936F000194EC37
:101818000BF012000001B56F020E00010001936F7A
:101828000001B55100014CEC0FF0D8800001000117
:10183800B23500010001B76FB3C0B8F0B4C0B9F059
:101848000001B56F030E00010001A96F0001B55139
:101858000001B66F310E00010001AA6F0001B651F8
:101868000001000E00010001AC6F0001B70E00017D
:10187800AB6F000179EC0EF078EC05F000D01200A7
:1018880002EE6CF011EE90F0EE6AE550E150FCE1EA
:10189800E250FAE102EE00F06C0EEE6AE806FDE1B5
:1018A80001EE00F0B40EEE6AE806FDE100EEBAF0D3
:1018B800100EEE6AE806FDE100EE2EF0090EEE6A63
:1018C800E806FDE1BC0EF66E1E0EF76E000EF86E11
:1018D8000900F5CF37F00900F5CF38F00001B1EF76
:1018E80003F0F2AC01D001D00AD0000E00010001D3
:1018F800966F000E0001956F22D021D020D00001F4
:101908000AEC0FF000010001945100019311D8B4C2
:1019180001D001D00AD0000E00010001966F000E20
:101928000001956F0CD00BD00AD0000E0001000109
:10193800966F010E0001956F02D001D000D0120001
:10194800F2AC01D001D00AD0000E00010001636F93
:10195800000E0001626F22D021D020D000011EECC1
:101968000FF000010001615100016011D8B401D0ED
:1019780001D00AD0000E00010001636F000E0001C3
:10198800626F0CD00BD00AD0000E00010001636F0B
:10199800010E0001626F02D001D000D012000001D8
:1019A80075EC0CF000010001965100019511D8A4C6
:1019B80001D001D016D000010AEC0FF0000100019F
:1019C800945100019311D8A401D001D00AD0000E7F
:1019D80000010001986F010E0001976F0BD00AD02B
:1019E80009D0000E00010001986F000E0001976FEA
:1019F80001D000D0120095C09BF096C09CF093C017
:101A080099F094C09AF013D09BC0D9FF9CC0DAFF1C
:101A180099C0E1FF9AC0E2FFDFCFE7FF00010001B4
:101A28009B4B9C2B00010001994B9A2B00D0000185
:101A380000019707D8A0980700019729D8B49829DA
:101A4800D8A401D001D0E0D700D0120062C068F05D
:101A580063C069F060C066F061C067F013D068C009
:101A6800D9FF69C0DAFF66C0E1FF67C0E2FFDFCFD8
:101A7800E7FF00010001684B692B00010001664B7C
:101A8800672B00D0000100016407D8A0650700019A
:101A98006429D8B46529D8A401D001D0E0D700D0F2
:101AA8001200D88000010001B23500010001B66FB4
:101AB800B3C0B7F00001B46F020E00010001A96FB6
:101AC8000001B4510001B56F300E00010001AA6F8A
:101AD8000001B5510001000E00010001AC6F0001CA
:101AE800B60E0001AB6F000179EC0EF078EC05F052
:101AF80000D0120003C009F004C00AF001C007F0CA
:101B080002C008F00FD009C0D9FF0AC0DAFF07C029
:101B1800E1FF08C0E2FFDFCFE7FF094A0A2A074AC8
:101B2800082A00D00506D8A006060528D8B4062835
:101B3800D8A401D001D0E7D700D0120000010001DD
:101B480093517E0BCD6E0001000193AD01D001D001
:101B580002D0CD8E02D0CD9E00D0000ECF6E000EEA
:101B6800CE6E9E900001000193AF01D001D002D04B
:101B78009D8001D09D90CD801200F28C9D88AC8A0A
:101B880093C0CAF094C0CBF0000120EE08F0000129
:101B9800CA51D9260001CB51DA22000EDF6EAB8E76
:101BA800948E949CAC84B896650EAF6EAC98AB8E50
:101BB8001200000120EE35F000019351D9260001F2
:101BC8009451DA22DF500001956F000195510D0DF7
:101BD800F350000100019325D96EF4500001000173
:101BE8009421DA6EDF5000D01200F20E3216ABAC40
:101BF80001D001D007D03290ABA001D001D002D0E3
:101C0800328000D0ABA401D001D001D03284ABA285
:101C180001D001D001D03286AECF01F0015000D002
:101C28001200000120EE35F000016051D9260001B4
:101C38006151DA22DF500001626F000162510D0D1F
:101C4800F350000100016025D96EF4500001000135
:101C58006121DA6EDF5000D012000101010E00018F
:101C680000019E6F0101480E00019D6FABC09FF0FF
:101C7800ACC0A0F0ADC0A1F0AEC0A2F0AFC0A3F060
:101C880000011AEC06F000D012000101010E00015B
:101C980000019E6F01017E0E00019D6FABC09FF099
:101CA800ACC0A0F0ADC0A1F0AEC0A2F0AFC0A3F030
:101CB80000011AEC06F000D012000201020E000129
:101CC80000019E6F0201000E00019D6FABC09FF0E6
:101CD800ACC0A0F0ADC0A1F0AEC0A2F0AFC0A3F000
:101CE80000011AEC06F000D012000201020E0001F9
:101CF80000019E6F0201000E00019D6FA9C09FF0B8
:101D0800AAC0A0F0ABC0A1F0ACC0A2F0000147ECA3
:101D180007F000D012000101010E000100016B6FF5
:101D28000101480E00016A6F76C06CF077C06DF053
:101D380078C06EF079C06FF00001CAEC07F000D0EF
:101D480012000001000193517F0BD56E000ED76E73
:101D5800000ED66EF2940001000193AF01D001D0BD
:101D680002D0F28A01D0F29AD58E12001B6E000EB4
:101D7800176E1B501C6E0B0E186E1C50000E1A6E40
:101D8800000E196ECFEC0EF0010E026EF40E016E0D
:101D98003AEC0FF012000101010E0C6E01017E0EEB
:101DA8000B6E17C00DF018C00EF019C00FF01AC056
:101DB80010F010EC0AF000D0120094869488C78EB8
:101DC800280EC66E280EC86E0001936F000E000123
:101DD8000001C76F000193511200FEEC0EF0000ED7
:101DE80000010001616F000E0001606F000143EC0B
:101DF8000FF01200000120EE08F00001CA51D926A8
:101E08000001CB51DA22000EDF6E1200000EF2AE96
:101E1800010E00010001936F0001946B00D01200C5
:101E2800FA0E00F0E82EFDD700010001932FF8D735
:101E380000D01200000EF2AE010E00010001606F2A
:101E48000001616B00D0120093C0D9FF94C0DAFF83
:101E5800000EDE6E000EDD6E120001C003F002C03F
:101E680004F004C0D7FF03C0D6FF120001C003F07E
:101E780002C004F004C0CFFF03C0CEFF120060C050
:101E880062F061C063F063C0D7FF62C0D6FF120082
:101E98000001000193510F0B896E120099C09BF04D
:101EA8009AC09CF01200D08EF28EF28C1200D38E63
:061EB800030012006C02A1
:020000040020DA
:08000000FFFFFFFFFFFFFFFF00
:020000040030CA
:0E000000FF08191EFF8080FF0FC00FE00F40A9
:00000001FF
