:0400000069EF00F0B4
:10000800FACF9AF0FBCF9BF0E9CF9CF068ED0EF0A9
:10001800D8CF1FF0E8CF20F0E0CF21F0FACF22F0C0
:10002800FBCF23F0E9CF24F0EACF25F0E1CF26F08B
:10003800E2CF27F0D9CF28F0DACF29F0F3CF2AF092
:10004800F4CF2BF0F6CF2CF0F7CF2DF0F8CF2EF021
:10005800F5CF2FF09EA001D001D004D09E9005ECE2
:1000680013F000D09EAA01D001D004D09E9AD3EC00
:100078000CF000D09EA801D001D004D09E98F6ECD8
:100088000FF000D02FC0F5FF2EC0F8FF2DC0F7FFEE
:100098002CC0F6FF2BC0F4FF2AC0F3FF29C0DAFFFB
:1000A80028C0D9FF27C0E2FF26C0E1FF25C0EAFF2C
:1000B80024C0E9FF23C0FBFF22C0FAFF21C0E0FFF4
:1000C80020C0E8FF1FC0D8FF1000EAEF12F00001BF
:1000D8007D6F000E00010001986F00017D51000145
:1000E8007D6F000E00010001906F00017D5100013D
:1000F8007D6F000E00010001976F00017D51000126
:100108007D6F000E00010001966F00017D51000116
:100118007D6F000E00010001916F00017D51C6AC9A
:1001280001D001D02AD0C69C000120EE0DF00001BC
:10013800E551D9260001E651DA22050EDF6E0001ED
:100148007D6F010E00010001916F00017D510001DA
:1001580020EE0FF00001E551D9260001E651DA2220
:10016800DF2A000120EE0EF00001E551D92600013A
:10017800E651DA22040EDF6E00D0C7A001D001D00C
:100188000BD0C9CF94F000017D6F010E0001000172
:10019800986F00017D5100D000010001916701D0E6
:1001A80001D051D239D238D2C7A601D001D04BD212
:1001B80098C060F0000141EC0DF0000120EE0DF058
:1001C8000001E551D9260001E651DA22080EDF6266
:1001D80001D001D038D200017D6F000E000100016E
:1001E800986F00017D5100017D6F010E0001000133
:1001F800966F00017D5127D226D225D2C7A801D0FB
:1002080001D040D0000120EE0CF00001E551D926C4
:100218000001E651DA22DF2A000100019851D8B422
:1002280001D001D023D0C7BA01D001D009D0000134
:100238007D6F010E00010001976F00017D5116D0FE
:10024800000120EE0FF00001E551D9260001E6512A
:10025800DA22DF2A000120EE0EF00001E551D9264E
:100268000001E651DA22060EDF6E00D0000120EE12
:100278000DF00001E551D9260001E651DA22050EFC
:10028800DF6EE1D1000100019851D8B401D001D04E
:10029800DAD1000120EE0CF00001E551D926000169
:1002A800E651DA22DF2AC7BA01D001D02DD0C7B46F
:1002B80001D001D00CD0000120EE0DF00001E55175
:1002C800D9260001E651DA22070EDF6EBCD1000103
:1002D80020EE0DF00001E551D9260001E651DA22A1
:1002E800080EDF6E00017D6F010E00010001966FA0
:1002F80000017D5100017D6F000E00010001986F23
:1003080000017D51A0D19FD1000120EE0FF0000126
:10031800E551D9260001E651DA22DF2A000120EE54
:100328000DF00001E551D9260001E651DA22050E4B
:10033800DF6E000120EE0EF00001E551D926000124
:10034800E651DA22060EDF6E7ED17DD17CD17BD1DB
:10035800000120EE1BF00001E551D9260001E6510D
:10036800DA22DF5000017D6F000120EE1AF0000153
:10037800E551D9260001E651DA22DF5000017D5D02
:10038800D8B001D001D032D0000120EE1BF000011E
:10039800E551D9260001E651DA22DF5000017D6FD0
:1003A80000017D51010D100EF326000EF422F350CA
:1003B80000010001E525D96EF45000010001E62195
:1003C800DA6EDF50C96E000120EE1BF00001E55126
:1003D800D9260001E651DA22DF2A00017D6F010EDD
:1003E80000010001906F00017D512DD1000120EE28
:1003F8000DF00001E551D9260001E651DA22050E7B
:10040800DF6E21D120D1C7A801D001D07BD0000157
:1004180020EE0CF00001E551D9260001E651DA2260
:10042800DF2A000100019851D8B401D001D055D07D
:10043800C7AA01D001D02FD0000120EE0AF0000198
:10044800E551D9260001E651DA22DF5000017D6F1F
:1004580000017D51010DF35000010001E525D96E21
:10046800F45000010001E621DA6E000194C0DFFFBC
:10047800000120EE0AF00001E551D9260001E651FD
:10048800DA22DF2A00017D6F010E00010001976F5B
:1004980000017D512BD0000120EE0FF00001E55145
:1004A800D9260001E651DA22DF2A000120EE0EF0FB
:1004B8000001E551D9260001E651DA22060EDF6E69
:1004C800000120EE0DF00001E551D9260001E651AA
:1004D800DA22050EDF6E0AD009D000017D6F010E09
:1004E80000010001976F00017D5100D0000120EE4E
:1004F8000DF00001E551D9260001E651DA22050E7A
:10050800DF6EA1D0000100019851D8B401D001D00C
:100518009AD0000120EE0CF00001E551D926000127
:10052800E651DA22DF2AC7AA01D001D027D000017C
:1005380020EE0AF00001E551D9260001E651DA2241
:10054800DF5000017D6F00017D51010DF350000166
:100558000001E525D96EF45000010001E621DA6EAC
:10056800000194C0DFFF000120EE0AF00001E55110
:10057800D9260001E651DA22DF2A65D0C7A401D0C6
:1005880001D024D0000120EE0DF00001E551D9265C
:100598000001E651DA22080EDF6E00017D6F010EC0
:1005A80000010001976F00017D5100017D6F010E70
:1005B80000010001966F00017D5100017D6F000E62
:1005C80000010001986F00017D513DD0000120EE2F
:1005D8000FF00001E551D9260001E651DA22DF2AA1
:1005E800000120EE0EF00001E551D9260001E65188
:1005F800DA22060EDF6E000120EE0DF00001E55153
:10060800D9260001E651DA22050EDF6E1CD01BD078
:100618001AD019D018D017D0000120EE0DF0000123
:10062800E551D9260001E651DA22DF50050AD8B48F
:10063800BBD5030AD8B4E2D5010AD8B4E4D60F0A68
:10064800D8B486D600D000010001986701D001D047
:1006580007D0000100019051D8B401D001D007D0D3
:10066800C6B801D001D003D0C68801D000D000019F
:1006780020EE0AF00001E551D9260001E651DA2200
:10068800080EDF6401D001D027D000010001976770
:1006980001D001D021D0000120EE0DF00001E5517C
:1006A800D9260001E651DA22050EDF6E000120EEA0
:1006B8000FF00001E551D9260001E651DA22DF2AC0
:1006C800000120EE0EF00001E551D9260001E651A7
:1006D800DA22070EDF6E00D0000100019751D8B46E
:1006E80001D001D029D0BB0EE5C0D9FFE6C0DAFFA2
:1006F800DF6201D001D07ED0000120EE0AF00001B7
:10070800E551D9260001E651DA22DF50FE0F00013B
:100718000001606F020E00010001E52500010001E3
:10072800616F000E00010001E6210001626F000107
:10073800F1EC0BF05FD05ED0000120EE0FF000016D
:10074800E551D9260001E651DA22DF50D8B401D0AC
:1007580001D050D0000120EE0FF00001E551D9265C
:100768000001E651DA22DF50000100018D6F00011F
:1007780020EE0EF00001E551D9260001E651DA22FB
:10078800DF50000100018E6F000120EE0CF0000127
:10079800E551D9260001E651DA22DF5000010001B7
:1007A8008F6F00017D6F030E00010001766F00015D
:1007B8007D5100017E6F290E00010001776F000155
:1007C8007E510001000E00010001796F00018D0EBD
:1007D8000001786F000194EC13F0000120EE0FF097
:1007E8000001E551D9260001E651DA22000EDF6E3C
:1007F80001D000D0000100019651D8B401D001D039
:100808007BD000017D6F0A0E00010001786F0001A6
:100818007D510001000E000100017A6F0001950E64
:100828000001796F0001000E000100017C6F0001DA
:100838007F0E00017B6F000150EC13F000010001F6
:10084800926F0001936B000192BF930700010001B2
:100858009351800A800F010ED8B4925DD8A001D0C0
:1008680001D00FD092C060F00001000E000100011D
:10087800626F00017F0E0001616F000162EC0AF0F7
:1008880032D000010001AA2B00017D6F510E00013A
:100898000001896F00017D51AAC08AF000017D6FB7
:1008A800000E000100018B6F00017D5100017D6F7A
:1008B800000E000100018C6F00017D5100017D6F69
:1008C800040E00010001606F00017D510001000E5F
:1008D80000010001626F0001890E0001616F0001D3
:1008E80062EC0AF000D000017D6F000E00010001EB
:1008F800966F00017D5100D01200EED2000120EE6B
:100908000DF00001E551D9260001E651DA22090E61
:10091800DF6E000120EE1CF00001E551D926000130
:10092800E651DA22DF50FE0BC96EFCD2C5BC01D0FD
:1009380001D079D0000120EE1BF00001E551D92645
:100948000001E651DA22DF5000017A6F000120EE43
:100958001AF00001E551D9260001E651DA22DF50EC
:1009680000017A5DD8B001D001D02AD0000120EE74
:100978001BF00001E551D9260001E651DA22DF50CB
:1009880000017A6F00017A51010D100EF326000E56
:10099800F422F35000010001E525D96EF45000015E
:1009A8000001E621DA6EDF50C96E000120EE1BF06F
:1009B8000001E551D9260001E651DA22DF2AB2D238
:1009C80000017A6F000E00010001766F00017A5174
:1009D80000017B6F2B0E00010001776F00017B5136
:1009E800000E00010001796F000E0001786F000110
:1009F80094EC13F0000120EE1AF00001E551D9261D
:100A08000001E651DA22000EDF6E000120EE0DF043
:100A18000001E551D9260001E651DA22050EDF6E04
:100A2800C58480D27FD200017A6F000E00010001D8
:100A3800766F00017A5100017B6F2C0E00010001D6
:100A4800776F00017B51000E00010001796F000EE5
:100A58000001786F000194EC13F0000120EE0FF014
:100A68000001E551D9260001E651DA22DF2A00010A
:100A780020EE0EF00001E551D9260001E651DA22F8
:100A8800090EDF6E000120EE0DF00001E551D926B8
:100A98000001E651DA22050EDF6EC58443D242D248
:100AA800C5BC01D001D018D0000120EE0DF0000126
:100AB800E551D9260001E651DA22140EDF6E000155
:100AC80020EE1CF00001E551D9260001E651DA229A
:100AD800DF50FE0BC96E26D200017A6F000E0001AE
:100AE8000001766F00017A5100017B6F2E0E000124
:100AF8000001776F00017B51000E00010001796F42
:100B0800000E0001786F000194EC13F0000120EE54
:100B18000FF00001E551D9260001E651DA22DF2A5B
:100B2800000120EE0EF00001E551D9260001E65142
:100B3800DA22090EDF6E000120EE0DF00001E5510A
:100B4800D9260001E651DA22050EDF6EC584EAD106
:100B5800E9D1C5BC01D001D022D0000120EE0DF0B2
:100B68000001E551D9260001E651DA22150EDF6EA3
:100B7800000120EE1AF00001E551D9260001E651E6
:100B8800DA22000EDF6E000120EE10F00001E551C0
:100B9800D9260001E651DA22DF50C96EC3D100011F
:100BA8007A6F000E00010001766F00017A51000192
:100BB8007B6F2E0E00010001776F00017B51000E44
:100BC80000010001796F000E0001786F000194ECBC
:100BD80013F0000120EE0FF00001E551D9260001C5
:100BE800E651DA22DF2A000120EE0EF00001E5517D
:100BF800D9260001E651DA22090EDF6E000120EE47
:100C08000DF00001E551D9260001E651DA22050E62
:100C1800DF6EC58487D186D1C5BC01D001D00DD087
:100C2800000120EE0DF00001E551D9260001E65142
:100C3800DA22160EDF6EC58275D100017A6F000EBA
:100C480000010001766F00017A5100017B6F2E0EC2
:100C580000010001776F00017B51000E00010001C7
:100C6800796F000E0001786F000194EC13F0000119
:100C780020EE0FF00001E551D9260001E651DA22F5
:100C8800DF2A000120EE0EF00001E551D92600010F
:100C9800E651DA22090EDF6E000120EE0DF00001A8
:100CA800E551D9260001E651DA22050EDF6EC5842A
:100CB80039D138D1000120EE0DF00001E551D926D7
:100CC8000001E651DA22170EDF6E000120EE1CF05B
:100CD8000001E551D9260001E651DA22DF50010969
:100CE800C96E20D1C5BC01D001D00DD0000120EEC5
:100CF8000DF00001E551D9260001E651DA22180E5F
:100D0800DF6EC5860FD100017A6F000E0001000169
:100D1800766F00017A5100017B6F2E0E00010001F1
:100D2800776F00017B51000E00010001796F000E02
:100D38000001786F000194EC13F0000120EE0FF031
:100D48000001E551D9260001E651DA22DF2A000127
:100D580020EE0EF00001E551D9260001E651DA2215
:100D6800090EDF6E000120EE0DF00001E551D926D5
:100D78000001E651DA22050EDF6EC584D3D0D2D049
:100D8800C7A001D001D0CED0000120EE0DF00001A7
:100D9800E551D9260001E651DA22190EDF6E00016D
:100DA80020EE0BF00001E551D9260001E651DA22C8
:100DB800DF5000017A6F00017A51010DF3500001F4
:100DC8000001E525D96EF45000010001E621DA6E34
:100DD800C9CFDFFF000120EE0BF00001E551D92655
:100DE8000001E651DA22DF2A000120EE0BF00001B3
:100DF800E551D9260001E651DA22DF5000017A6F69
:100E0800000120EE0AF00001E551D9260001E65163
:100E1800DA22DF5000017A5DD8B001D001D003D0CA
:100E2800C59AC5887FD0C58AC5887CD07BD07AD042
:100E3800000120EE0BF00001E551D9260001E65132
:100E4800DA22DF5000017A6F000120EE0AF000017B
:100E5800E551D9260001E651DA22DF5000017A5D1A
:100E6800D8B001D001D00DD0000120EE0DF0000166
:100E7800E551D9260001E651DA22180EDF6EC58643
:100E880051D0000120EE0AF00001E551D9260001F9
:100E9800E651DA22DF5000010001766F00017A6F17
:100EA8002D0E00010001776F00017A51E5C078F03E
:100EB800E6C079F0000194EC13F0000120EE0DF08B
:100EC8000001E551D9260001E651DA22050EDF6E50
:100ED800C58428D027D026D0000120EE0DF00001CF
:100EE800E551D9260001E651DA22DF50090AD8B4C3
:100EF8001DD5180AD8B402D5030AD8B4D1D5060A24
:100F0800D8B427D6010AD8B487D6030AD8B4D2D61B
:100F1800010AD8B4E7D60F0AD8B432D7010AD8B430
:100F280087D700D01200FC0ED36E9B8C0101010EF6
:100F380001010101016F01013F0E0101006F010173
:100F48007AEC12F00101010E01010101016F0101AA
:100F5800520E0101006F0101B7EC10F00101010E02
:100F680001010101016F0101390E0101006F010149
:100F78005CEC12F00101010E01010101016F010198
:100F8800370E0101006F010168EC13F07EEC10F0E0
:100F9800000E926E000E896E000E806E000E896E35
:100FA8000F0EC16E0F0E926E0101286FD20E010155
:100FB8000101006F010128510101AAEC13F00101A0
:100FC800286FF50E01010101006F0101285101018F
:100FD8003DEC12F051EC14F09F909F9C9F9A9F86D5
:100FE8009D860101286F6C0E01010101006F01014E
:100FF8002851000E01010101026F1A0E0101016F53
:1010080001010EEC0EF000D063EC0CF00101286F2A
:101018000A0E01010101186F010128510101010E99
:10102800010101011A6F01013D0E0101196F010152
:10103800010E010101011C6F01012A0E01011B6F44
:10104800010120EC13F0010101013E6F01010101D2
:101058003EAF01D001D05CD075D074D073D058D0D9
:1010680071D070D00101010E01010101016F010170
:10107800350E0101006F000E01010101036F1F0E03
:101088000101026F010101013E5101010101046FDB
:101098000101056B010104BF05070101010E0101F2
:1010A8000101076F01012A0E0101066F01014BECD6
:1010B80014F048D00101010E01010101016F010185
:1010C800370E0101006F010101013DC102F101016B
:1010D8000101036B010101013E5101010101046F8E
:1010E8000101056B010104BF05070101010E0101A2
:1010F8000101076F01012A0E0101066F010155EC7C
:1011080014F020D02AC129F11DD01CD01BD01AD030
:10111800010101013D510A0AD8B4CCD7220AD8B43A
:10112800F1D7010AD8B4EED7030AD8B40BD0010A14
:10113800D8B408D0070AD8B405D0010AD8B492D7D1
:1011480001D000D00101286F0A0E01010101186FBA
:10115800010128510101010E010101011A6F01016C
:101168003D0E0101196F0101010E010101011C6F02
:1011780001012A0E01011B6F010138EC13F0010176
:1011880001013E6F010101013EAF01D001D041D004
:101198003BD73AD739D73DD00101010E01010101F2
:1011A8001B6F0101390E01011A6F010101013DC1D7
:1011B8001CF1010101011D6B010101013E510101F9
:1011C80001011E6F01011F6B01011EBF1F070101F5
:1011D800010E01010101216F01012A0E0101206F99
:1011E8000101AEEC0DF010D73EC116F13DC117F16B
:1011F8000101010E01010101196F01012A0E01010E
:10120800186F01017EEC13F0FFD6FED6FDD6FCD692
:10121800FBD6010101013D510B0AD8B4BDD7150A0F
:10122800D8B4F2D6010AD8B4EFD6370AD8B4DCD786
:10123800EBD6EAD6E9D6E8D669EF00F0010120EE50
:1012480035F001010A51D92601010B51DA22DF508C
:1012580001010101136F0101010113510D0DF3503B
:10126800010101010A2501010101166FF450010174
:1012780001010B210101176F010E16C1D9FF17C11A
:10128800DAFFDF6201D001D075D0010120EE01F054
:1012980001011651D92601011751DA22DF50010147
:1012A80001010C6101D001D003D0FD0E66D065D0DC
:1012B800010120EE01F001011651D9260101175153
:1012C800DA22DF500101116F010111510101010101
:1012D800146F0101156B0FC100F110C101F1030E6C
:1012E8000101010116250101116F000E0101010123
:1012F80017210101126F11C102F112C103F114C1CA
:1013080004F115C105F10101A2EC11F0010120EE73
:1013180035F001010A51D92601010B51DA220101E8
:1013280010EE35F001010A51E12601010B51E222CC
:10133800E7500101116F01011129030BDF6E010153
:1013480020EE02F001011651D92601011751DA22C7
:101358000DC1E1FF0EC1E2FFDFCFE7FF16C1D9FFE4
:1013680017C1DAFF000EDF6E01010101145105D02B
:1013780004D003D0FC0E01D000D01200000120EEF2
:1013880035F000016A51D92600016B51DA22DF508D
:1013980000010001736F0001000173510D0DF3503E
:1013A800000100016A2500010001766FF450000178
:1013B80000016B210001776F010E76C0D9FF77C05D
:1013C800DAFFDF6201D001D075D0000120EE01F014
:1013D80000017651D92600017751DA22DF50000149
:1013E80000016C6101D001D003D0FD0E66D065D03C
:1013F800000120EE01F000017651D9260001775155
:10140800DA22DF500001716F000171510001000103
:10141800746F0001756B6FC060F070C061F0030EEF
:101428000001000176250001716F000E0001000126
:1014380077210001726F71C062F072C063F074C0EE
:1014480064F075C065F00001CDEC11F0000120EEEC
:1014580035F000016A51D92600016B51DA220001EA
:1014680010EE35F000016A51E12600016B51E222CD
:10147800E7500001716F00017129030BDF6E000155
:1014880020EE02F000017651D92600017751DA22C8
:101498006DC0E1FF6EC0E2FFDFCFE7FF76C0D9FF86
:1014A80077C0DAFF000EDF6E00010001745105D02D
:1014B80004D003D0FC0E01D000D01200000120EEB1
:1014C8001AF00001E551D9260001E651DA22000E92
:1014D800DF6E43D0000120EE1AF00001E551D92655
:1014E8000001E651DA22DF500001636F0001635109
:1014F800010DF350000100016125D96EF45000017F
:1015080000016221DA6E000110EE1AF00001E551C7
:10151800E1260001E651E222E7500001646F000174
:101528006451010D100EF326000EF422F350000151
:101538000001E525E16EF45000010001E621E26EAC
:10154800DFCFE7FF000120EE1AF00001E551D926B0
:101558000001E651DA22DF2A00D0000120EE1AF05D
:101568000001E551D9260001E651DA22DF500001D9
:10157800636F0001000160510001635DD8A001D0D4
:1015880001D0A8D700D0000120EE1AF00001E551E3
:10159800D9260001E651DA22000160C0DFFF000110
:1015A80020EE1BF00001E551D9260001E651DA22B0
:1015B800010EDF6E000120EE10F00001E551D92682
:1015C8000001E651DA22DF50C96EC6881200010117
:1015D80001010CC111F101010101126B010120EEA1
:1015E80034F001010A51D92601010B51DA22DF50EA
:1015F80001010101136F0101010113510D0DF35098
:10160800010101010A2501010101146FF4500101D2
:1016180001010B210101156F14C1D9FF15C1DAFFB2
:10162800DF50D8B401D001D003D0FF0E52D051D032
:10163800010120EE01F001011451D92601011551D3
:10164800DA2201010CC1DFFF010120EE02F00101E5
:101658001451D92601011551DA2201010DC1DFFF0C
:10166800030E01010101142501010101006F000EA3
:101678000101010115210101016F0EC102F10FC124
:1016880003F111C104F112C105F10101A2EC11F03D
:10169800010120EE34F001010A51D92601010B5154
:1016A800DA22010110EE34F001010A51E1260101AC
:1016B8000B51E222E7500101106F01011029030BC1
:1016C800DF6E14C1D9FF15C1DAFF010EDF6E010EFE
:1016D80000D01200000100016CC071F0000100018F
:1016E800726B000120EE34F000016A51D926000126
:1016F8006B51DA22DF5000010001736F0001000115
:1017080073510D0DF350000100016A25000100011D
:10171800746FF450000100016B210001756F74C0F3
:10172800D9FF75C0DAFFDF50D8B401D001D003D09B
:10173800FF0E52D051D0000120EE01F0000174518B
:10174800D92600017551DA2200016CC0DFFF0001C3
:1017580020EE02F000017451D92600017551DA22F9
:1017680000016DC0DFFF030E0001000174250001B8
:101778000001606F000E0001000175210001616F1A
:101788006EC062F06FC063F071C064F072C065F043
:101798000001CDEC11F0000120EE34F000016A5197
:1017A800D92600016B51DA22000110EE34F0000155
:1017B8006A51E12600016B51E222E7500001706F87
:1017C80000017029030BDF6E74C0D9FF75C0DAFF02
:1017D800010EDF6E010E00D01200000120EE11F0A4
:1017E8000001E951D9260001EA51DA22000EDF6E24
:1017F80043D0000120EE11F00001E951D926000183
:10180800EA51DA22DF500001636F00016351010DD4
:10181800F350000100016125D96EF4500001000168
:101828006221DA6E000110EE11F00001E951E126A3
:101838000001EA51E222E7500001646F000164519F
:10184800010D090EF326000EF422F35000010001E9
:10185800E925E16EF45000010001EA21E26EDFCFD4
:10186800E7FF000120EE11F00001E951D92600013F
:10187800EA51DA22DF2A00D0000120EE11F000013F
:10188800E951D9260001EA51DA22DF500001636FDD
:101898000001000160510001635DD8A001D001D0B2
:1018A800A8D700D0000120EE12F00001E951D92696
:1018B8000001EA51DA22000EDF6E9D881200010154
:1018C80076EC11F001010101055101010411D8A4C0
:1018D80001D001D002D062D061D08A860101066FA2
:1018E800010E00010001A86F0101065100D000019E
:1018F800000E01010101016F0001AF0E0101006F2F
:10190800010196EC12F00009D8B401D001D00BD037
:101918000101066F000E00010001A86F01010651C8
:101928008A963CD03BD00101010E01010101016FF3
:101938000101A50E0101006F010196EC12F00009EA
:10194800D8B401D001D00BD00101066F000E000100
:101958000001A86F010106518A9620D01FD001010D
:10196800066F0A0E01010101006F01010651010114
:1019780003EC14F08AA601D002D0010E01D0000EAB
:101988000101066F01010647064706478A50010113
:101998000619F70B06198A6EAAD7A9D712009EAAAC
:1019A80001D001D054D0000120EE08F00001E95127
:1019B800D9260001EA51DA22DF501B6E1B50010DB7
:1019C800F35000010001E925D96EF450000100012F
:1019D800EA21DA6EB2EC12F0DF6E000120EE08F0B8
:1019E8000001E951D9260001EA51DA22DF2A000173
:1019F80020EE08F00001E951D9260001EA51DA2267
:101A0800080EDF6201D001D022D0000120EE08F0DC
:101A18000001E951D9260001EA51DA22DF50176E98
:101A28001B6E1F0E186E1B50E9C019F0EAC01AF0A1
:101A3800E7EC13F0000120EE08F00001E951D92687
:101A48000001EA51DA22000EDF6E01D000D032A682
:101A580001D001D011D0AB98AB881B6E000E176E69
:101A68001B501C6E1E0E186E1C50000E1A6E000EB7
:101A7800196EE7EC13F000D01200000120EE0CF014
:101A88000001E551D9260001E651DA22010EDF6E88
:101A9800000120EE0AF00001E551D9260001E651C7
:101AA800DA22000EDF6E000100016051D8B401D0C7
:101AB80001D043D0C7AA01D001D021D0000120EE27
:101AC8000DF00001E551D9260001E651DA22050E94
:101AD800DF6E000120EE0FF00001E551D92600016C
:101AE800E651DA22DF2A000120EE0EF00001E5516E
:101AF800D9260001E651DA22050EDF6E2AD0C7A4E6
:101B080001D001D00CD0000120EE0DF00001E5510C
:101B1800D9260001E651DA22080EDF6E1AD000013C
:101B280020EE0DF00001E551D9260001E651DA2238
:101B3800070EDF6E0ED00DD00CD0000120EE0DF098
:101B48000001E551D9260001E651DA22060EDF6EC2
:101B580000D012001AC1D9FF1BC1DAFFDE2A000E1D
:101B6800DD2200010001AD2B20C1D9FF21C1DAFF20
:101B7800DF500101226F236B010120EE02F0010109
:101B88001A51D92601011B51DA2222C1DEFF23C1D5
:101B9800DDFF0101226F110E01010101246F010116
:101BA80022511AC1D9FF1BC1DAFFDF50010101011F
:101BB800256F01013BEC14F0010101010051010105
:101BC8000101266F010143EC14F0010101010051EC
:101BD80001010101276F1CEC12F00101226F040EB4
:101BE80001010101166F010122510101236F280E25
:101BF80001010101176F010123510101010E0101CA
:101C08000101196F0101240E0101186F01017EEC19
:101C180013F01200000EAC6E000EAB6E0101010154
:101C280000A101D001D001D0AC880101010100A3BD
:101C380001D001D002D0AC8CAB8C0101010100A510
:101C480001D001D001D0AC8E0101010100A701D063
:101C580001D002D0AB8801D0AB8A0101010100A9F3
:101C680001D001D001D0AC849E980101010100ABE4
:101C780001D001D001D0AB860101010100AD01D036
:101C880001D002D09D8A01D09D9A9E9A010101013E
:101C980000AF01D001D002D09D8801D09D9801C12C
:101CA800AFFF010101010251B06EAC8AAB8E949C6A
:101CB800948EACA801D001D006D0ACBE01D001D022
:101CC80002D0948C00D012000600EACF9DF0E1CF3C
:101CD8009EF0E2CF9FF0D9CFA0F0DACFA1F0F3CFFA
:101CE800A2F0F4CFA3F0F6CFA4F0F7CFA5F0F8CF89
:101CF800A6F0F5CFA7F09EA601D001D011D058ECE0
:101D080014F09E96D4EC13F00001996FD20E0001E6
:101D18000001606F000199510001BFEC13F000D081
:101D2800F2A401D001D004D0F294E8EC10F000D075
:101D38009EA801D001D003D09E9868EC0FF01BEC50
:101D48000FF0A7C0F5FFA6C0F8FFA5C0F7FFA4C015
:101D5800F6FFA3C0F4FFA2C0F3FFA1C0DAFFA0C042
:101D6800D9FF9FC0E2FF9EC0E1FF9DC0EAFF9CC073
:101D7800E9FF9BC0FBFF9AC0FAFF11000DC012F0EB
:101D8800136A20EE34F00B50D9260C50DA22DF50BB
:101D9800146E14500D0DF3500B24156EF4500C20D6
:101DA800166E15C0D9FF16C0DAFFDF50D8B401D0BF
:101DB80001D003D0FF0E3AD039D020EE01F01550F3
:101DC800D9261650DA220DC0DFFF20EE02F015509A
:101DD800D9261650DA220EC0DFFF030E1524016E35
:101DE800000E1620026E0FC003F010C004F012C0DF
:101DF80005F013C006F0F8EC11F020EE34F00B50AB
:101E0800D9260C50DA2210EE34F00B50E1260C5093
:101E1800E222E750116E1128030BDF6E15C0D9FFBF
:101E280016C0DAFF010EDF6E010E00D012000001AD
:101E38000001A86701D001D002D045D044D00001EC
:101E480047EC11F000010001635100016211D8B4A0
:101E580001D001D002D037D036D000010DEC14F0FB
:101E680000010001615100016011D8A401D001D026
:101E780002D029D028D00001000E00010001616FB6
:101E88000001AF0E0001606F0001CEEC12F00009F6
:101E9800D8B401D001D002D016D015D00101010E5E
:101EA80000010001616F0101A50E0001606F0001D2
:101EB800CEEC12F00009D8B401D001D002D003D082
:101EC80002D05BEC14F01200000120EE12F00001C9
:101ED800E951D9260001EA51DA22DF500001606F8A
:101EE800000120EE11F00001E951D9260001EA5164
:101EF800DA22DF500001605DD8B001D001D02AD0CD
:101F0800000120EE12F00001E951D9260001EA5142
:101F1800DA22DF500001606F00016051010D090EE7
:101F2800F326000EF422F35000010001E925D96ED2
:101F3800F45000010001EA21DA6EDF50AD6E0001B5
:101F480020EE12F00001E951D9260001EA51DA2207
:101F5800DF2A02D09D9800D01200346601D001D04B
:101F680009D080A001D001D005D000010001AC2B20
:101F780001D000D0356601D001D009D080A201D0AF
:101F880001D005D000010001AC2B01D000D036668D
:101F980001D001D009D080A401D001D005D0000122
:101FA8000001AE2B01D000D0376601D001D009D096
:101FB80080A601D001D005D000010001AE2B01D0D0
:101FC80000D0000E80B0010E346E000E80B2010EFB
:101FD800356E000E80B4010E366E000E80B6010E0E
:101FE800376E1200000120EE12F00001E951D926E7
:101FF8000001EA51DA22DF50016E000120EE11F0F3
:102008000001E951D9260001EA51DA22DF50015CCA
:10201800D8B001D001D028D0000120EE12F0000184
:10202800E951D9260001EA51DA22DF50016E015048
:10203800010D090EF326000EF422F35000010001F1
:10204800E925D96EF45000010001EA21DA6EDF506B
:10205800AD6E000120EE12F00001E951D926000111
:10206800EA51DA22DF2A02D09D9800D0120001013D
:1020780020EE34F001010051D92601010151DA2284
:10208800000EDF6E010120EE35F001010051D92666
:1020980001010151DA22000EDF6E0101026F000E0C
:1020A80001010101036F01010251030E0101010148
:1020B800036501D001D002D01CD01BD00101010161
:1020C80003510D0DF350010101010025D96EF450A3
:1020D800010101010121DA6E000EDF6E010101012B
:1020E800032B030E01010101036501D001D0E6D7DE
:1020F80000D012000101046F000E00010001A86F5A
:10210800010104510101010E01010101016F0101E9
:10211800A50E0101006F01013BEC10F00001000E5B
:1021280001010101016F0001AF0E0101006F010102
:102138003BEC10F00101010E01010101016F0101E9
:102148006F0E0101006F01013BEC10F00201020E5D
:1021580001010101016F0201000E0101006F01017F
:102168003BEC10F0120000C1E5F001C1E6F00001FF
:1021780020EE0AF00001E551D9260001E651DA22E5
:10218800000EDF6E000120EE0CF00001E551D926AB
:102198000001E651DA22000EDF6E000120EE0DF09C
:1021A8000001E551D9260001E651DA22050EDF6E5D
:1021B800000120EE0FF00001E551D9260001E6519B
:1021C800DA22000EDF6E1200000E00010001616FBE
:1021D800000E0001606F000129EC14F0000132ECE0
:1021E80014F0000160C07CF0000161C07DF00001C6
:1021F8007A6F020E00010001766F00017A5100012A
:102208007B6F0A0E00010001776F00017B5100010E
:10221800000E00010001796F00017C0E0001786F4B
:10222800000194EC13F01200F2AC01D001D00AD0F6
:10223800000E01010101036F000E0101026F22D09F
:1022480021D020D00101F9EC13F001010101015165
:1022580001010011D8B401D001D00AD0000E01014B
:102268000101036F000E0101026F0CD00BD00AD0E0
:10227800000E01010101036F010E0101026F02D07E
:1022880001D000D01200F2AC01D001D00AD0000E6B
:1022980000010001636F000E0001626F22D021D09F
:1022A80020D000010DEC14F0000100016151000183
:1022B8006011D8B401D001D00AD0000E000100018D
:1022C800636F000E0001626F0CD00BD00AD0000EB5
:1022D80000010001636F010E0001626F02D001D09E
:1022E80000D01200010118EC11F0010101010351A5
:1022F80001010211D8A401D001D016D00101F9ECD6
:1023080013F001010101015101010011D8A401D00C
:1023180001D00AD0000E01010101056F010E010173
:10232800046F0BD00AD009D0000E01010101056F1E
:10233800000E0101046F01D000D0120002C108F1A3
:1023480003C109F100C106F101C107F113D008C1A9
:10235800D9FF09C1DAFF06C1E1FF07C1E2FFDFCFFC
:10236800E7FF01010101084B092B01010101064B9F
:10237800072B00D0010101010407D8A005070101BE
:102388000429D8B40529D8A401D001D0E0D700D0B9
:10239800120062C068F063C069F060C066F061C096
:1023A80067F013D068C0D9FF69C0DAFF66C0E1FFE3
:1023B80067C0E2FFDFCFE7FF00010001684B692B30
:1023C80000010001664B672B00D000010001640783
:1023D800D8A0650700016429D8B46529D8A401D01C
:1023E80001D0E0D700D0120003C009F004C00AF001
:1023F80001C007F002C008F00FD009C0D9FF0AC019
:10240800DAFF07C0E1FF08C0E2FFDFCFE7FF094AB4
:102418000A2A074A082A00D00506D8A00606052871
:10242800D8B40628D8A401D001D0E7D700D012002C
:102438000101006F000E00010001AC6F01010051A5
:102448000101006F000E00010001AE6F0101005193
:10245800000E80B0010E346E000E80B2010E356E93
:10246800000E80B4010E366E000E80B6010E376E77
:1024780012000101010100517E0BCD6E0101010125
:1024880000AD01D001D002D0CD8E02D0CD9E00D0BB
:10249800000ECF6E000ECE6E9E900101010100AFBE
:1024A80001D001D002D09D8001D09D90CD80120036
:1024B8000101026F000E00010001AD6F0101025120
:1024C80000C1D9FF01C1DAFF000EDE6E000EDD6E1D
:1024D800010120EE02F001010051D926010101514C
:1024E800DA22000EDE6E000EDD6E1200F28C9D8880
:1024F800AC8A00C1E9F001C1EAF0000120EE08F061
:102508000001E951D9260001EA51DA22000EDF6EF6
:10251800AB8E948E949CAC84B896650EAF6EAC98D6
:10252800AB8E1200010120EE35F001010051D926D1
:1025380001010151DA22DF500101026F010102514C
:102548000D0DF350010101010025D96EF450010170
:1025580001010121DA6EDF5000D01200F20E3216AE
:10256800ABAC01D001D007D03290ABA001D001D0E4
:1025780002D0328000D0ABA401D001D001D0328487
:10258800ABA201D001D001D03286AECF01F001500C
:1025980000D01200000120EE35F000016051D9266C
:1025A80000016151DA22DF500001626F00016251BF
:1025B8000D0DF350000100016025D96EF4500001A3
:1025C80000016121DA6EDF5000D0120002EE00F047
:1025D800360EEE6AE806FDE101EE6FF06C0EEE6A6B
:1025E800E806FDE100EEA8F03D0EEE6AE806FDE122
:1025F80000EE30F0080EEE6AE806FDE1000197EF04
:1026080007F017EC14F001C01DF002C01EF0000E18
:10261800026E000E016E20EC14F01B6E020E176E97
:102628001B501C6E0B0E186E1C50000E1A6E1D0EE1
:10263800196EE7EC13F012000001000E0101010110
:102648000B6F0001AF0E01010A6F18C10CF119C11F
:102658000DF11AC10EF11BC10FF11CC110F10101DE
:1026680022EC09F000D012000101010E0101010164
:102678000B6F0101A50E01010A6F18C10CF119C1F8
:102688000DF11AC10EF11BC10FF11CC110F10101AE
:1026980022EC09F000D012000101010E0001000136
:1026A8006B6F01016F0E00016A6F78C06CF079C022
:1026B8006DF07AC06EF07BC06FF07CC070F00001E6
:1026C800C2EC09F000D01200000E806E0F0EC16E31
:1026D800CF0E926E000E00010001E86F010E00019E
:1026E800E76F0101026F000E00010001A96F0101EF
:1026F800025112000101010E010101010B6F0101DC
:102708006F0E01010A6F16C10CF117C10DF118C146
:102718000EF119C10FF10101EBEC0AF000D0120023
:102728000001000E000100016B6F0001AF0E0001F7
:102738006A6F76C06CF077C06DF078C06EF079C0C3
:102748006FF000016EEC0BF000D0120001010101E6
:1027580000517F0BD56E000ED76E000ED66EF29428
:102768000101010100AF01D001D002D0F28A01D0ED
:10277800F29AD58E12000001000160517F0BD56ED0
:10278800000ED76E000ED66EF2940001000160AF05
:1027980001D001D002D0F28A01D0F29AD58E12006F
:1027A80007D06BEC00F00ED081EC04F00BD00AD00F
:1027B80000010001AB51010AD8B4F3D7030AD8B419
:1027C800F3D700D012000101010E0C6E0101A50E15
:1027D8000B6E17C00DF018C00EF019C00FF01AC01C
:1027E80010F0C2EC0EF000D01200000EF2AE010E96
:1027F80001010101006F0101016B00D01200FA0E06
:1028080000F0E82EFDD701010101002FF8D700D014
:102818001200000EF2AE010E00010001606F00010F
:10282800616B00D01200CECF03F0CFCF04F003C00D
:1028380001F004C002F0120001C003F002C004F06D
:1028480004C0CFFF03C0CEFF120060C062F061C0B9
:1028580063F063C0D7FF62C0D6FF1200D6CF62F024
:10286800D7CF63F062C060F063C061F0120000016E
:102878000101ACC000F101010101016B120000016E
:102888000101AEC000F101010101016B120004D089
:1028980003D002D001D000D01200D08EF28EF28C7C
:1028A8001200B1EC0FF01200D59EF29A1200D38EEE
:0428B8000300120007
:020000040020DA
:08000000FFFFFFFFFFFFFFFF00
:020000040030CA
:0E000000FF08191EFF8080FF0FC00FE00F40A9
:00000001FF
