:0400000061EF00F0BC
:10000800FACF7CF0FBCF7DF0E9CF7EF0E3ED06F090
:10001800D8CF1FF0E8CF20F0E0CF21F0FACF22F0C0
:10002800FBCF23F0E9CF24F0EACF25F0E1CF26F08B
:10003800E2CF27F0D9CF28F0DACF29F0F3CF2AF092
:10004800F4CF2BF0F6CF2CF0F7CF2DF0F8CF2EF021
:10005800F5CF2FF09EA001D001D004D09E90E8ECFF
:1000680008F000D09EAA01D001D004D09E9A60EC7E
:1000780004F000D02FC0F5FF2EC0F8FF2DC0F7FF09
:100088002CC0F6FF2BC0F4FF2AC0F3FF29C0DAFF0B
:1000980028C0D9FF27C0E2FF26C0E1FF25C0EAFF3C
:1000A80024C0E9FF23C0FBFF22C0FAFF21C0E0FF04
:1000B80020C0E8FF1FC0D8FF100038EF08F0FC0E82
:1000C800D36E9B8C0201020E000100018E6F0201AB
:1000D8004A0E00018D6F000159EC09F00201020E71
:1000E800000100018B6F0201440E00018A6F0001BC
:1000F800E2EC0AF06EEC07F0000E926E000E896ECC
:100108000001A76F960E000100018A6F0001A75138
:1001180000016BEC0AF00001A76FE50E0001000179
:100128008A6F0001A75100019CEC09F09F909F9AEB
:100138009F869D8680EC0AF0A6EC0AF00001A76F66
:100148004F0E000100018F6F0001A7510001CEEC96
:1001580004F00001A76F4F0E000100018F6F00012E
:10016800A7510001CEEC04F000D0F0EC03F0000140
:10017800A76F0A0E00010001A26F0001A75102013A
:10018800020E00010001A46F0201490E0001A36FD5
:100198000201020E00010001A66F0201370E0001E4
:1001A800A56F00010FEC0AF002010201486F02017D
:1001B800020148AF01D001D069D079D078D077D08A
:1001C80065D00201020E000100018B6F0201420E90
:1001D80000018A6F0201000149C28CF00001000190
:1001E8008D6B020102014851000100018E6F000170
:1001F8008F6B00018EBF8F070201020E0001000104
:10020800916F0201370E0001906F00010EEC0BF0A8
:100218004ED00201020E02010201476F0201380EA0
:100228000201466F020120EE01F002014651D92673
:1002380002014751DA22DF50D8B401D001D020D0D2
:10024800020120EE01F002014651D9260201475170
:10025800DA22DF50FF0AD8B401D001D011D0000152
:10026800A76F080E000100018B6F0001A75146C25D
:100278008CF047C28DF0000143EC06F001D000D0AD
:1002880037C236F214D013D012D011D002010201B5
:1002980049510A0AD8B495D7220AD8B4BAD7010A5C
:1002A800D8B4EED7030AD8B402D001D000D00001E8
:1002B800A76F0A0E00010001A26F0001A7510201F9
:1002C800020E00010001A46F0201490E0001A36F94
:1002D8000201020E00010001A66F0201370E0001A3
:1002E800A56F000127EC0AF002010201486F020124
:1002F800020148AF01D001D096D037D736D735D7CD
:1003080092D000010001AA4BAB2B00010001AAB159
:1003180001D001D01CD00001A76F4F0E00010001D1
:100328008A6F0001A7510001A86F100E000100019B
:100338008B6F0001A8510001A96F080E0001000190
:100348008C6F0001A951000110EC09F01CD00001CC
:10035800A76F4F0E000100018A6F0001A75100012D
:10036800A86F120E000100018B6F0001A851000157
:10037800A96F080E000100018C6F0001A95100014E
:1003880010EC09F000D00201020E000100018B6F91
:100398000201440E00018A6F0201000149C28CF07B
:1003A800000100018D6B02010201485100010001AA
:1003B8008E6F00018F6B00018EBF8F070201020E46
:1003C80000010001916F0201370E0001906F0001DA
:1003D80006EC0BF0CAD600D089A001D002D0010EDD
:1003E80001D0000E0001A76F89500001A719FE0B6C
:1003F800A719896E37C28AF00001A76F080E00019D
:1004080000018B6F0001A7510201020E00010001DB
:100418008D6F0201370E00018C6F0001ECEC05F0C6
:10042800A4D6A3D6A2D60201020149510B0AD8B418
:1004380068D7150AD8B4D0D7010AD8B4CDD795D67D
:1004480094D693D692D661EF00F08FD0A1D0000158
:100458000001B85100010001B96101D001D012D0EA
:1004680000010001B951010D0001AE0EF324D96E4F
:100478000001000EF420DA6EDF50C96E00010001A1
:10048800B92B86D000017A6F000E00010001BB6F06
:1004980000017A51C5847CD07BD0AEC0C9FF000171
:1004A8007A6F030E00010001BB6F00017A5170D012
:1004B80000010001B85100010001B96101D001D06B
:1004C8001BD000017A6F040E00010001BB6F000110
:1004D8007A51C58600010001B951010D0001AE0E27
:1004E800F324D96E0001000EF420DA6EC9CFDFFFC5
:1004F80000010001B92B4CD000017A6F000E0001F9
:100508000001BB6F00017A51C584B8C076F00001C4
:100518007A6F280E00010001776F00017A510001FF
:10052800000E00010001796F0001AE0E0001786F26
:10053800000155EC0AF02CD02BD0C5880001000131
:10054800B85100010001B96101D001D002D0C59AAB
:1005580002D0C58A00D000017A6F030E00010001A5
:10056800BB6F00017A5114D013D000010001BB51B8
:10057800000AD8B40DD0010AD8B469D7030AD8B490
:100588008CD7010AD8B494D7070AD8B4D6D700D0E4
:100598001200000120EE35F000019451D926000127
:1005A8009551DA22DF50000100019D6F0001000122
:1005B8009D510D0DF350000100019425000100012B
:1005C800A06FF4500001000195210001A16F010EF8
:1005D800A0C0D9FFA1C0DAFFDF6201D001D075D079
:1005E800000120EE01F00001A051D9260001A1511F
:1005F800DA22DF5000010001966101D001D003D05A
:10060800FD0E66D065D0000120EE01F00001A0517A
:10061800D9260001A151DA22DF5000019B6F0001A9
:100628009B51000100019E6F00019F6B99C08AF0E9
:100638009AC08BF0030E00010001A02500019B6FFA
:10064800000E00010001A12100019C6F9BC08CF0ED
:100658009CC08DF09EC08EF09FC08FF0000192EC80
:1006680008F0000120EE35F000019451D926000170
:100678009551DA22000110EE35F000019451E1267F
:1006880000019551E222E75000019B6F00019B2970
:10069800030BDF6E000120EE02F00001A051D92605
:1006A8000001A151DA2297C0E1FF98C0E2FFDFCF35
:1006B800E7FFA0C0D9FFA1C0DAFF000EDF6E00017E
:1006C80000019E5105D004D003D0FC0E01D000D00B
:1006D8001200000100016CC071F000010001726B92
:1006E800000120EE34F000016A51D92600016B5157
:1006F800DA22DF5000010001736F0001000173511D
:100708000D0DF350000100016A2500010001746F0E
:10071800F450000100016B210001756F74C0D9FF0E
:1007280075C0DAFFDF50D8B401D001D003D0FF0E76
:1007380052D051D0000120EE01F000017451D926A9
:1007480000017551DA2200016CC0DFFF000120EEC4
:1007580002F000017451D92600017551DA22000116
:100768006DC0DFFF030E00010001742500010001C8
:10077800606F000E0001000175210001616F6EC0FD
:1007880062F06FC063F071C064F072C065F0000180
:10079800BDEC08F0000120EE34F000016A51D926C2
:1007A80000016B51DA22000110EE34F000016A51A9
:1007B800E12600016B51E222E7500001706F000151
:1007C8007029030BDF6E74C0D9FF75C0DAFF010E04
:1007D800DF6E010E00D01200000166EC08F0000187
:1007E80000018F5100018E11D8A401D001D002D090
:1007F80062D061D08A860001906F010E000100016D
:10080800AC6F0001905100D00101010E0001000100
:100818008B6F01017C0E00018A6F0001BBEC09F0AF
:100828000009D8B401D001D00BD00001906F000EA0
:1008380000010001AC6F000190518A963CD03BD07A
:100848000101010E000100018B6F0101B20E0001D0
:100858008A6F0001BBEC09F00009D8B401D001D0BF
:100868000BD00001906F000E00010001AC6F000179
:1008780090518A9620D01FD00001906F0A0E000177
:1008880000018A6F000190510001CEEC0AF08AA69F
:1008980001D002D0010E01D0000E0001906F0001BE
:1008A8009047904790478A5000019019F70B90198C
:1008B8008A6EAAD7A9D712009EAA01D001D054D017
:1008C800000120EE08F00001BE51D9260001BF51F9
:1008D800DA22DF501B6E1B50010DF350000100019E
:1008E800BE25D96EF45000010001BF21DA6ED7ECA5
:1008F80009F0DF6E000120EE08F00001BE51D92694
:100908000001BF51DA22DF2A000120EE08F00001C1
:10091800BE51D9260001BF51DA22080EDF6201D08C
:1009280001D022D0000120EE08F00001BE51D926E6
:100938000001BF51DA22DF50176E1B6E1F0E186EB2
:100948001B50BEC019F0BFC01AF094EC0AF00001A9
:1009580020EE08F00001BE51D9260001BF51DA226D
:10096800000EDF6E01D000D032A601D001D011D028
:10097800AB98AB881B6E000E176E1B501C6E1E0EBC
:10098800186E1C50000E1A6E000E196E94EC0AF0C8
:1009980000D01200000E000100018B6F0C0E000148
:1009A8008A6F00013FEC0AF000018AC090F0000154
:1009B8008BC091F090C0D9FF91C0DAFF00018FC0C1
:1009C800DFFF000120EE01F000019051D92600015F
:1009D8009151DA22200EDF6E00010001AD51070DA2
:1009E800010EF326000EF4220101000EF324D96E45
:1009F8000101010EF420DA6E000190C0DEFF000153
:100A080091C0DDFF00010001AD51070D030EF32673
:100A1800000EF4220101000EF324D96E0101010E2B
:100A2800F420DA6E000EDE6E000EDD6E00010001AD
:100A3800AD51070D050EF326000EF4220101000E3C
:100A4800F324D96E0101010EF420DA6E000EDE6E79
:100A5800000EDD6E00010001AD2B90C08BF091C03F
:100A68008CF000017CEC09F01200000EAC6E000E58
:100A7800AB6E000100018AA101D001D001D0AC8881
:100A8800000100018AA301D001D002D0AC8CAB8C4C
:100A9800000100018AA501D001D001D0AC8E00016F
:100AA80000018AA701D001D002D0AB8801D0AB8A5F
:100AB800000100018AA901D001D001D0AC849E9820
:100AC800000100018AAB01D001D001D0AB86000142
:100AD80000018AAD01D001D002D09D8A01D09D9A33
:100AE8009E9A000100018AAF01D001D002D09D88F2
:100AF80001D09D988BC0AFFF000100018C51B06EF2
:100B0800AC8AAB8E949C948EACA801D001D006D050
:100B1800ACBE01D001D002D0948C00D012000DC020
:100B280012F0136A20EE34F00B50D9260C50DA225A
:100B3800DF50146E14500D0DF3500B24156EF45045
:100B48000C20166E15C0D9FF16C0DAFFDF50D8B4D6
:100B580001D001D003D0FF0E3AD039D020EE01F0F9
:100B68001550D9261650DA220DC0DFFF20EE02F00C
:100B78001550D9261650DA220EC0DFFF030E1524B1
:100B8800016E000E1620026E0FC003F010C004F0B4
:100B980012C005F013C006F035EC09F020EE34F071
:100BA8000B50D9260C50DA2210EE34F00B50E12607
:100BB8000C50E222E750116E1128030BDF6E15C0AE
:100BC800D9FF16C0DAFF010EDF6E010E00D0120049
:100BD80000010001BB51D8B401D001D002D04ED0E1
:100BE8004DD000018E6F000E00010001B86F0001AA
:100BF8008E5120D000010001B851010DF3500001C1
:100C080000018C25D96EF450000100018D21DA6EA7
:100C180000010001B851010D0001AE0EF324E16E90
:100C28000001000EF420E26EDFCFE7FF00010001B3
:100C3800B82B00D0000100018B5100010001B85D04
:100C4800D8A001D001D0D6D700D000018E6F000EF9
:100C580000010001B96F00018E51C5809E86000118
:100C680000018A5100018A25C96E00018E6F010EAC
:100C780000010001BB6F00018E5100D0120000017D
:100C880020EE11F00001BE51D9260001BF51DA2231
:100C9800000EDF6E30D0000120EE11F00001BE51D1
:100CA800D9260001BF51DA22DF5000018E6F000102
:100CB8008E51010DF350000100018C25D96EF450BE
:100CC800000100018D21DA6EDF50000100018A6FFA
:100CD8000001B6EC0AF000D0ACA201D001D0FCD7DC
:100CE80000D0000120EE11F00001BE51D92600010C
:100CF800BF51DA22DF2A000120EE11F00001BE51B7
:100D0800D9260001BF51DA22DF5000018E6F0001A1
:100D180000018B5100018E5DD8A001D001D0BBD756
:100D280000D0120000010001AC6701D001D002D050
:100D380045D044D0000109EC08F0000100016351DE
:100D480000016211D8B401D001D002D037D036D01A
:100D58000001D8EC0AF000010001615100016011A6
:100D6800D8A401D001D002D029D028D00101010E89
:100D780000010001616F01017C0E0001606F00013C
:100D8800F3EC09F00009D8B401D001D002D016D094
:100D980015D00101010E00010001616F0101B20EC1
:100DA8000001606F0001F3EC09F00009D8B401D02C
:100DB80001D002D003D002D016EC0BF012000600CE
:100DC800EACF7FF0E1CF80F0E2CF81F0D9CF82F097
:100DD800DACF83F0F3CF84F0F4CF85F0F6CF86F046
:100DE800F7CF87F0F8CF88F0F5CF89F09EA601D02D
:100DF80001D004D09E9629EC02F000D0F2A401D0D4
:100E080001D004D0F294A7EC07F000D09E5000D097
:100E180096EC06F089C0F5FF88C0F8FF87C0F7FF99
:100E280086C0F6FF85C0F4FF84C0F3FF83C0DAFFF5
:100E380082C0D9FF81C0E2FF80C0E1FF7FC0EAFF26
:100E48007EC0E9FF7DC0FBFF7CC0FAFF11000001F6
:100E580020EE34F000018A51D92600018B51DA22A4
:100E6800000EDF6E000120EE35F000018A51D92610
:100E780000018B51DA22000EDF6E00018C6F000E2C
:100E8800000100018D6F00018C51030E000100016B
:100E98008D6501D001D002D01CD01BD0000100010B
:100EA8008D510D0DF350000100018A25D96EF450C3
:100EB800000100018B21DA6E000EDF6E00010001D7
:100EC8008D2B030E000100018D6501D001D0E6D7FE
:100ED80000D0120000018E6F000E00010001AC6FFF
:100EE80000018E510101010E000100018B6F01010B
:100EF800B20E00018A6F00012BEC07F00101010E10
:100F0800000100018B6F01017C0E00018A6F000156
:100F18002BEC07F00101010E000100018B6F0101AC
:100F2800460E00018A6F00012BEC07F00201020E49
:100F3800000100018B6F0201000E00018A6F0001A1
:100F48002BEC07F012008AA001D002D0010E01D0CC
:100F5800000E00017A6F8A5000017A19FE0B7A1987
:100F68008A6E00017A6F000E00010001766F0001A1
:100F78007A5100017B6F0A0E00010001776F0001B2
:100F88007B51000E00010001796F000E0001786F9F
:100F9800000155EC0AF0000E00010001616F000E1F
:100FA8000001606F0001FDEC0AF01200F2AC01D004
:100FB80001D00AD0000E000100018D6F000E000163
:100FC8008C6F22D021D020D00001C4EC0AF000019F
:100FD80000018B5100018A11D8B401D001D00AD088
:100FE800000E000100018D6F000E00018C6F0CD007
:100FF8000BD00AD0000E000100018D6F010E000118
:101008008C6F02D001D000D01200F2AC01D001D018
:101018000AD0000E00010001636F000E0001626F2C
:1010280022D021D020D00001D8EC0AF00001000124
:10103800615100016011D8B401D001D00AD0000E6E
:1010480000010001636F000E0001626F0CD00BD02D
:101058000AD0000E00010001636F010E0001626FEB
:1010680002D001D000D0120002EE5DF011EE90F037
:10107800EE6AE550E150FCE1E250FAE102EE00F0E0
:10108800360EEE6AE806FDE101EE00F0E80EEE6AC3
:10109800E806FDE100EEAAF0140EEE6AE806FDE1AE
:1010A800326A316A306A320EF66E160EF76E000E2C
:1010B800F86E0900F5CFC0F00900F5CFC1F00001C6
:1010C80063EF00F00001DAEC07F0000100018D5138
:1010D80000018C11D8A401D001D016D00001C4ECB5
:1010E8000AF0000100018B5100018A11D8A401D037
:1010F80001D00AD0000E000100018F6F010E00011F
:101108008E6F0BD00AD009D0000E000100018F6F3E
:10111800000E00018E6F01D000D012008CC092F03A
:101128008DC093F08AC090F08BC091F013D092C01C
:10113800D9FF93C0DAFF90C0E1FF91C0E2FFDFCF93
:10114800E7FF00010001924B932B00010001904B37
:10115800912B00D0000100018E07D8A08F07000155
:101168008E29D8B48F29D8A401D001D0E0D700D0D7
:10117800120062C068F063C069F060C066F061C0C8
:1011880067F013D068C0D9FF69C0DAFF66C0E1FF15
:1011980067C0E2FFDFCFE7FF00010001684B692B62
:1011A80000010001664B672B00D0000100016407B5
:1011B800D8A0650700016429D8B46529D8A401D04E
:1011C80001D0E0D700D012008AA201D002D0010ECF
:1011D80001D0000E1B6E1B468A501B18FD0B1B18F6
:1011E8008A6EEBEC0AF001C01DF002C01EF01B6E07
:1011F800000E176E1B501C6E0B0E186E1C50000E46
:101208001A6E000E196E94EC0AF0000E026E000EB3
:10121800016EF4EC0AF0120000010001BB51D8B4D1
:1012280001D001D002D01CD01BD000018D6F000E60
:1012380000010001B96F00018D518CC0B8F0D88051
:10124800000100018A3500010001AE6F00018D6FB9
:10125800020E00010001BB6F00018D51C58000D056
:10126800120003C009F004C00AF001C007F002C070
:1012780008F00FD009C0D9FF0AC0DAFF07C0E1FFA4
:1012880008C0E2FFDFCFE7FF094A0A2A074A082A0F
:1012980000D00506D8A006060528D8B40628D8A484
:1012A80001D001D0E7D700D01200F28C8DC0BEF07B
:1012B8008EC0BFF0000120EE08F00001BE51D92613
:1012C8000001BF51DA22000EDF6E00018F6F6C0E35
:1012D800000100018A6F00018F51000E000100011A
:1012E8008C6F190E00018B6F000139EC05F01200AC
:1012F8008BC08DF08CC08EF0000120EE02F0000152
:101308008D51D92600018E51DA220E0EDF6E0001B2
:1013180020EE02F000018D51D92600018E51DA220B
:10132800DF50000100018A6F000113EC0BF012007E
:10133800000100018A517E0BCD6E000100018AADCB
:1013480001D001D002D0CD8E02D0CD9E00D0000EAB
:10135800CF6E000ECE6E9E90000100018AAF01D0C4
:1013680001D002D09D8001D09D90CD801200000157
:1013780020EE35F000018A51D92600018B51DA227E
:10138800DF5000018C6F00018C510D0DF3500001EE
:1013980000018A25D96EF450000100018B21DA6E14
:1013A800DF5000D01200F20E3216ABAC01D001D0E3
:1013B80007D03290ABA001D001D002D0328000D04B
:1013C800ABA401D001D001D03284ABA201D001D0AE
:1013D80001D03286AECF01F0015000D012000001DA
:1013E80020EE35F000016051D92600016151DA2262
:1013F800DF500001626F000162510D0DF3500001D2
:1014080000016025D96EF450000100016121DA6EF7
:10141800DF5000D012000101010E00010001956F9C
:1014280001017C0E0001946FA2C096F0A3C097F052
:10143800A4C098F0A5C099F0A6C09AF00001CDEC20
:1014480002F000D012000101010E00010001956FA9
:101458000101B20E0001946FA2C096F0A3C097F0EC
:10146800A4C098F0A5C099F0A6C09AF00001CDECF0
:1014780002F000D01200C0C08CF0C1C08DF0000195
:1014880000018A5100010001C027000100018B51B1
:1014980000010001C1238CC08AF08DC08BF000D000
:1014A80012000101010E000100016B6F01017C0EA9
:1014B80000016A6F76C06CF077C06DF078C06EF08E
:1014C80079C06FF000016DEC03F000D0120000014C
:1014D80000018A517F0BD56E000ED76E000ED66EB6
:1014E800F294000100018AAF01D001D002D0F28A43
:1014F80001D0F29AD58E120089A201D002D0010E35
:1015080001D0000E00018A6F00018A47895000014E
:101518008A19FD0B8A19896ED08EF28EF28C120010
:101528000101010E0C6E0101B20E0B6E17C00DF019
:1015380018C00EF019C00FF01AC010F093EC05F0A7
:1015480000D0120094869488C78E280EC66E280E86
:10155800C86E00018A6F000E00010001BB6F000118
:101568008A511200ACAC01D001D007D0AC9032A2A5
:1015780001D001D002D0AC8000D08AC0ADFF1200EB
:10158800000EF2AE010E000100018A6F00018B6BA4
:1015980000D01200FA0E00F0E82EFDD7000100017D
:1015A8008A2FF8D700D01200000EF2AE010E00010B
:1015B8000001606F0001616B00D012008AC0D9FF82
:1015C8008BC0DAFF000EDE6E000EDD6E1200CECF8D
:1015D80003F0CFCF04F003C001F004C002F0120002
:1015E80001C003F002C004F004C0CFFF03C0CEFF67
:1015F800120060C062F061C063F063C0D7FF62C0D0
:10160800D6FF12008AC0D9FF8BC0DAFFDE2A000E8F
:10161800DD22120090C092F091C093F012008AC0AF
:0C16280089FF1200D38E030012005D0247
:020000040020DA
:08000000FFFFFFFFFFFFFFFF00
:020000040030CA
:0E000000FF08191EFF8080FF0FC00FE00F40A9
:00000001FF
